:1000000057EF20F0F76A140FF66E000EF722090082
:10001000F55012004449522F00004E6F4C6F6E672E
:1000200046696C654E616D6521004D4D4320696EDA
:10003000697469616C697A65640D0A004572726F52
:1000400072003173742066696C6520696E206C697A
:100050007374207761732070726F6265626C7920AF
:100060006120646972004F74686572206572726FF6
:10007000720D0A004D4D4320696E697420666169F6
:100080006C6564210D0A0000547279696E67206FF7
:100090006E6365206D6F72652E2E0D0A00000501DE
:1000A0004B51080804E04C6F4A374C2FFDD78A8A21
:1000B0004BC54CF58A9A4AAF8A9C4ABF8A8C4A370C
:1000C0008A8A013681A8019081B801804C2FF2D72D
:1000D0000001000C49C54AF5080E05014B6F0001EF
:1000E000DEDF000C050EEA6E480EE96EEF500EE002
:1000F000070E016E006A002EFED7012EFBD7C70E39
:10010000006E002EFED70000EF2EF2D7000CFF0E7F
:1001100005014A6F080E4B6F0001C1DF000CFF0E96
:1001200005014A6F080E4B6F0001B9DF0150000C4A
:10013000100E936E04008A8E0A0E0401EC6F640E9A
:10014000ED6FFF0E0501496F0001C4DF0401EC2FC4
:10015000F8D7010E0501486F0001C4DF8A9E400EEA
:100160000501496F0001B6DF0501496B0001B2DFEF
:100170000501496B0001AEDF0501496B0001AADFF3
:100180000501496B0001A6DF950E0501496F0001CD
:10019000A1DFBDDFC4DF01C0EBF48A8E010E0501D3
:1001A000486F00019FDF8A9E410E0501496F0001E3
:1001B00091DF0501496B00018DDF0501496B0001ED
:1001C00089DF0501496B000185DF0501496B0001ED
:1001D00081DF010E0501496F00017CDF98DF9FDFA1
:1001E00001C0EBF48A8E93DF0401ED07EB5305E0C9
:1001F000ED53D8B402D00001D1D7EB5304E1000E87
:10020000016E04D003D0A00E016E00D000017BEF80
:1002100020F00900F5520DE0F6CF09F5F7CF0AF509
:10022000F5509EA8FED7AD6E09C5F6FF0AC5F7FFCB
:10023000F0D7000CF29CF29EF2BEFDD70400020142
:100240000C6B3EC50DF23FC50EF240C50FF2D890C3
:100250000C370D370E370F378A9E510E0501496F47
:10026000000138DF0FC249F535DF0EC249F532DF34
:1002700002010D51FE0B0501486F496F00012ADF95
:100280000501496B000126DF010E0501496F0001E0
:1002900021DF080E0501446F000141DF01C045F573
:1002A0000501440703E0453D01D0F6D7320E446F07
:1002B000000135DF01C045F505014551FE0801E1AA
:1002C00007D0010E486F00010DDF0501442FF0D764
:1002D00043C5EAFF42C5E9FF020E476F466BFF0EBA
:1002E0004A6F080E4B6F0001DADE015001C0EEFFCD
:1002F0000501462FF4D7472FF2D7000110DF01C0C8
:1003000045F50DDF01C045F58A8EC00EF212000ED4
:10031000016E000C0501146B156B010E166FDA6A85
:10032000D96A050E196F0C0E186F050EEA6E100EC5
:10033000E96E19C5E2FF18C5E1FF16C517F5D8909B
:10034000E550EE02F3501423F4501523172FF7D77E
:1003500014C5DEFF15C514F5156BD8B0152B182B79
:10036000D8B4192B162B16510508DFE10001000C3B
:1003700005013E514003F3CF01F0F4CF00F04103FB
:10038000F35000263F514003F3500020026E00015D
:10039000000C02010B6B0A6B096B086B176B166B79
:1003A000156B146B17C241F516C240F515C23FF527
:1003B00014C23EF5020E0501436F560E426F000156
:1003C00039DF02015651EB0816E01CC414F21DC4BB
:1003D00015F21EC416F217C241F516C240F515C239
:1003E0003FF514C23EF5020E0501436F560E426FF3
:1003F000000120DF0201020EEA6E260EE96E020EF7
:10040000E26E560EE16E300E016EE6CFEEFF012E6B
:10041000FCD7345114250401EB6F0201355115212D
:100420000401EC6F000E020116210401ED6F000EB5
:10043000020117210401EE6FEEC441F5EDC440F551
:10044000ECC43FF5EBC43EF50501436B080E426F6B
:100450000001F0DE0201136B126B116B106B0501D2
:100460000F6B0E6B0D6B36C20CF54DC213F54CC203
:1004700012F54BC211F54AC210F500014BDF0050D6
:10048000020114250401F06F01500201152104013D
:10049000F16F0250020116210401F26F03500201B4
:1004A00017210401F36F020134510401F027020106
:1004B00035510401F123000EF223F323020EF05D07
:1004C0000201186F000E0401F1590201196F000EAC
:1004D0000401F25902011A6F000E0401F3590201DE
:1004E0001B6F0401EF6BEF531CE105013F6BEFC481
:1004F0003EF5020E416F310E406F000139DF01C041
:10050000F0F4300E04010124016E020E0220036E8D
:100510000150560FE96E020E0320EA6EEF80EF2BBA
:10052000E2D7EF6BEF51090810E3EF51050DF350DF
:10053000F16BF06FA10EF025E96E040EF121EA6E69
:10054000EC6AED52EF6AEF2BEDD7A081000186EF48
:1005500020F00501075303E0880E016EF5D00F6B04
:100560000E6B0D6B36C20CF54DC213F54CC212F575
:100570004BC211F54AC210F50001CCDE0050020159
:10058000142505010C6F01500201152105010D6FA5
:1005900002500201162105010E6F035002011721BE
:1005A00005010F6F0201345105010C25086F02018E
:1005B000355105010D21096F000E0E210A6F000E45
:1005C0000F210B6F3F6B07C53EF5020E416F310ED9
:1005D000406F0001CDDE01C00CF5560E050101246F
:1005E000016E020E0220036E01C00CF50D6F0BC5EB
:1005F00041F50AC540F509C53FF508C53EF5436F0D
:1006000001C042F5000116DE0BC520F20AC51FF23B
:1006100009C51EF208C51DF205013F6B07C53EF571
:10062000020E416F310E406F0001A2DE01C00CF5D9
:100630002A0E05010124016E020E0220036E0150F4
:10064000560FE96E020E0320EA6E08C5EFFF09C5DA
:10065000ECFF0AC5ECFF0BC5ECFF3F6B07C53EF591
:10066000020E416F310E406F000182DE01C00CF5B9
:100670002E0E05010124016E020E0220036E0150B0
:10068000560FE96E020E0320EA6EEF6A3F6B07C554
:100690003EF5020E416F310E406F000169DE01C070
:1006A0000CF5050101C001F0020E0224036E015099
:1006B000560F016E020E032201C00CF503C00DF5AA
:1006C0003F6B07C53EF5020E416F310E406F0001D2
:1006D0004FDE01C00EF5560E05010124016E020E1B
:1006E0000220036E01C00EF50F6F0DC5EAFF0CC5A9
:1006F000E9FFE26E01C0E1FF200E016EE6CFEEFFE2
:10070000012EFCD73F6B07C53EF5020E416F310E3F
:10071000406F00012DDE01C00CF5200E0501012403
:10072000016E020E0220036E0150560FE96E020E9A
:100730000320EA6E52C2EFFF53C2ECFF54C2ECFF3B
:1007400055C2ECFF000E016E00012EEF08F019C536
:100750001BF518C51AF51BC503F005011AC5E9FFFD
:100760001BC5EAFFEF5206E01A2BD8B41B2B000181
:10077000F2D7050118511A5D006E19511B59036E0D
:1007800000C001F00001000C05010EC5E9FF0FC516
:10079000EAFFEF502E080DE1010E0E25E96E000E66
:1007A0000F21EA6EEF502E0804E1FF0E016E04D017
:1007B00003D0000E016E00D0000135EF07F00501F7
:1007C000326B2FC5E9FF30C5EAFFEF6A316B31515B
:1007D000070819E3036A31512D25E96E2E510320D4
:1007E000EA6EEFCF33F53351200801E10CD03251DE
:1007F000322B036A2F25E96E30510320EA6E33C590
:10080000EFFF312BE4D7316B315102082CE3036A3F
:100810003151080F016E000E032201502D25E96EA3
:100820002E510320EA6EEFCF33F53351200802E05A
:10083000335301E118D031530AE13251322B036AAC
:100840002F25E96E30510320EA6E2E0EEF6E3251E5
:10085000322B036A2F25E96E30510320EA6E33C52F
:10086000EFFF312BD1D73251322B036A2F25E96E9E
:1008700030510320EA6EEF6A0001000C05012DC51E
:10088000E9FF2EC5EAFFEFCF31F530C503F02FC5E4
:10089000E9FF30C5EAFFEF50315D15E12EC503F0E9
:1008A0002DC5E9FF03C0EAFFEF5203E1000E016E20
:1008B0001FD02EC503F02D512D2BD8B42E2B2F2B4E
:1008C000D8B4302BDCD72EC503F02DC5E9FF2EC5DB
:1008D000EAFFEFCF31F530C503F02FC5E9FF30C592
:1008E000EAFFEF50315D02E2FF0E01D0010E016E12
:1008F00000018FEF05F0050134313C6F33313B6F60
:1009000032313A6F3131396F3C333B333A3339331B
:100910003C333B333A3339333C333B333A3339336B
:100920003C333B333A3339333C333B333A3339335B
:100930003C333B333A333933010E3C1731517F0B93
:100940003D6F020110510501395D0FE102011151A6
:1009500005013A5D0AE10201125105013B5D05E125
:100960000201135105013C5D36E0020134511425AA
:1009700005013E6F02013551152105013F6F000E43
:10098000020116210501406F000E02011721050129
:10099000416F39513E25356F3A513F21366F3B51FA
:1009A0004021376F3C514121386F38C541F537C57B
:1009B00040F536C53FF535C53EF5436B080E426F31
:1009C000000138DC3CC513F23BC512F23AC511F206
:1009D00039C510F205013F6B3DC53EF5416B040E74
:1009E000406F0001C5DC02C003F00150080FE96E42
:1009F000000E0220EA6EEFCF00F0ECCF01F0ECCF5A
:100A000002F0ECCF03F0000C0501105303E0000EE0
:100A1000016EBAD1FF0E0201216F0F0E256FFF0E7E
:100A2000246F236F226F05013F6B10C53EF5020E48
:100A3000416F310E406F00019BDC01C02DF5560E59
:100A400005010124016E020E022001C011F5126F92
:100A5000146B136B1453D8A4B6D013510F08D8A03D
:100A6000B2D011C5E9FF12C5EAFFEF50E50806E074
:100A700011C5E9FF12C5EAFFEF5233E10201213D42
:100A800001D002D005012DD013C521F205013F6B25
:100A900010C53EF5020E416F310E406F000168DC5B
:100AA00002C02EF501C02DF5200E05010124016EB6
:100AB000020E0220036E0150560FE96E020E032053
:100AC000EA6EEFCF00F0ECCF01F0ECCF02F0ECCF0C
:100AD00003F003C025F202C024F201C023F200C0DB
:100AE00022F211C5E9FF12C5EAFFEF5203E1000E41
:100AF000016E4AD112C52EF511C52DF5050E306FC8
:100B0000150E2F6F00015BDE050E05012E6F150E11
:100B10002D6F0FC530F50EC52FF50001AFD6015270
:100B200049E105013F6B10C53EF5020E416F310EE4
:100B3000406F00011DDC01C02DF5050101C001F071
:100B4000020E0224036E0150560F016E020E0322A4
:100B500001C02DF503C02EF503C0EAFF01C0E9FF77
:100B600012C5E2FF11C5E1FF200E016EE6CFEEFFD8
:100B7000012EFCD73F6B10C53EF5020E416F310EC2
:100B8000406F0001B8EC01F001C02DF52E0E0501FB
:100B90000124016E020E0220036E0150560FE96E11
:100BA000020E0320EA6E13C5EFFF13C51CF2010EFF
:100BB000016EEAD0200E05011127D8B0122B132B9D
:100BC000D8B4142B47D73F6B10C53EF5020E416FCA
:100BD000310E406F0001B8EC01F001C02DF5200E80
:100BE00005010124016E020E0220036E0150560F12
:100BF000E96E020E0320EA6EEFCF2DF5ECCF2EF555
:100C0000ECCF2FF5ECCF30F530C534F52FC533F5EB
:100C10002EC532F52DC531F500016DDE03C028F576
:100C200002C027F501C026F500C025F50501253DC8
:100C300008D0263D06D0273D04D028510F08D8B44F
:100C40008CD0255307E1265305E1275303E12853B0
:100C5000D8B483D00201185105012525296F02015E
:100C60001951050126212A6F02011A510501272178
:100C70002B6F02011B51050128212C6F3F6B10C502
:100C80003EF5020E416F310E406F0001B8EC01F0ED
:100C900001C02DF5560E05010124016E020E022041
:100CA000036E01C02DF52E6F2CC541F52BC540F507
:100CB0002AC53FF529C53EF5436F01C042F5000145
:100CC0001AEC01F02CC520F22BC51FF22AC51EF22A
:100CD00029C51DF205013F6B10C53EF5020E416F9F
:100CE000310E406F0001B8EC01F001C02DF52A0E65
:100CF00005010124016E020E0220036E0150560F01
:100D0000E96E020E0320EA6E29C5EFFF2AC5ECFF4B
:100D10002BC5ECFF2CC5ECFF3F6B10C53EF5020E5A
:100D2000416F310E406F0001B8EC01F001C02DF5AC
:100D3000200E05010124016E020E0220036E0150F7
:100D4000560FE96E020E0320EA6E25C5EFFF26C599
:100D5000ECFF27C5ECFF28C5ECFF253D07D0263D5D
:100D600005D0273D03D028510F080CE02553D8A407
:100D70005BD62653D8A458D62753D8A455D6285383
:100D8000D8A452D6000E016E0001000C05013F6B85
:100D900010C53EF5020E416F310E406F0001B8ECF8
:100DA00001F002C016F501C015F5020E0501162767
:100DB000140E0124016E000E1621036E0150560F11
:100DC000E96E020E0320EA6EECCF03F0ED52EFCF96
:100DD00000F003C001F0026A036A03C014F502C008
:100DE00013F501C012F500C011F512C514F511C5B7
:100DF00013F5116B126B3F6B10C53EF5020E416F80
:100E0000310E406F0001B8EC01F002C016F501C0D0
:100E100015F5020E050116271A0E0124016E000EAB
:100E20001621036E0150560FE96E020E0320EA6E82
:100E3000ECCF03F0ED52EF5011130350121311C514
:100E400000F012C501F013C502F014C503F0000153
:100E5000000C0501095303E0000E016EB3D008C574
:100E60000FF507C50EF500018FD4015205E0010E04
:100E7000016E0501A7D0000108C50FF507C50EF5E5
:100E800009C510F5C1DD015205E1000E016E050135
:100E900099D0000109C510F579DF03C00DF502C036
:100EA0000CF501C00BF500C00AF50201185105014F
:100EB0000A270201195105010B2302011A510501EC
:100EC0000C2302011B5105010D233F6B09C53EF5A3
:100ED000020E416F310E406F0001B8EC01F001C00D
:100EE0000EF5560E05010124016E020E0220036E5E
:100EF00001C00EF50F6F0DC541F50CC540F50BC5D2
:100F00003FF50AC53EF5436F01C042F500011AECFA
:100F100001F00DC520F20CC51FF20BC51EF20AC56B
:100F20001DF205013F6B09C53EF5020E416F310E02
:100F3000406F0001B8EC01F001C00EF52A0E05016A
:100F40000124016E020E0220036E0150560FE96E5D
:100F5000020E0320EA6E0AC5EFFF0BC5ECFF0CC5BD
:100F6000ECFF0DC5ECFF3F6B09C53EF5020E416F6E
:100F7000310E406F0001B8EC01F001C00EF5200EFB
:100F800005010124016E020E0220036E0150560F6E
:100F9000016E020E032201C00EF503C00FF509C554
:100FA00010F50001F3DE0FC5EAFF0EC5E9FF00C032
:100FB000EFFF01C0ECFF02C0ECFF03C0ECFF010E2D
:100FC000016E0501000164EF08F0050100C5E9FFAD
:100FD00001C5EAFFFF0EEF6E026B025326E13F6B85
:100FE00002C53EF5020E416F310E406F0001B8ECB4
:100FF00001F002C007F501C006F5300E050101241D
:10100000016E020E0220036E0150560FE96E020EB1
:101010000320EA6EEFA007D000C5E9FF01C5EAFF93
:1010200002C5EFFF02D0022BD8D701C503F000C5DF
:10103000E9FF01C5EAFFEF3C04D0000E016E026E2D
:1010400083D001C503F000C5E9FF01C5EAFFEFCF7A
:1010500006F506C507F50001A9EF02F0FFC405F586
:10106000FEC404F5FFC419F5FEC418F5A7EC03F09F
:1010700001C003F50501026B0351025D61E2036AE1
:1010800002510401FE25E96EFF510320EA6EEF5084
:101090002F0853E1036A050102510401FE25E96EA0
:1010A000FF510320EA6EEF6A01C503F000C5E9FFB6
:1010B00001C5EAFFEFCF06F505C508F504C507F53C
:1010C00006C509F50001C5D6015225E101C503F0A9
:1010D000050100C5E9FF01C5EAFF3F6BEFCF3EF513
:1010E000020E416F310E406F0001B8EC01F001C0FB
:1010F00006F5300E05010124016E020E0220036E7A
:101100000150560FE96E020E0320EA6EEF80000ECA
:10111000016E026E19D0050102510401FE25050180
:10112000066F000E0401FF210501076F010E062561
:10113000046F000E0721056F04010501022B9CD7E7
:1011400004C501F005C502F00001000CECC4FFF479
:10115000EBC4FEF4040E0501016FED0E006F0001FB
:1011600034DF02C0EFF401C0EEF40401EE5305E1F8
:10117000EF5303E1B00E016ECFD005013F6BEDC41C
:101180003EF5020E416F310E406F0001B8EC01F0E8
:1011900001C0EEF4300E04010124016E020E0220A3
:1011A000036E0150560FE96E020E0320EA6EEF90B7
:1011B00005013F6BEDC43EF5020E416F310E406FED
:1011C0000001B8EC01F002C0EFF401C0EEF42A0E09
:1011D00004010124016E020E0220036E0150560F1D
:1011E000E96E020E0320EA6EEFCF00F0ECCF01F0C3
:1011F000ECCF02F0ECCF03F003C091F402C090F406
:1012000001C08FF400C08EF405013F6BEDC43EF5C4
:10121000020E416F310E406F0001B8EC01F002C0C8
:10122000EFF401C0EEF4200E04010124016E020E61
:101230000220036E0150560FE96E020E0320EA6E83
:10124000EFCF00F0ECCF01F0ECCF02F0ECCF03F0E9
:1012500003C095F402C094F401C093F400C092F46A
:10126000966B05013F6BEDC43EF5020E416F310EEA
:10127000406F0001B8EC01F002C0EFF401C0EEF4E1
:101280002A0E04010124016E020E0220036E015099
:10129000560FE96E020E0320EA6EEFCF00F0ECCF9E
:1012A00001F0ECCF02F0ECCF03F003C09AF402C0DF
:1012B00099F401C098F400C097F405013F6BEDC4A8
:1012C0003EF5020E416F310E406F0001B8EC01F0A7
:1012D00002C0EFF401C0EEF4200E04010124016EFF
:1012E000020E0220036E0150560FE96E020E03201B
:1012F000EA6EEFCF00F0ECCF01F0ECCF02F0ECCFD4
:1013000003F003C09EF402C09DF401C09CF400C031
:101310009BF49F6BEDC401F000019BEF20F00501F1
:101320001AC5E9FF1BC5EAFF1DC5ECFFED521CC540
:10133000EFFF0001000C07C01DF506C01CF5020EF2
:1013400005011C25E96E000E1D21EA6EECCF1FF58C
:10135000ED52EFCF1EF51A511E5D03E11B511F5DCB
:1013600010E0020E1C25E96E000E1D21EA6EECCF86
:1013700003F0ED52EFCF1CF503C01DF50001DFD7E0
:101380000501020E1C25016E000E1D21036E1F6F4C
:10139000020E1A25E96E000E1B21EA6EECCF03F057
:1013A000ED52EFCF20F51FC5EAFF01C0E9FF03C0F2
:1013B000ECFFED5220C5EFFF1B6B1A6B000144EFF1
:1013C0000AF007C013F506C012F50501125303E138
:1013D0001353D8B484D012C5E9FF13C5EAFFECCF8C
:1013E0001BF5ED52EFCF1AF51BBF69D012C5E9FF0F
:1013F00013C5EAFFECCF03F0ED52EFCF16F503C0B3
:1014000017F5020E1225E96E000E1321EA6EECCFDD
:1014100015F5ED52EFCF14F514C5E9FF15C5EAFF38
:10142000ECCF1BF5ED52EFCF1AF51BBF38D016519C
:1014300012251C6F175113211D6F040E1C25016E00
:10144000000E1D21036E0150145D29E10350155D4E
:1014500026E114C5E9FF15C5EAFFECCF03F0ED5214
:10146000EFCF18F503C019F5040E1825016E000E14
:101470001921036E015016270350172315C51BF5BC
:1014800014C51AF5000157D713C51BF512C51AF577
:1014900017C51DF516C51CF542DF0FD00501020E5C
:1014A0001225E96E000E1321EA6EECCF03F0ED5227
:1014B000EFCF12F503C013F500010FD00501020EA6
:1014C0001225E96E000E1321EA6EECCF03F0ED5207
:1014D000EFCF12F503C013F5000177D70501000126
:1014E000ACEF0AF005010C5304E10D5302E135D0D5
:1014F00031D0040E0C5D0E6F000E0D590F6F0EC52E
:10150000E9FF0FC5EAFFECCF13F5ED52EFCF12F56F
:1015100013AF1DD00EC5E9FF0FC5EAFFECCF13F5E1
:10152000ED52EFCF12F5000E125D106F800E1359C1
:10153000116F0FC51BF50EC51AF511C51DF510C5A8
:101540001CF50001ECDE05010D6B0C6B03D00D6B7F
:101550000C6B03D0000135D705010001000C05011B
:10156000096B095109085FE30951050DF3500B6B35
:101570000A6F040E0A25016E000E0B21036E015046
:10158000A10FE96E040E0320EA6EEFA21ED00951EE
:10159000050DF3500B6B0A6F020E0A25016E000E4B
:1015A0000B21036E0150A10FE96E040E0320EA6EB9
:1015B000ECCF0BF5ED52EFCF0AF50BC50DF50AC5D3
:1015C0000CF500018FDF15D005010951050DF35011
:1015D0000B6B0A6F020E0A25016E000E0B21036EC3
:1015E0000150A10FE96E040E0320EA6EEC6AED5281
:1015F000EF6A05010951050DF3500B6B0A6FA10E3F
:101600000A25E96E040E0B21EA6EECCF0BF5ED52C4
:10161000EFCF0AF50BC50DF50AC50CF5000162DF29
:101620000501092B9ED70001CAEF0CF01AC51CF565
:1016300019C51BF505011BC5E9FF1CC5EAFF18C547
:10164000ECFFED5217C5EFFF020E1B25E96E000EF1
:101650001C21EA6EEC6AED52EF6A1BC501F01CC555
:1016600002F00001CAEF0BF0020E05011325E96E2E
:10167000000E1421EA6EECCF18F5ED52EFCF17F5FE
:1016800017530CE118530AE1020E1525E96E000EFE
:101690001621EA6EEC6AED52EF6A1BD0020E152598
:1016A000016E000E1621036E186F020E1325E96EEF
:1016B000000E1421EA6EECCF03F0ED52EFCF19F5D6
:1016C00018C5EAFF01C0E9FF03C0ECFFED5219C5E0
:1016D000EFFF020E1325E96E000E1421EA6E16C507
:1016E000ECFFED5215C5EFFF0001D7EF0BF007C07F
:1016F0000EF506C00DF505010D5303E10E53D8B4E8
:1017000083D00DC5E9FF0EC5EAFFECCF14F5ED520D
:10171000EFCF13F514BF6AD00DC5E9FF0EC5EAFF80
:10172000ECCF16F5ED52EFCF15F5165303E10C5142
:10173000155D5CE30DC5E9FF0EC5EAFFECCF03F0D4
:10174000ED52EFCF11F503C012F5040E0C25125324
:1017500003E1115D3BE03AE30C51115D136F000EA4
:101760001259146F040E135F000E145B040E0D2546
:10177000156F000E0E21166F0C511527000E162343
:1017800014C518F513C517F516C51AF515C519F5BD
:1017900000014CD702C010F501C00FF50EC514F5BD
:1017A0000DC513F510C516F50FC515F55DD7050167
:1017B0000CC513F5800E0EC51BF50DC51AF51D6F72
:1017C0000CC51CF50001ABDD0FD0050111C513F5EB
:1017D000800E1225146F0EC51BF50DC51AF51D6F71
:1017E00011C51CF500019BDD05010ED0020E0D2573
:1017F000E96E000E0E21EA6EECCF03F0ED52EFCF52
:101800000DF503C00EF578D70D5307E10E5305E132
:10181000000E016E026E09D008D0040E0D25016E77
:10182000000E0E21036E026E00D00001000C0501B7
:101830000E6B0BC5E9FF0CC5EAFFEF6A010E0D6FD9
:101840000D510A081CE30D510925016E000E0A21F5
:1018500001C0E9FFEA6EEFCF0FF50F5302E00F3D35
:1018600001D00DD00E510E2B036A0B25E96E0C51E1
:101870000320EA6E0FC5EFFF020E0D27E1D70F53CD
:101880004AE00F3D01D047D00E0E0D6F0D511908E3
:101890001CE30D510925016E000E0A2101C0E9FF6C
:1018A000EA6EEFCF0FF50F5302E00F3D01D00DD0E0
:1018B0000E510E2B036A0B25E96E0C510320EA6EC4
:1018C0000FC5EFFF020E0D27E1D70F5324E00F3DA8
:1018D00001D021D01C0E0D6F0D511E081CE30D51BF
:1018E0000925016E000E0A2101C0E9FFEA6EEFCF63
:1018F0000FF50F5302E00F3D01D00DD00E510E2B0E
:10190000036A0B25E96E0C510320EA6E0FC5EFFF49
:10191000020E0D27E1D70E510E2B036A0B25E96E3F
:101920000C510320EA6EEF6A0001000C0501105112
:101930000C25116F000E0D21126F0FC503F00EC59F
:10194000E9FF0FC5EAFFEF5216E00EC5E9FF0FC52C
:10195000EAFFEFCF15F512C5EAFF11C5E9FF15C57E
:10196000EFFF12C503F01151112BD8B4122B0E2B1F
:10197000D8B40F2BE2D70001000C0501009104013F
:10198000EB5304E0000E016E42EF12F0A0A102D072
:101990000001E5D505013F6BEBC43EF5020E416F3A
:1019A000310E406F0001B8EC01F001C009F5200EC6
:1019B00005010124016E020E0220036E0150560F34
:1019C000E96E020E0320EA6EEFCF09F5ECCF0AF5BF
:1019D000ECCF0BF5ECCF0CF504019B510501095D33
:1019E00045E104019C5105010A5D40E104019D515E
:1019F00005010B5D3BE104019E5105010C5D36E1E3
:101A00003F6BEBC43EF5020E416F310E406F00019B
:101A1000B8EC01F001C009F52A0E05010124016EA0
:101A2000020E0220036E0150560FE96E020E0320D3
:101A3000EA6EEFCF09F5ECCF0AF5ECCF0BF5ECCF62
:101A40000CF5040197510501095D10E1040198515D
:101A500005010A5D0BE10401995105010B5D06E1E9
:101A600004019A5105010C5DD8B488D03F6BEBC4DA
:101A70003EF5020E416F310E406F0001B8EC01F0EF
:101A800001C009F52A0E05010124016E020E022093
:101A9000036E0150560FE96E020E0320EA6E97C4E2
:101AA000EFFF98C4ECFF99C4ECFF9AC4ECFF3F6BC6
:101AB000EBC43EF5020E416F310E406F0001B8ECF1
:101AC00001F001C009F5200E05010124016E020E8E
:101AD0000220036E0150560FE96E020E0320EA6EDB
:101AE0009BC4EFFF9CC4ECFF9DC4ECFF9EC4ECFFC5
:101AF0003F6BEBC43EF5020E416F310E406F0001AB
:101B0000B8EC01F001C009F52A0E05010124016EAF
:101B1000020E0220036E0150560FE96E020E0320E2
:101B2000EA6EEFCF09F5ECCF0AF5ECCF0BF5ECCF71
:101B30000CF53F6BEBC43EF5020E416F310E406F6A
:101B40000001B8EC01F001C00DF5560E05010124AD
:101B5000016E020E0220036E01C00DF50E6F0CC562
:101B600041F50BC540F50AC53FF509C53EF5436F84
:101B700001C042F500011AEC01F005013F6BEBC416
:101B80003EF5020E416F310E406F0001B8EC01F0DE
:101B900001C009F52E0E05010124016E020E02207E
:101BA000036E0150560FE96E020E0320EA6E9FC4C9
:101BB000EFFF0401FD6B05013F6BEBC43EF5020E28
:101BC000416F310E406F0001B8EC01F002C00AF520
:101BD00001C009F505013F6BEBC43EF5020E416FF4
:101BE000310E406F0001B8EC01F002C00AF501C0EF
:101BF00009F52E0E05010124016E020E0220036E6E
:101C00000150560FE96E020E0320EA6EEF50036A90
:101C1000026E0234096F03340A6F09370A37093735
:101C20000A3709370A3709370A37E00E0917095109
:101C30000925016E0A510A21036E0150560F016EEB
:101C4000020E032201C0ECF4040103C0EDF405010F
:101C50003F6BEBC43EF5020E416F310E406F000149
:101C6000B8EC01F002C00AF501C009F52E0E05011D
:101C70000124016E020E0220036E0150560FE96E20
:101C8000020E0320EA6EEFCFFCF40401FC510F08B2
:101C9000D8A0E3D2ECC4E9FFEDC4EAFFEF50E508B9
:101CA000D8B4AFD2ECC4E9FFEDC4EAFFEF52D8B428
:101CB000A8D20B0EEC25E96E000EED21EA6EEF5076
:101CC0000F08D8B485D1050100A193D00401A0A1CB
:101CD00066D0FD51050DF35005010A6B096F020E28
:101CE0000925016E000E0A21036E0150A10F016E3D
:101CF000040E032201C009F503C00AF50D0E0C6F96
:101D00000001F5DC0AC5EAFF09C5E9FF02C0ECFFE6
:101D1000ED5201C0EFFF0401FD51050DF350050127
:101D20000A6B096F040E0925016E000E0A21036E6D
:101D30000150A10FE96E040E0320EA6EEF82EDC49C
:101D40002EF5ECC42DF5040E306FEE0E2F6F000152
:101D5000DFEC03F00401FD51050DF35005010A6BA2
:101D6000096F020E0925016E000E0A21036E015053
:101D7000A10FE96E040E0320EA6EECCF0AF5ED52D6
:101D8000EFCF09F50AC5EAFF09C5E9FF040EE26EC7
:101D9000EE0EE16EE752E6CFEEFFFCE10401FD2B13
:101DA000050100910401FD510A0821E105013F6B85
:101DB000EBC43EF5020E416F310E406F0001B8ECEE
:101DC00001F001C009F52E0E05010124016E020E7D
:101DD0000220036E0150560FE96E020E0320EA6ED8
:101DE000010E0401FC25EF6EFDC401F04BD3EFD0D2
:101DF00005010401A0A1C6D0EDC42EF5ECC42DF55B
:101E0000040E0501306FEE0E2F6F0001DFEC03F0C2
:101E10000401FD51050DF35005010A6B096FA10E78
:101E20000925016E040E0A21036E01C009F50A6F2F
:101E3000040E196FEE0E186F0001A7EC03F0010EEF
:101E4000012405010B6F0C6F000151DC0AC5EAFF8C
:101E500009C5E9FF02C0ECFFED5201C0EFFF04012C
:101E6000FD51050DF35005010A6B096FA10E0925FF
:101E7000E96E040E0A21EA6EECCF0AF5ED52EFCFBF
:101E800009F50AC5EAFF09C5E9FF040EE26EEE0E88
:101E9000E16EE752E6CFEEFFFCE10401FD51050DD6
:101EA000F35005010A6B096F020E0925016E000E41
:101EB0000A21036E0150A10F016E040E032203C01C
:101EC0000AF50401FD51050DF35005010C6B0B6F74
:101ED000A10E0B25E96E040E0C21EA6EECCF03F087
:101EE000ED52EFCF0BF50AC5EAFF01C0E9FF03C0D1
:101EF000ECFFED520BC5EFFF0401FD51050DF35052
:101F000005010A6B096F040E0925016E000E0A21F6
:101F1000036E0150A10FE96E040E0320EA6EEF92EA
:101F20000B0E0401EC25E96E000EED21EA6EEFA820
:101F300015D0FD51050DF35005010A6B096F040E14
:101F40000925016E000E0A21036E0150A10FE96EF2
:101F5000040E0320EA6EEF8014D00401FD51050D3C
:101F6000F35005010A6B096F040E0925016E000E7E
:101F70000A21036E0150A10FE96E040E0320EA6EE0
:101F8000EF900401FD2BFD510A0821E105013F6B93
:101F9000EBC43EF5020E416F310E406F0001B8EC0C
:101FA00001F001C009F52E0E05010124016E020E9B
:101FB0000220036E0150560FE96E020E0320EA6EF6
:101FC000010E0401FC25EF6EFDC401F05BD219D1B6
:101FD0000B0EEC25E96E000EED21EA6EEF500F0BB3
:101FE0000F08D8A40ED1ECC4E9FFEDC4EAFFEF500E
:101FF0003F0BFE6FECC4E9FFEDC4EAFFEFACB5D0D8
:10200000A0A1AFD0EDC40AF5ECC409F5040E05019A
:102010000C6FEE0E0B6F00010ADC040E0501196F48
:10202000EE0E186F0001A7EC03F0010E0401FE5D37
:102030000D0DF350050101240401FF6FFD51050D45
:10204000F35005010A6B096FA10E0925016E040EFC
:102050000A21036E01C009F50A6F010E0401FF2574
:1020600005010B6F0C6F000177EC0BF00AC5EAFF5E
:1020700009C5E9FF02C0ECFFED5201C0EFFF04010A
:10208000FD51050DF35005010A6B096FA10E0925DD
:10209000E96E040E0A21EA6EECCF0AF5ED52EFCF9D
:1020A00009F5036A0401FF5105010925E96E0A518A
:1020B0000320EA6EEF6A0401FD51050DF35005019E
:1020C0000A6B096FA10E0925E96E040E0A21EA6E5A
:1020D000ECCF0AF5ED52EFCF09F5010E0401FE5DDC
:1020E0000D0DF3CF0BF505010AC50DF509C50CF56E
:1020F000040E0F6FEE0E0E6F0BC510F5000116DC0F
:102100000B0E0401EC25E96E000EED21EA6EEFA83E
:1021100015D0FD51050DF35005010A6B096F040E32
:102120000925016E000E0A21036E0150A10FE96E10
:10213000040E0320EA6EEF8014D00401FD51050D5A
:10214000F35005010A6B096F040E0925016E000E9C
:102150000A21036E0150A10FE96E040E0320EA6EFE
:10216000EF90050100814CD00401ECC4E9FFEDC4FF
:10217000EAFFEF50800B43E1050100A139D00401D3
:10218000A0B102D0050134D0EDC40AF5ECC409F5C4
:10219000040E05010C6FEE0E0B6F000117EC0CF036
:1021A0000401FD51050DF35005010A6B096FA10EE5
:1021B0000925E96E040E0A21EA6EECCF0AF5ED520C
:1021C000EFCF09F5010E0401FE5D0D0DF3CF0BF508
:1021D00005010AC50DF509C50CF5040E0F6FEE0ECD
:1021E0000E6F0BC510F5000196EC0CF008D0050140
:1021F0001A0EF66E000EF76E000109EC01F00501F3
:102200000401ECC4E9FFEDC4EAFFEF5220E105014F
:102210003F6BEBC43EF5020E416F310E406F000183
:10222000B8EC01F001C009F52E0E05010124016E84
:10223000020E0220036E0150560FE96E020E0320BB
:10224000EA6E110EEF6E0401FDC401F01BD1200EE9
:10225000EC27D8B0ED2BFC2B19D505013F6BEBC457
:102260003EF5020E416F310E406F0001B8EC01F0F7
:1022700001C009F5200E05010124016E020E0220A5
:10228000036E0150560FE96E020E0320EA6EEFCF87
:1022900009F5ECCF0AF5ECCF0BF5ECCF0CF50CC53E
:1022A00034F50BC533F50AC532F509C531F5000122
:1022B0007BEC04F003C004F502C003F501C002F595
:1022C00000C001F50501013D08D0023D06D0033DE7
:1022D00004D004510F08D8B49ED0015307E1025333
:1022E00005E1035303E10453D8B495D0020118511A
:1022F00005010125056F0201195105010221066F33
:1023000002011A5105010321076F02011B5105014A
:102310000421086F3F6BEBC43EF5020E416F310E96
:10232000406F0001B8EC01F001C009F5560E05013F
:102330000124016E020E0220036E01C009F50A6F2E
:1023400008C541F507C540F506C53FF505C53EF58D
:10235000436F01C042F500011AEC01F005013F6B2B
:10236000EBC43EF5020E416F310E406F0001B8EC38
:1023700001F001C009F52A0E05010124016E020ECB
:102380000220036E0150560FE96E020E0320EA6E22
:1023900005C5EFFF06C5ECFF07C5ECFF08C5ECFF60
:1023A0003F6BEBC43EF5020E416F310E406F0001F2
:1023B000B8EC01F001C009F5200E05010124016E01
:1023C000020E0220036E0150560FE96E020E03202A
:1023D000EA6E01C5EFFF02C5ECFF03C5ECFF04C5C3
:1023E000ECFF3F6BEBC43EF5020E416F310E406FC8
:1023F0000001B8EC01F001C009F52E0E0501012421
:10240000016E020E0220036E0150560FE96E020E9D
:102410000320EA6EEF6A013D07D0023D05D0033D7F
:1024200003D004510F0810E00153D8A4DCEF0DF0E5
:102430000253D8A4DCEF0DF00353D8A4DCEF0DF069
:102440000453D8A4DCEF0DF03F6BEBC43EF5020E55
:10245000416F310E406F0001B8EC01F001C009F589
:102460002E0E05010124016E020E0220036E0150A2
:10247000560FE96E020E0320EA6E110EEF6E040194
:10248000FDC401F00001AEEF20F0EF5210E0EACF02
:10249000EEF4E9CFEDF4EF509EA8FED7AD6EEEC49A
:1024A000EAFFEDC4E9FFE92AD8B4EA2AEED7000C26
:1024B0000401EB5303E0880E016E53D105013F6B1D
:1024C000EBC43EF5020E416F310E406F0001B8ECD7
:1024D00001F002C0F5F401C0F4F42A0E0401012455
:1024E000016E020E0220036E0150560FE96E020EBD
:1024F0000320EA6EEFCF00F0ECCF01F0ECCF02F05A
:10250000ECCF03F003C09AF402C099F401C098F430
:1025100000C097F405013F6BEBC43EF5020E416F1E
:10252000310E406F0001B8EC01F002C0F5F401C0BB
:10253000F4F4200E04010124016E020E0220036E49
:102540000150560FE96E020E0320EA6EEFCF00F045
:10255000ECCF01F0ECCF02F0ECCF03F003C09EF41F
:1025600002C09DF401C09CF400C09BF405013F6BC8
:10257000EBC43EF5020E416F310E406F0001B8EC26
:1025800001F002C0F5F401C0F4F42E0E04010124A0
:10259000016E020E0220036E0150560FE96E020E0C
:1025A0000320EA6EEF501008D8A49AD005013F6BC3
:1025B000EBC43EF5020E416F310E406F0001B8ECE6
:1025C00001F001C0F4F4200E04010124016E020E9A
:1025D0000220036E0150560FE96E020E0320EA6ED0
:1025E000EFCFF4F4ECCFF5F4ECCFF6F4ECCFF7F456
:1025F000F7C434F5F6C433F5F5C432F5F4C431F557
:1026000000017BEC04F003C0EFF402C0EEF401C063
:10261000EDF400C0ECF40401EC3D07D0ED3D05D035
:10262000EE3D03D0EF510F0857E0EC5306E1ED53B8
:1026300004E1EE5302E1EF534FE0020118510401AF
:10264000EC25F06F020119510401ED21F16F020137
:102650001A510401EE21F26F02011B510401EF2116
:10266000F36F05013F6BEBC43EF5020E416F310E77
:10267000406F0001B8EC01F001C0F4F4560E040103
:102680000124016E020E0220036E01C0F4F4F56F06
:10269000F3C441F5F2C440F5F1C43FF5F0C43EF592
:1026A000E8CF43F501C042F500011AEC01F0F3C494
:1026B0009AF4F2C499F4F1C498F4F0C497F4EFC416
:1026C0009EF4EEC49DF4EDC49CF4ECC49BF40401B0
:1026D0009F6B000E016E45D0B80E016E42D03FD008
:1026E00005013F6BEBC43EF5020E416F310E406FAA
:1026F0000001B8EC01F002C0F5F401C0F4F42E0EB4
:1027000004010124016E020E0220036E0150560FD7
:10271000E96E020E0320EA6EEF50110804E1C00ECC
:10272000016E1FD01CD005013F6BEBC43EF5020EBD
:10273000416F310E406F0001B8EC01F001C0F4F4BC
:102740002E0E04010124016E020E0220036E0150C0
:10275000560FE96E020E0320EA6EEFCF9FF4000ED3
:10276000016E0001FCEF20F00401EB5303E0880E42
:10277000016E1DD005013F6BEBC43EF5020E416FAB
:10278000310E406F0001B8EC01F001C0ECF4300EE6
:1027900004010124016E020E0220036E0150560F47
:1027A000E96E020E0320EA6EEF80000E016E00015A
:1027B00005EF21F00BC216F50AC215F509C214F592
:1027C00008C213F516C512F515C511F514C510F597
:1027D00013C50FF50501125102014D5DD8A0CCD0F3
:1027E00016E10501115102014C5DD8A0C5D00FE1E1
:1027F0000501105102014B5DD8A0BED008E14A513D
:1028000005010F5DD8A002D00201B6D0020110511F
:1028100005010F5D0FE1020111510501105D0AE193
:10282000020112510501115D05E10201135105017B
:10283000125D3FE00201345114250501206F0201B1
:10284000355115210501216F000E020116210501E8
:10285000226F000E020117210501236F0F51202561
:10286000176F10512121186F11512221196F125128
:1028700023211A6F1AC541F519C540F518C53FF552
:1028800017C53EF5436B080E426F00011AEC01F0CC
:1028900012C50BF211C50AF210C509F20FC508F2F4
:1028A0000BC213F20AC212F209C211F208C210F2EC
:1028B00005011F6B1F517F0855E33F6B1FC53EF598
:1028C000416B040E406F0001B8EC01F002C003F050
:1028D0000150080FE96E000E0220EA6EEFCF20F5DE
:1028E000ECCF21F5ECCF22F5ECCF23F505012053F9
:1028F00037E1215335E1225333E1235331E112C54E
:102900001EF511C51DF510C51CF50FC51BF51B37B0
:102910001C371D371E371B371C371D371E371B371B
:102920001C371D371E371B371C371D371E371B370B
:102930001C371D371E371B371C371D371E371B37FB
:102940001C371D371E37800E1B171F511B131BC54D
:1029500000F01CC501F01DC502F01EC503F013D028
:102960001F2BA8D7010E0F27D8B0102BD8B4112BCE
:10297000D8B4122B30D70201FF0E006E016E026E2A
:102980000F0E036E05010001000CF29CF29EF2BED8
:10299000FDD7040002010C6B24C50DF225C50EF213
:1029A00026C50FF2D8900C370D370E370F370501BB
:1029B0002B6B8A9E580E496F00016AEC00F00FC223
:1029C00049F56AEC00F00EC249F56AEC00F002012C
:1029D0000D51FE0B05012E6F496F00016AEC00F0EE
:1029E0000501496B00016AEC00F0010E0501496F19
:1029F00000016AEC00F087EC00F0080E05012A6F78
:102A000000018FEC00F001C02BF505012A0703E05F
:102A10002B3D01D0F5D72B5309E08A8E000187ECBE
:102A200000F0C00EF212A80E016E42D0000187EC39
:102A300000F0FE0E0501496F00016AEC00F029C5A7
:102A4000EAFF28C5E9FF020E05012D6F2C6BEECFC2
:102A50004AF5080E4B6F00014FEC00F005012C2FDA
:102A6000F6D72D2FF4D7496B00016AEC00F0010E68
:102A70000501496F00016AEC00F08FEC00F001C025
:102A80002BF5E50E05012B1B2B5301E009D00001AE
:102A90008FEC00F001C02BF505012B53F8E02B6BF8
:102AA0008A8E000187EC00F0C00EF212000E016E5B
:102AB000000C05011631226F1531216F1431206F82
:102AC00013311F6F2233213320331F33223321333D
:102AD00020331F332233213320331F33223321335A
:102AE00020331F332233213320331F33223321334A
:102AF00020331F33010E221713517F0B236F020166
:102B0000345114250501246F0201355115210501A9
:102B1000256F000E020116210501266F000E02012D
:102B200017210501276F1F5124251B6F20512521D7
:102B30001C6F215126211D6F225127211E6F02017A
:102B4000105105011F5D0FE1020111510501205DCA
:102B50000AE1020112510501215D05E10201135153
:102B60000501225D17E01EC541F51DC540F51CC5D8
:102B70003FF51BC53EF5436B080E426F00011AEC92
:102B800001F022C513F221C512F220C511F21FC5B2
:102B900010F205013F6B23C53EF5416B040E406FFB
:102BA0000001B8EC01F00150080FE96E000E0220A0
:102BB000EA6E17C5EFFF18C5ECFF19C5ECFF1AC583
:102BC000ECFF1EC527F51DC526F51CC525F51BC543
:102BD00024F50501296B080E286F0001D6DE0201DD
:102BE0004A5105011B2702014B5105011C2302011B
:102BF0004C5105011D2302014D5105011E231EC527
:102C000027F51DC526F51CC525F51BC524F5296B23
:102C1000080E286F0001B9DE000C0501176B146B5C
:102C200012C519F511C518F50001A7EC03F001C094
:102C300015F50501136B135107080BE3036A1351D4
:102C40000F25E96E10510320EA6E200EEF6E132B54
:102C5000F2D7136B1351020810E3036A1351080FE4
:102C6000016E000E032201500F25E96E1051032062
:102C7000EA6E200EEF6E132BEDD7136B1551135D1B
:102C800037E2036A13511125E96E12510320EA6EEF
:102C9000EFCF16F51651600806E216517A0803E3E5
:102CA0001651DF0B01D01651166F16512E0803E195
:102CB000010E176F1BD0175310E01451142B036A29
:102CC000080F016E000E032201500F25E96E10510E
:102CD0000320EA6E16C5EFFF09D0036A13510F25D2
:102CE000E96E10510320EA6E16C5EFFF132BC6D70D
:102CF000000144EF18F0BC0E0401875D0501116F5F
:102D0000070E040188590501126FD89011C512F5FC
:102D1000116B1237146B89C413F51335026E143519
:102D2000036E0236033602360336023603360236A7
:102D30000336E00E02160250111303501213036AF9
:102D400004018A51050111130350121311C501F03A
:102D500012C502F00001000C0501126B8BC411F5C5
:102D600011C512F5116B123712371237F80E121700
:102D7000146B8CC413F51335026E1435036E0236D2
:102D80000336023603360236033602360336E00EC9
:102D900002160250111303501213146B8DC413F555
:102DA000D8901431036E133111130350121311C54F
:102DB00001F012C502F00001000C0401FE5303E013
:102DC000880E016E46D20201223DB4D0233DB2D01E
:102DD000243DB0D025510F08D8A4ACD00001EADCC6
:102DE00003C025F202C024F201C023F200C022F287
:102DF0000201216B05013F6BFEC43EF5020E416FDF
:102E0000310E406F0001B8EC01F001C00DF5200E4D
:102E100005010124016E020E0220036E0150560FBF
:102E2000E96E020E0320EA6EEFCF0DF5ECCF0EF542
:102E3000ECCF0FF5ECCF10F510C516F50FC515F555
:102E40000EC514F50DC513F525C21AF524C219F5E2
:102E500023C218F522C217F500012BDE25C216F594
:102E600024C215F523C214F522C213F50F0E050175
:102E70001A6FFF0E196F186F176F00011ADE02012B
:102E8000185122250501036F020119512321050163
:102E9000046F02011A5124210501056F02011B5123
:102EA00025210501066F0C6B0B6B0C5101081EE30D
:102EB0003F6BFEC43EF5020E416F310E406F0001C4
:102EC000B8EC01F001C00DF505010B510124016EB4
:102ED0000C510220036E0150560FE96E020E0320C2
:102EE000EA6EEF6A0B2BD8B40C2BDFD73F6BFEC416
:102EF0003EF5020E416F310E406F0001B8EC01F05B
:102F000001C00DF5560E05010124016E020E0220CE
:102F1000036E01C00DF50E6F06C527F505C526F534
:102F200004C525F503C524F5296F01C028F5000166
:102F30002CDD0201185122250501036F02011951F0
:102F400023210501046F02011A5124210501056F97
:102F500002011B5125210501066F3F6BFEC43EF5A2
:102F6000020E416F310E406F0001B8EC01F001C05C
:102F70000DF5560E05010124016E020E0220036EAE
:102F800001C00DF50E6F06C541F505C540F504C538
:102F90003FF503C53EF5436F01C042F500011AEC51
:102FA00001F005013F6BFEC43EF5020E416F310E8C
:102FB000406F0001B8EC01F002C00EF5036A020197
:102FC000213505010D6F03340E6F0D370E370D37A8
:102FD0000E370D370E370D370E37E00E0D170D512A
:102FE0000D25016E0E510E21036E0150560F016E1C
:102FF000020E032201C001F503C002F53F6BFEC4BF
:103000003EF5020E416F310E406F0001B8EC01F049
:1030100001C00DF52A0E05010124016E020E0220E9
:10302000036E0150560FE96E020E0320EA6E03C5CF
:10303000EFFF04C5ECFF05C5ECFF06C5ECFF3F6BD9
:10304000FEC43EF5020E416F310E406F0001B8EC38
:1030500001F001C00DF52E0E05010124016E020ED6
:103060000220036E0150560FE96E020E0320EA6E35
:1030700021C2EFFF02C510F501C50FF500C512F51D
:10308000FFC411F50001C9D50B0E05010125E96E3C
:10309000000E0221EA6EEF6A0001DAEC13F003C0C1
:1030A0000AF502C009F501C008F500C007F51A0EBF
:1030B00005010125E96E000E0221EA6E07C5EFFF4A
:1030C00008C5ECFF140E0125E96E000E0221EA6E20
:1030D00009C5EFFF0AC5ECFF0AC516F509C515F5C8
:1030E00008C514F507C513F50F0E1A6FFF0E196FFB
:1030F000186F176F0001DDDC1C0E05010125E96E5C
:10310000000E0221EA6EEE52EE52EC6AED52EF6AC8
:10311000ED52EF6AED52EF6A3F6BFEC43EF5020ED0
:10312000416F310E406F0001B8EC01F001C00DF5A8
:10313000260E05010124016E020E0220036E0150CD
:10314000560FE96E020E0320EA6EEE52EE52EC6A62
:10315000ED52EF6AED52EF6AED52EF6A180E01255B
:10316000016E000E0221036E01C00DF50E6F00010D
:10317000C2DD0EC5EAFF0DC5E9FF02C0ECFFED524E
:1031800001C0EFFF160E05010125016E000E0221A0
:10319000036E01C00DF50E6F0001DEDD0EC5EAFF06
:1031A0000DC5E9FF02C0ECFFED5201C0EFFF0501C4
:1031B0003F6BFEC43EF5020E416F310E406F0001C1
:1031C000B8EC01F001C00DF5560E05010124016EA9
:1031D000020E0220036E01C00DF50E6F06C527F525
:1031E00005C526F504C525F503C524F5296F01C0DD
:1031F00028F50001C5EC14F005013F6BFEC43EF557
:10320000020E416F310E406F0001B8EC01F001C0B9
:103210000DF5050101C001F0020E0224036E0150FC
:10322000560F016E020E032201C00DF503C00EF50C
:1032300003C0EAFF01C0E9FF02C5E2FF01C5E1FFEB
:10324000200E016EE6CFEEFF012EFCD7000E016EC0
:10325000040100017DEF19F0ECC4FFF4EBC4FEF4AF
:10326000040E0501016FEF0E006F0001E5EC07F0A1
:1032700002C0FDF401C0FCF40401FC5305E1FD5360
:1032800003E1B00E016EE8D2EE6BFDC40FF5FCC495
:103290000EF5EFC410F5000104EC05F001C0EEF4EA
:1032A0000401EE5333E1ED5172081FE105013F6B5C
:1032B000EFC43EF5020E416F310E406F0001B8ECD5
:1032C00001F001C0FEF4300E04010124016E020E73
:1032D0000220036E0150560FE96E020E0320EA6EC3
:1032E000EF80B00E016EB8D211D0EFC4FEF4FDC471
:1032F00000F5FCC4FFF4000160D5015204E0B00EFB
:10330000016E0401A9D2010E0401EE6FEE53D8B490
:10331000A1D205013F6BEFC43EF5020E416F310EA5
:10332000406F0001B8EC01F001C0FEF4300E040162
:103330000124016E020E0220036E0150560FE96E49
:10334000020E0320EA6EEF9005013F6BEFC43EF5DD
:10335000020E416F310E406F0001B8EC01F001C068
:10336000FEF42F0E04010124016E020E0220036EF2
:103370000150560FE96E020E0320EA6EEDC4EFFF16
:10338000ED516108D8A4B5D105013F6BEFC43EF5FE
:10339000020E416F310E406F0001B8EC01F001C028
:1033A000FEF4260E04010124016E020E0220036EBB
:1033B0000150560F016E020E032201C0FEF403C03D
:1033C000FFF405013F6BEFC43EF5020E416F310E75
:1033D000406F0001B8EC01F002C001F501C000F53A
:1033E000020E050101271C0E0124016E000E0121B1
:1033F000036E0150560FE96E020E0320EA6EEFCF06
:1034000000F0ECCF01F0ECCF02F0ECCF03F0FFC402
:10341000EAFFFEC4E9FF00C0EFFF01C0ECFF02C0FD
:10342000ECFF03C0ECFFEFC410F50001C6EC06F0A2
:1034300003C0F7F402C0F6F401C0F5F400C0F4F4E0
:103440000401F43D07D0F53D05D0F63D03D0F7511A
:103450000F0837E0F85306E1F95304E1FA5302E1AB
:10346000FB532FE0F7C434F5F6C433F5F5C432F559
:10347000F4C431F500017BEC04F003C0FBF402C09E
:10348000FAF401C0F9F400C0F8F40401F83D07D0E3
:10349000F93D05D0FA3D03D0FB510F0808E0F85381
:1034A00007E1F95305E1FA5303E1FB5301E109D0C8
:1034B000FBC4F7F4FAC4F6F4F9C4F5F4F8C4F4F470
:1034C000C0D7020118510401F425F06F020119510F
:1034D0000401F521F16F02011A510401F621F26F86
:1034E00002011B510401F721F36F05013F6BEFC48B
:1034F0003EF5020E416F310E406F0001B8EC01F055
:1035000001C0FEF4560E04010124016E020E0220D9
:10351000036E01C0FEF4FF6FF3C441F5F2C440F541
:10352000F1C43FF5F0C43EF5E8CF43F501C042F5E4
:1035300000011AEC01F005013F6BEFC43EF5020EED
:10354000416F310E406F0001B8EC01F001C0FEF494
:10355000200E04010124016E020E0220036E0150B0
:10356000560FE96E020E0320EA6EF4C4EFFFF5C4B5
:10357000ECFFF6C4ECFFF7C4ECFF05013F6BEFC4B2
:103580003EF5020E416F310E406F0001B8EC01F0C4
:1035900001C0FEF4240E04010124016E020E02207B
:1035A000036E0150560F016E020E032201C0FEF49D
:1035B00003C0FFF405013F6BEFC43EF5020E416FFF
:1035C000310E406F0001B8EC01F001C000F5260E8D
:1035D00005010124016E020E0220036E0150560FF8
:1035E000E96E020E0320EA6EEFCF00F5ECCF01F595
:1035F000ECCF02F5ECCF03F500C500F00151010B53
:10360000FFC4EAFFFEC4E9FF00C5EFFFEC6E3F6BAD
:10361000EFC43EF5020E416F310E406F0001B8EC71
:1036200001F001C0FEF4240E04010124016E020E1B
:103630000220036E0150560FE96E020E0320EA6E5F
:10364000ECCFFFF4ED52EFCFFEF4FE5351E1FF5308
:103650004FE105013F6BEFC43EF5020E416F310EA5
:10366000406F0001B8EC01F001C0FEF4260E040129
:103670000124016E020E0220036E0150560FE96E06
:10368000020E0320EA6EEFCFFEF4ECCFFFF4ECCF96
:1036900000F5ECCF01F5FE530DE1FF530BE1050101
:1036A0000053D8B402D0040105D00153D8A402D0ED
:1036B00004011ED005013F6BEFC43EF5020E416FC1
:1036C000310E406F0001B8EC01F001C0FEF4240E91
:1036D00004010124016E020E0220036E0150560FF8
:1036E000E96E020E0320EA6E020EEC6EED52EF6AF6
:1036F000B1D005013F6BEFC43EF5020E416F310EB4
:10370000406F0001B8EC01F001C0FEF4260E040188
:103710000124016E020E0220036E0150560FE96E65
:10372000020E0320EA6EEE52EE52EC6AED52EF6AA0
:10373000ED52EF6AED52EF6AEFC410F50001C6ECEE
:1037400006F003C0F3F402C0F2F401C0F1F400C0CB
:10375000F0F4020118510401F0270201195104018B
:10376000F12302011A510401F22302011B51040149
:10377000F32305013F6BEFC43EF5020E416F310E9E
:10378000406F0001B8EC01F001C0FEF4560E0401D8
:103790000124016E020E0220036E01C0FEF4FF6FD1
:1037A000F3C441F5F2C440F5F1C43FF5F0C43EF571
:1037B000E8CF43F501C042F500011AEC01F0050124
:1037C0003F6BEFC43EF5020E416F310E406F0001BA
:1037D000B8EC01F001C0FEF4200E04010124016EDA
:1037E000020E0220036E0150560F016E020E0322DC
:1037F00001C0FEF403C0FFF4EFC410F50001C6ECF5
:1038000006F0FFC4EAFFFEC4E9FF00C0EFFF01C0FD
:10381000ECFF02C0ECFF03C0ECFF05013F6BEFC4FF
:103820003EF5020E416F310E406F0001B8EC01F021
:1038300001C0FEF4240E04010124016E020E0220D8
:10384000036E0150560FE96E020E0320EA6EEC6A19
:10385000ED52EF6AEFC401F000011BEF21F004010B
:10386000ED5303E0880E016ECBD105013F6BEDC433
:103870003EF5020E416F310E406F0001B8EC01F0D1
:1038800001C0F6F4260E04010124016E020E02208E
:10389000036E0150560FE96E020E0320EA6EEFCF61
:1038A000F6F4ECCFF7F4ECCFF8F4ECCFF9F4050133
:1038B0003F6BEDC43EF5020E416F310E406F0001CB
:1038C000B8EC01F002C0FBF401C0FAF4020E0401EE
:1038D000FB271C0E0124016E000EFB21036E01501C
:1038E000560FE96E020E0320EA6EEFCF00F0ECCF28
:1038F00001F0ECCF02F0ECCF03F00350F95D0FE3E1
:103900000BE10250F85D0BE307E10150F75D07E3BF
:1039100003E10050F65D03E3C80E016E71D1ECC403
:1039200003F0EBC4F6F4ECC4F7F405013F6BEDC40F
:103930003EF5020E416F310E406F0001B8EC01F010
:1039400002C0F9F401C0F8F405013F6BEDC43EF587
:10395000020E416F310E406F0001B8EC01F001C062
:10396000F8F4240E04010124016E020E0220036EFD
:103970000150560FE96E020E0320EA6EECCFF9F407
:10398000ED52EFCFF8F4F851F825016EF951F92115
:10399000036E0150560FE96E020E0320EA6EEFCF60
:1039A000F8F4F7C4EAFFF6C4E9FFF8C4EFFF050135
:1039B0003F6BEDC43EF5020E416F310E406F0001CA
:1039C000B8EC01F002C0F7F401C0F6F4240E0401D3
:1039D0000124016E020E0220036E0150560FE96EA3
:1039E000020E0320EA6E010EEE2601E3EF2A050126
:1039F0003F6BEDC43EF5020E416F310E406F00018A
:103A0000B8EC01F001C0F6F4260E04010124016EA9
:103A1000020E0220036E0150560FE96E020E0320C3
:103A2000EA6E010EEE26000EEE22EE22ED220501D8
:103A30003F6BEDC43EF5020E416F310E406F000149
:103A4000B8EC01F001C0F6F4240E04010124016E6B
:103A5000020E0220036E0150560FE96E020E032083
:103A6000EA6EECCFF7F4ED52EFCFF6F4F653D8A4AC
:103A7000C5D0F7510208D8A4C1D005013F6BEDC4F1
:103A80003EF5020E416F310E406F0001B8EC01F0BF
:103A900001C0F6F4200E04010124016E020E022082
:103AA000036E0150560FE96E020E0320EA6EEFCF4F
:103AB000F6F4ECCFF7F4ECCFF8F4ECCFF9F4F9C46A
:103AC00034F5F8C433F5F7C432F5F6C431F5000126
:103AD0007BEC04F003C0F1F402C0F0F401C0EFF499
:103AE00000C0EEF40401EE3D08D0EF3D06D0F03DFD
:103AF00004D0F1510F08D8B481D0EE5306E1EF5352
:103B000004E1F05302E1F15379E00201185104019C
:103B1000EE25F26F020119510401EF21F36F02014A
:103B20001A510401F021F46F02011B510401F1212B
:103B3000F56F05013F6BEDC43EF5020E416F310E8E
:103B4000406F0001B8EC01F001C0F6F4560E04011C
:103B50000124016E020E0220036E01C0F6F4F76F1D
:103B6000F5C441F5F4C440F5F3C43FF5F2C43EF5A5
:103B7000E8CF43F501C042F500011AEC01F0050160
:103B80003F6BEDC43EF5020E416F310E406F0001F8
:103B9000B8EC01F001C0F6F4200E04010124016E1E
:103BA000020E0220036E0150560FE96E020E032032
:103BB000EA6EEEC4EFFFEFC4ECFFF0C4ECFFF1C41B
:103BC000ECFF05013F6BEDC43EF5020E416F310E77
:103BD000406F0001B8EC01F001C0F6F4240E0401BE
:103BE0000124016E020E0220036E0150560FE96E91
:103BF000020E0320EA6EEC6AED52EF6A000E016ECF
:103C000000012AEF21F00401EC5303E0880E016E5D
:103C1000E3D105013F6BECC43EF5020E416F310E5E
:103C2000406F0001B8EC01F001C0F3F4200E040174
:103C30000124016E020E0220036E0150560FE96E40
:103C4000020E0320EA6EEFCFF3F4ECCFF4F4ECCFE6
:103C5000F5F4ECCFF6F4020118510401F325ED6FF1
:103C6000020119510401F421EE6F02011A510401FD
:103C7000F521EF6F02011B510401F621F06F0501E0
:103C80003F6BECC43EF5020E416F310E406F0001F8
:103C9000B8EC01F001C0F3F4560E04010124016EEA
:103CA000020E0220036E01C0F3F4F46FF0C427F596
:103CB000EFC426F5EEC425F5EDC424F5E8CF29F5CB
:103CC00001C028F50001C5EC14F005013F6BECC400
:103CD0003EF5020E416F310E406F0001B8EC01F06D
:103CE00001C0F3F42A0E04010124016E020E022029
:103CF000036E0150560FE96E020E0320EA6EEFCFFD
:103D0000F3F4ECCFF4F4ECCFF5F4ECCFF6F40501DA
:103D10003F6BECC43EF5020E416F310E406F000167
:103D2000B8EC01F001C0F7F4560E04010124016E55
:103D3000020E0220036E01C0F7F4F86FF6C441F5DD
:103D4000F5C440F5F4C43FF5F3C43EF5E8CF43F5C0
:103D500001C042F500011AEC01F005013F6BECC413
:103D60003EF5020E416F310E406F0001B8EC01F0DC
:103D700002C0F4F401C0F3F405013F6BECC43EF55E
:103D8000020E416F310E406F0001B8EC01F001C02E
:103D9000F3F42E0E04010124016E020E0220036EC4
:103DA0000150560FE96E020E0320EA6EEF50200D0F
:103DB000F350F325016E000E0220036E0150560FE2
:103DC000016E020E032201C0F1F403C0F2F40501FA
:103DD0003F6BECC43EF5020E416F310E406F0001A7
:103DE000B8EC01F002C0F4F401C0F3F4020E0401D7
:103DF000F4270B0E0124016E000EF421036E015016
:103E0000560FE96E020E0320EA6EEFA810D01C0ECA
:103E1000F125E96E000EF221EA6EEE52EE52EC6AE6
:103E2000ED52EF6AED52EF6AED52EF6A39D01C0E97
:103E3000F125016E000EF221036E01C0F3F4F46F60
:103E400005013F6BECC43EF5020E416F310E406F31
:103E50000001B8EC01F002C0F6F401C0F5F4260E42
:103E600004010124016E020E0220036E0150560F60
:103E7000E96E020E0320EA6EEFCF00F0ECCF01F006
:103E8000ECCF02F0ECCF03F0F4C4EAFFF3C4E9FF97
:103E900000C0EFFF01C0ECFF02C0ECFF03C0ECFF6D
:103EA000180EF125016E000EF221036E01C0F3F42D
:103EB000F46F00017BEC16F0F4C4EAFFF3C4E9FFF1
:103EC00002C0ECFFED5201C0EFFF160E0401F12518
:103ED000016E000EF221036E01C0F3F4F46F0001D5
:103EE000ACEC16F0F4C4EAFFF3C4E9FF02C0ECFF47
:103EF000ED5201C0EFFF05013F6BECC43EF5020E31
:103F0000416F310E406F0001B8EC01F001C0F3F4D5
:103F10002A0E04010124016E020E0220036E0150DC
:103F2000560FE96E020E0320EA6EEFCFF3F4ECCFEA
:103F3000F4F4ECCFF5F4ECCFF6F405013F6BECC4F0
:103F40003EF5020E416F310E406F0001B8EC01F0FA
:103F500001C0F7F4560E04010124016E020E022086
:103F6000036E01C0F7F4F86FF6C427F5F5C426F523
:103F7000F4C425F5F3C424F5E8CF29F501C028F5EC
:103F80000001C5EC14F005013F6BECC43EF5020ED8
:103F9000416F310E406F0001B8EC01F001C0F3F445
:103FA000560E04010124016E020E0220036E01C0B0
:103FB000F3F4F46FF0C441F5EFC440F5EEC43FF5FF
:103FC000EDC43EF5E8CF43F501C042F500011AEC1F
:103FD00001F0000E016E0401000137EF20F0040132
:103FE000EB5303E0880E016E5FD005013F6BEBC41D
:103FF0003EF5020E416F310E406F0001B8EC01F04A
:1040000002C0EDF401C0ECF42F0E04010124016E96
:10401000020E0220036E0150560FE96E020E0320BD
:10402000EA6EEF5061081FE005013F6BEBC43EF5FF
:10403000020E416F310E406F0001B8EC01F002C07A
:10404000EDF401C0ECF42F0E04010124016E020E08
:104050000220036E0150560FE96E020E0320EA6E35
:10406000EF50770804E1EBC4ECF40001CCD5050176
:104070003F6BEBC43EF5020E416F310E406F000105
:10408000B8EC01F001C0ECF4300E04010124016E23
:10409000020E0220036E0150560FE96E020E03203D
:1040A000EA6EEF80000E016E000137EF21F0F86A32
:1040B000D09E050E076E4E0E066E020E05014F6F66
:1040C000AE0E4E6F516B506B0001EA6AE96AB8861A
:1040D000700EAF6E020EB06EA60EAC6E900EAB6E92
:1040E0008A8AC150C00B0F09C16E070EB46E046AF4
:1040F000056A98EF00F00152D8A4D0D02A0EF66ECF
:10410000000EF76E09EC01F0C9EF01F0040EEA6E43
:10411000D40EE96E000E02EC00F00A000900F55022
:10412000EE6E0009FBE1040E0401EC6FD40EEB6FA0
:104130000001A6EF08F001C0D3F40401D3AF09D009
:104140003C0EF66E000EF76E000109EC01F05DD03A
:104150000401D3C4EBF40001BDEF0CF001C0E8F49E
:104160000401E96BE851E95D42E2E951050DF350C4
:10417000EC6BEB6FA10EEB25E96E040EEC21EA6E01
:10418000ECCFECF4ED52EFCFEBF4ECC4EAFFEBC470
:10419000E9FF000145EC12F00401E951050DF3506F
:1041A000EC6BEB6F040EEB25016E000EEC21036E41
:1041B0000150A10FE96E040E0320EA6EEFA00DD0AE
:1041C0005C0E9EA8FED7AD6E0D0E9EA8FED7AD6EFE
:1041D0000A0E9EA8FED7AD6E08D00D0E9EA8FED783
:1041E000AD6E0A0E9EA8FED7AD6EE92BBBD7D3C429
:1041F000EBF4000158EF12F00152D8A402D00401F0
:10420000A8D7D3C4EBF4B4EF13F0040EEA6ED40EC7
:10421000E96EA4C4E2FFA3C4E1FFE752E6CFEEFFDC
:10422000FCE1040E0401EC6FD40EEB6F720EED6F27
:1042300000012CEF19F001C0D3F40401D351800B1D
:1042400018E1040EEC6FEA0EEB6FD3C4EDF400013D
:104250002FEF1CF0015208E1EA6AEAC4E9FF45ECDD
:1042600012F00401EED70001D3C4EBF4B8D614D099
:104270000401D351B00809E1420EF66E000EF76E4C
:10428000000109EC01F008D00401660EF66E000E84
:10429000F76E000109EC01F0FFD706D0740EF66E40
:1042A000000EF76E09EC01F0040E0401EB6FFA0E3C
:1042B0000501486F000172EC00F00401EB2FF7D705
:1042C000880EF66E000EF76E000109EC01F011D7B2
:0242D0000300E9
:020000040030CA
:0E0000003FCC391E008781000FC00FE00F407B
:00000001FF
;PIC18F4550
;CRC=D723  CREATED="19-nov.-12 14:42"
