:0E00020000308A00E82D0000FF00030E83018D
:10001000A1000A08A0008A010408A2007708A30032
:100020007808A4007908A5007A08A6007B08A70034
:10003000831383128C308400801E20288C1A33286E
:10004000220884002308F7002408F8002508F90096
:100050002608FA002708FB0020088A00210E8300EA
:10006000FF0E7F0E09008A110A1256290A108A1003
:100070000A1182072034283406340D340A108A10FD
:100080000A1182070C345234653463346534703499
:1000900074346534753472342034433461347034CC
:1000A000743420340A3400340A108A100A1182078A
:1000B00028344334293455344D344F344E3453347A
:1000C00020342D342034323430343134313400345F
:1000D0000A108A100A1182070C3449344E34203435
:1000E0004434693467342E342034413464347234F7
:1000F0003A342034253458340A3400340A108A1033
:100100000A1182070C3441346334633465346C342F
:10011000653472342E3420344134643472343A34C9
:10012000253458340A3400340A108A100A11820720
:100130000C344334613470342E34203454346534F8
:100140006D34703420344134643472343A3425349C
:1001500058340A3400340A108A100A1182070C3409
:100160004C34693467346834743420344134643432
:1001700072343A34253458340A3400340A108A1060
:100180000A1182072D343E34203425346C34753402
:1001900020344C3475347834203400340A108A10FA
:1001A0000A1182070C3444346934733474342E34A5
:1001B00020344134643472343A34253458340A34A7
:1001C00000340A108A100A1182072D343E3420347C
:1001D00025346C347534203443346D342034003489
:1001E0000A108A100A11F73E03188A0A82000C349A
:1001F00049344E342034413444344334313420348F
:100200004134643472343A34253458340A34003476
:100210000A148A100A1182070C3442346F34753480
:10022000733473346F346C34653420344134643443
:1002300072343A34253458340A3400340A148A109B
:100240000A1182072D343E34203425346C34643452
:1002500020344434653467342E34203400340A1496
:100260008A100A1182070C3442346C3475346534B8
:1002700074346F346F347434683420344F344E34F3
:100280002E3400340A148A100A1182070C344234C6
:100290006C347534653474346F346F34743468344A
:1002A00020344F34463446342E3400342E303E074A
:1002B000840083138C1E5A291A0880003E08831676
:1002C000B700013083123E070F39BE003F083E02DF
:1002D000031D6E29831637088312BE008C128A1103
:1002E0000A1220288316230EF039F7000F308312EC
:1002F000060577048600000086150000861100348C
:10030000831620188629831206118316201C8B2938
:10031000831206158316831286118316210EA200FE
:100320000F30A2052208A300831272218316210830
:100330000F39A200A300831272214030F700F70B9F
:100340009F29A22900347630840083130008031902
:10035000B6290630F800F701F70BAC29F80BAB29EA
:100360007B30F700F70BB229800BA9290034750800
:100370000C3A0319C529063A0319D329073A031978
:100380000E2A053A0319152A1C2A8316A0010130EA
:10039000A100831280210230F600A321242A02301A
:1003A000F600A321242A0130F6000230FC007C0B69
:1003B000E32980307607FF3EFE008316A0017E0809
:1003C000A100831280217C08023C031DF129C0306A
:1003D0007607FF3EFE008316A0017E08A10083126F
:1003E00080217C08033C031DFF2994307607FF3EE3
:1003F000FE008316A0017E08A100831280217C08E4
:10040000043C031D0D2AD4307607FF3EFE00831600
:10041000A0017E08A10083128021242A8316A00156
:100420001C30A10083128021242A8316A0011030E1
:10043000A10083128021242A01308316A0007508B0
:10044000A10083128021242A003483168C16C03028
:1004500083128B040030831686008312DB015B0855
:10046000033C031C432A5B083620DC008316A001F2
:1004700083125C088316A100831280210230F600EB
:10048000A321DB0A2F2ADB015B083E200038031979
:100490004D2ADB0AF500B721442ADB015B08542012
:1004A00000380319572ADB0AF500B7214E2AC83055
:1004B000DB001E30DC005A115A08831687008312B5
:1004C00007110C30970083169B01031083125B0CFD
:1004D000DD0095002030F800063892005B08831696
:1004E000920083125C08DC03003A03197B2A0A306D
:1004F000F600A321722A5A155A0883168700831220
:10050000970183169B0104308312DB00FA30F6005A
:10051000A321DB0B862ADB015B0B952A8316A00146
:100520000E30A100831280219B2A8316A0010C307B
:10053000A100831280218A110A12162E3F083E0262
:1005400003199E2A2E303F07840083130008EA0017
:1005500001303F070F39BF006A08F8000034EB1B79
:10056000C12A0F30F7006A0EF7050A307702031828
:10057000BC2A3030F707BE2A6B08F7077708F5006A
:10058000B7210F30EA050A306A020318C92A303051
:10059000CB2AEB136B08EA076A08F500B721003491
:1005A000F0010408EF007010831B7014E91FE02AAB
:1005B000EF176F1EEF0AE809E909E80A0319E90ACB
:1005C000690EF038EB00EB07E23EEC00323EEE0045
:1005D00069080F39EC07EC07EE07E93EED00ED077F
:1005E000ED07680E0F39ED07EE07ED0DEE0DEE0984
:1005F000EE0D68080F39EE07EB0D0730EA000A3000
:10060000EE07ED03031C002BED07EC03031C042B8A
:10061000EC07EB03031C082BEB07EA03031C0C2B72
:100620006A308400831307306F056F1384036F05EE
:10063000031D212B6F1A840A6F1A212B2030F7001B
:100640003E2B84076E30040203196F170008F70071
:10065000031D322B6F1B322B6F1A4C2BEF19322BD1
:1006600020303D2BEF1F3A2B2D30F70084036F1302
:10067000EF133E2BEF156F123030F707E901040836
:10068000E8006910831B69147708F500B721680832
:100690008400831369188317840A6F1F222B003488
:1006A000F701F801F901FA018316A801A901AA01CD
:1006B000AB01270826042504240403198F2B2030BE
:1006C000AC000310A00DA10DA20DA30DA80DA90D46
:1006D000AA0DAB0D27082B02031D782B26082A0232
:1006E000031D782B25082902031D782B24082802D6
:1006F000031C892B2408A8022508031C250FA90226
:100700002608031C260FAA022708031C270FAB028A
:100710000314F70DF80DF90DFA0DAC0B612BA83091
:1007200084008313831200340408ED006C08EF008A
:1007300003192E2C6B088316A30083126A088316F4
:10074000A200831269088316A10083126808831629
:10075000A000A701A6012030A5008230A400200837
:1007600003191F2CA800240803191F2CA80703181D
:10077000C02B7F30A802031C1F2C03191F2CC42B75
:100780008130A80703181F2C2808F700F801F90189
:10079000FA012108AC00AC172208AB002308AA001C
:1007A0001830A800A9012A1CED2B2708FA07031C02
:1007B000DF2BF90A031DDF2BF80A0319A9172608F6
:1007C000F907031CE62BF80A0319A9172508A2004C
:1007D000A2172208F8070318A917A90DF80CF90C9D
:1007E000FA0CAC0CAB0CAA0C0310A80BD22B0130EA
:1007F000F70703181F2CF81B042CAC0DFA0DF90D8C
:10080000F80DF70303191F2CAC1F152CFA0A031D52
:10081000152CF90A031D152CF80A031D152CF80CCC
:10082000F90CFA0CF70A03191F2C2108A900250856
:10083000A906A91F1D2CF817232CF813232CF70148
:10084000F801F901FA017A088312EB007908EA004D
:100850007808E9007708E800EF0B9A2B6B088316FD
:10086000A30083126A088316A20083126908831604
:10087000A100831268088316A0002008B63CA000DF
:10088000FA012108F500A1170310A10CA20CA30C7A
:10089000FA0CF90CF80CF70CA00B442CF51F5B2C90
:1008A000F709F809F909FA09F70A0319F80A031907
:1008B000F90A0319FA0A7A088312EB007908EA00A8
:1008C0007808E9007708E800EB1F732CED03ED16BC
:1008D000E809E909EA09EB09E80A0319E90A031931
:1008E000EA0A0319EB0A3B30F4009A30F300CA30ED
:1008F000F200F1010A30EF006C080319ED0A6B08F1
:100900008316A30083126A088316A2008312690863
:100910008316A100831268088316A0007408A7003C
:100920007308A6007208A5007108A4008312502362
:100930000008E800840A0008E900840A0008EA00C8
:10094000840A0008EB00FD308407F708031DBB2C68
:100950006C0A6F020319BB2C6D080319BD2C0F39EB
:100960006F020319B52C0318ED2CED1BED2C6D1B3C
:10097000BD2C2030E92C2030ED05ED1ECB2CED12E6
:100980006C08031DED037708ED002D30F500B7214D
:100990006D08F700ED016C086F02031DD92C770874
:1009A000ED002E30F500B7216D08F7002030ED0581
:1009B00000303030ED1EE92CED126C08031DED0304
:1009C0007708ED002D30F500B7216D08F700ED0137
:1009D0003030F7077708F500B72174088316A300B5
:1009E0007308A2007208A1007108A000A701A60167
:1009F000A5010A30A400831250237A08F400790874
:100A0000F3007808F2007708F100EF0B7F2C8A15CD
:100A10000A129F2AF0010408EF007010831B701463
:100A2000690EF038EB00EB07E23EEC00323EEE00E0
:100A300069080F39EC07EC07EE07E93EED00ED071A
:100A4000ED07680E0F39ED07EE07ED0DEE0DEE091F
:100A5000EE0D68080F39EE07EB0D0730EA000A309B
:100A6000EE07ED03031C302DED07EC03031C342DC2
:100A7000EC07EB03031C382DEB07EA03031C3C2DAA
:100A80006A308400831307306F056F1384076E305C
:100A9000040203196F170008F700031D572D6F1B81
:100AA000572D6F1A692DEF19572D20305A2DEF153C
:100AB0006F123030F707E9010408E8006910831B62
:100AC00069147708F500B721680884008313691852
:100AD0008317840A6F1F472D00340408ED003B3054
:100AE000F4009A30F300CA30F200F1010A30EF004E
:100AF0006C08031DED036B088316A30083126A08BC
:100B00008316A200831269088316A1008312680865
:100B10008316A0007408A7007308A6007208A50039
:100B20007108A400831250230008E800840A00081A
:100B3000E900840A0008EA00840A0008EB00FD309E
:100B40008407F708031DB72D6C0A6F020319B72D30
:100B50006D080319B82D0F396F020319B12D031851
:100B6000CB2DED1BCB2D6D1BB82D2030C72DED01EE
:100B70006C086F02031DC62D7708ED002E30F500BE
:100B8000B7216D08F7002030ED0500303030F70751
:100B90007708F500B72174088316A3007308A20034
:100BA0007208A1007108A000A701A601A5010A30E2
:100BB000A400831250237A08F4007908F30078081F
:100BC000F2007708F100EF0B7B2D8A150A12832BB8
:100BD000840183131F30830583160317871556304E
:100BE0000313990000309A00A630980090308312C9
:100BF0009800831603170908C039890003131F12D0
:100C00009F12003003178800831287018801890131
:100C10008316031397010317850183120313A80199
:100C2000A901BE01BF01FF30DA00252A5910831641
:100C300005168312051E332EDB015B082F210038B9
:100C40000319262EDB0AF500B7211D2E591064303A
:100C5000F600A321831605168312051E322E8A156F
:100C600000288A11402E5918402EDB015B084221D2
:100C7000003803193F2EDB0AF500B721362E591430
:040C8000172E6300C8
:101000003F083E020319E92B8A119E228A157808AF
:10101000C900490FE82B8A119E228A157808CA0058
:101020008A119E228A157808CB008A119E228A1581
:101030007808CC008A119E228A157808CD004B08CA
:1010400003193528013A0319C728053A03195A2903
:10105000013A0319B02A033A0319FB2A013A03198A
:10106000462B0B3A0319942BDF2BE80168088A11F1
:1010700068208A15E80AF700F5008A11B7218A1559
:101080000E306802031D36284A08EA003730EB00AC
:101090008A11AF228A150A30F5008A11B7218A1504
:1010A0004C08E800EA010730E900E908031976284E
:1010B0006808F7006908F800031962280310F70CA4
:1010C000F80B5E2877080139031D6D2840306A0748
:1010D0008400831330308000732840306A07840016
:1010E000831331308000EA0AE90355286808013982
:1010F000031D812840306A0784008313303080004C
:10110000872840306A078400831331308000013023
:101110006A07403E8400831380012D30F5008A1158
:10112000B7218A153E30F5008A11B7218A15203083
:10113000F5008A11B7218A154030840083130030EE
:1011400000040319B528E9010408E8006910831BAD
:1011500069140008F5008A11B7218A15680884000F
:10116000831369188317840A9F282030F5008A1199
:10117000B7218A154C08EA003730EB008A11AF22FC
:101180008A156830F5008A11B7218A15E82B0530D9
:10119000DB005B080E3C031CDF2849305B07E800DE
:1011A000E9010318E90A8A119E228A156808840059
:1011B00083136918831778088000DB0AC928003078
:1011C0004C07DE004D08DF000318DF0A4E0FF3283E
:1011D0005008023C031DF32800305107E00052087C
:1011E000E1000318E10A530F00295508033C031DD1
:1011F000002900305607E2005708E3000318E30A0D
:10120000E80168088A117E208A15E80AF700F500CF
:101210008A11B7218A150E306802031D01294A0878
:10122000EA003730EB008A11AF228A150A30F50048
:101230008A11B7218A155830F5008A11B7218A150D
:10124000103084005F08E9005E08E8008A11D022AF
:101250008A152030F5008A11B7218A155930F5001A
:101260008A11B7218A15103084006108E9006008EE
:10127000E8008A11D0228A152030F5008A11B721A2
:101280008A155A30F5008A11B7218A15103084006A
:101290006308E9006208E8008A11D0228A1520302C
:1012A000F5008A11B7218A152030F5008A11B7217F
:1012B0008A15E82B4D08FA0000304C07F800031897
:1012C000FA0A7808E8007A08E9008E30F700690821
:1012D000F8006808F900FA01F808031D792979086F
:1012E000F800F9010830F702F808031D7929F70121
:1012F00081290310F81B8029F90DF80DF7037929CE
:10130000F8137A08E7007908E6007808E50077081E
:10131000E4006708EB006608EA006508E900640875
:10132000E800EF01EE01ED018730EC0068080319D9
:101330005B2AF4006C0803195B2AF402031CA5293C
:101340007F30F40703185B2AAB298130F402031CB9
:101350005B2A03195B2A7408F700F801F901FA0106
:10136000F3016908F200F2176A08F1006B08F00057
:101370001930F4006F08F0020318CE290130F10291
:101380000318CE29F2020318CE29F3020318CE293E
:10139000F30AF20AF10A6F08F007002A6E08F10258
:1013A0000318E9290130F2020318E929F3020318AE
:1013B000E929F30AF20A6E08F1076F08F007031C27
:1013C000002AF10A031D002AF20A031D002AF30A6B
:1013D000002A6D088038F2020318FF290130F30259
:1013E0000318FF29F30A6D088038F2076E08F10729
:1013F000031CDD29F20A031DDD29F30ADD297A1415
:10140000F40B032A0E2A0310F00DF10DF20DF30D6B
:101410000310FA0DF90DF80DF50DBA29751C162AF1
:101420000310F80CF90CFA0CF50C192AF703031940
:101430005B2AF51B422A0310F00DF10DF20DF30D9E
:101440006F08F00203182E2A0130F10203182E2A29
:10145000F20203182E2AF302031C512A6E08F1022D
:101460000318392A0130F2020318392AF302031C47
:10147000512A6D088038F2020318422A0130F30223
:10148000031C512AFA0A031D512AF90A031D512A85
:10149000F80A031D512AF70A03195B2AF80CF90C04
:1014A000FA0C6908F4006D08F406F41F592AF817BD
:1014B0005F2AF8135F2AF701F801F901FA017A08A7
:1014C000E7007908E6007808E5007708E400E8011D
:1014D00068088A1194208A15E80AF700F5008A1135
:1014E000B7218A150F306802031D682A4A08EA00EE
:1014F0003730EB008A11AF228A150A30F5008A11C5
:10150000B7218A152D30F5008A11B7218A153E3092
:10151000F5008A11B7218A152030F5008A11B7210C
:101520008A15893084006708EB006608EA006508C0
:10153000E9006408E8000330EC008A11942B8A1556
:101540002030F5008A11B7218A154330F5008A1141
:10155000B7218A152030F5008A11B7218A15E82BAA
:1015600000304C07DC004D08DD000318DD0AE801FF
:1015700068088A11AB208A15E80AF700F5008A117D
:10158000B7218A150B306802031DB82A4A08EA0001
:101590003730EB008A11AF228A150A30F5008A1124
:1015A000B7218A152D30F5008A11B7218A153E30F2
:1015B000F5008A11B7218A152030F5008A11B7216C
:1015C0008A15103084005D08E9005C08E8008A1183
:1015D0000A258A150630E80068088A11BE208A1597
:1015E000E80AF700F5008A11B7218A150B30680266
:1015F000031DEC2AE82B00304C07DC004D08DD0011
:101600000318DD0AE80168088A11CE208A15E80A65
:10161000F700F5008A11B7218A150B306802031D07
:10162000032B4A08EA003730EB008A11AF228A15F3
:101630000A30F5008A11B7218A152D30F5008A117C
:10164000B7218A153E30F5008A11B7218A1520305E
:10165000F5008A11B7218A15103084005D08E90071
:101660005C08E8008A110A258A150630E800680837
:101670008A11E1208A15E80AF700F5008A11B721DE
:101680008A150A306802031D372BE82B00304C07FF
:10169000DC004D08DD000318DD0AE80168088A1146
:1016A000F0208A15E80AF700F5008A11B7218A159B
:1016B0000D306802031D4E2B4A08EA003730EB005C
:1016C0008A11AF228A150A30F5008A11B7218A15CE
:1016D0002D30F5008A11B7218A153E30F5008A11A8
:1016E000B7218A152030F5008A11B7218A154130BB
:1016F0008400EB01EA015D08E9005C08E8000130C4
:10170000EC008A116D2D8A152030F5008A11B72161
:101710008A155630F5008A11B7218A152030F50058
:101720008A11B7218A15E82B00304C07DC004D08E0
:10173000DD000318DD0AE80168088A1108218A150E
:10174000E80AF700F5008A11B7218A150E30680201
:10175000031D9C2B4A08EA003730EB008A11AF22A8
:101760008A150A30F5008A11B7218A152D30F50047
:101770008A11B7218A153E30F5008A11B7218A15E2
:101780002030F5008A11B7218A15103084005D08D9
:10179000E9005C08E8008A11D0228A150630E800CA
:1017A00068088A111E218A15E80AF700F5008A11D7
:1017B000B7218A150C306802031DD02BE82B3F0897
:1017C0003E020319E72B8A119E228A15DF2BE82B94
:0817D00000288A110A122A2EDA
:04400E00F22CFF3F52
:00000001FF
;PIC16F887
