:0E00020000308A008B2E0000FF00030E8301E9
:10001000A1000A08A0008A010408A2007708A30032
:100020007808A4007908A5007A08A6007B08A70034
:10003000831383128C308400801E20288C1A33286E
:10004000220884002308F7002408F8002508F90096
:100050002608FA002708FB0020088A00210E8300EA
:10006000FF0E7F0E09008A110A12C6290A108A1093
:100070000A11820728340C34013406340A108A101D
:100080000A1182071C3414341C3400340034003448
:10009000003400341F341F341F341F341F341F3406
:1000A0001F341F341F341F341F341F341F341F34B8
:1000B0001F341F341F341F341F341F341F341F34A8
:1000C0001F341F341F341F341F341F341F341F3498
:1000D0001F341F341F341F341F341F341F341F3488
:1000E0001F341F341F341F341F341F341F341F3478
:1000F0001F341F341F341F341F341F341F341F3468
:100100001F341F340A108A100A1182070C3452342B
:1001100065346334653470347434653475347234E2
:100120002034433461347034743420340A3400345D
:100130000A108A100A1182072834433429345534AE
:100140004D344F344E34533420342D342034323433
:1001500030343134313400340A108A100A118207E5
:100160000C3449344E3470346F3472347434203467
:1001700041344434443452342834253458342934F6
:100180000A3400340A108A100A1182070C344134F0
:100190004334433478342034413444344434523486
:1001A00028342534583429340A3400340A108A108B
:1001B0000A11820725346C3464345B346D3447345F
:1001C0005D3400340A108A100A1182070C3441345D
:1001D0004334433479342034413444344434523445
:1001E00028342534583429340A3400340A108A104B
:1001F0000A11FD3E03188A0A82000C34413443344C
:1002000043347A342034413444344434523428342E
:100210002534583429340A3400340A148A100A1157
:1002200082070C34543445344D3450344534523400
:10023000203441344434443452342834253458343E
:1002400029340A3400340A148A100A11820725342A
:1002500033342E34333466345B34433401345D3408
:1002600000340A148A100A1182070C344C344934C1
:1002700047344834543420344134443444345234C0
:1002800028342534583429340A3400340A148A10A6
:100290000A11820725346C3475345B344C34753460
:1002A00078345D3400340A148A100A1182070C3441
:1002B00044344934533454342E3420344134443497
:1002C0004434523428342534583429340A34003420
:1002D0000A148A100A11820725346C3475345B3491
:1002E00063346D345D3400340A148A100A118207B5
:1002F0000C344134443443343134203441344434B4
:100300004434523428342534583429340A340034DF
:100310000A148A100A1182070C3443344F344D34C6
:10032000503441345334533420344134443444340D
:10033000523428342534583429340A3400340A1409
:100340008A100A1182070C3442346C3475346534D7
:1003500074346F346F347434683420344F344E3412
:100360002E3400340A148A100A1182070C344234E5
:100370006C347534653474346F346F347434683469
:1003800020344F34463446342E3400342F303F0767
:10039000840083138C1ECA291A0880003F08831624
:1003A000B400013083123F070F39BF0040083F02FD
:1003B000031DDE29831634088312BF008C128A11B4
:1003C0000A12202883162118E92983120612EB2924
:1003D00083168312061683160612A118F3298312B8
:1003E0008612F52983168312861683168612211922
:1003F000FD2983120613FF2983168312061783161D
:100400000613A119072A83128613092A8316831259
:100410008617831686130000861183128615000046
:1004200083168611831286110034831606118312F7
:100430000611FD080319212A8316061183120615D9
:10044000252A83160611831206118316861183123C
:1004500086117E0E8316A0000F30A0052008A10093
:100460008312E2217E080F398316A000A1008312B7
:10047000E2214030F700F70B3B2A3E2A003474306B
:100480008400831300080319522A0630F800F7018C
:10049000F70B482AF80B472A7B30F700F70B4E2A58
:1004A000800B452A003401307502FC3E0318662A91
:1004B000043E732A8030F600662AC030F600662AB1
:1004C0009430F600662AD430F600662A01307402B1
:1004D000F60776088038FC00FD017C08FE00152236
:1004E0008A110A12A92A0A108A140A1182075A2AA2
:1004F0005D2A602A632A73080C3A0319892A063A8E
:100500000319932A023A0319992A093A03199E2AD0
:10051000A32AFD010130FE0015220130AE00023099
:10052000F4003F22A92AAE0A0130F4002E08F5009B
:10053000532AFD011030FE001522A92A0130FD00CA
:10054000FE011522A92A0130FD007308FE001522C4
:10055000A92A00345C08FC3E0318C42A043EC72ABA
:10056000FD010C30FE001522C42AFD010E30FE00F4
:100570001522C42AFD010D30FE001522C42AFD01FA
:100580000F30FE001522C42A8A110A12202B0A10ED
:100590008A140A118207B02AB52ABA2ABF2A8316FA
:1005A0008C16C03083128B040130DC005C08033CE5
:1005B000031CE32AFD012030FE0015220230F40066
:1005C0003F22DC0AD62ADC015C08043C031CF42A26
:1005D0005C083620DD00FD015D08FE0015220230BA
:1005E000F4003F22DC0AE42AFD014030FE0015221F
:1005F000DC015C083F3C031C0A2B5C083E20DD004C
:100600000130FD005D08FE0015220230F4003F229B
:10061000DC0AF92ADC015C08822000380319142B5B
:10062000DC0AF3007B220B2BDC015C0898200038ED
:1006300003191E2BDC0AF3007B22152BDC01AA2AEE
:10064000C830DC001E30DD005B115B0883168700BC
:10065000831207110C30970083169B01031083123D
:100660005C0CDE0095002030F800063892005C0833
:100670008316920083125D08DD03003A0319442BB0
:100680000A30F4003F223B2B5B155B088316870082
:100690008312970183169B0104308312DC00FA3029
:1006A000F4003F22DC0B4F2B8A110A12B92E4008AE
:1006B0003F020319572B2F30400784008313000893
:1006C000E600013040070F39C0006608F80000342A
:1006D000E91B7A2B0F30F700680EF7050A30770216
:1006E0000318752B3030F707772B6908F707770861
:1006F000F3007B220F30E8050A3068020318822BD2
:100700003030842BE9136908E8076808F3007B227E
:100710000034EE010408ED006E10831B6E14E71F19
:10072000992BED176D1EED0AE609E709E60A031994
:10073000E70A670EF038E900E907E23EEA00323ED8
:10074000EC0067080F39EA07EA07EC07E93EEB001F
:10075000EB07EB07660E0F39EB07EC07EB0DEC0D23
:10076000EC09EC0D66080F39EC07E90D0730E800DD
:100770000A30EC07EB03031CB92BEB07EA03031C5D
:10078000BD2BEA07E903031CC12BE907E803031C9F
:10079000C52B68308400831307306D056D13840307
:1007A0006D05031DDA2B6D1A840A6D1ADA2B2030C1
:1007B000F700F72B84076C30040203196D1700084B
:1007C000F700031DEB2B6D1BEB2B6D1A052CED19A0
:1007D000EB2B2030F62BED1FF32B2D30F70084038D
:1007E0006D13ED13F72BED156D123030F707E701A0
:1007F0000408E6006710831B67147708F3007B2268
:1008000066088400831367188317840A6D1FDB2B27
:100810000034F701F801F901FA018316A401A501DA
:10082000A601A70123082204210420040319482C4F
:100830002030A8000310F30DF40DF50DF60DA40DF6
:10084000A50DA60DA70D23082702031D312C220894
:100850002602031D312C21082502031D312C2008FE
:100860002402031C422C2008A4022108031C210F8F
:10087000A5022208031C220FA6022308031C230F33
:10088000A7020314F70DF80DF90DFA0DA80B1A2C99
:10089000A43084008313831200340408EB006A0838
:1008A000ED000319E12C6908F6006808F5006708F7
:1008B000F4006608F3008316A301A2012030A10012
:1008C0008230A00073080319D22CA4002008031959
:1008D000D22CA4070318732C7F30A402031CD22C43
:1008E0000319D22C772C8130A4070318D22C2408AA
:1008F000F700F801F901FA017408A800A8177508B3
:10090000A7007608A6001830A400A501261CA02C7C
:100910002308FA07031C922CF90A031D922CF80AEB
:100920000319A5172208F907031C992CF80A0319C3
:10093000A5172108F500F5177508F8070318A5177E
:10094000A50DF80CF90CFA0CA80CA70CA60C0310BA
:10095000A40B852C0130F7070318D22CF81BB72CF9
:10096000A80DFA0DF90DF80DF7030319D22CA81FE5
:10097000C82CFA0A031DC82CF90A031DC82CF80A52
:10098000031DC82CF80CF90CFA0CF70A0319D22C29
:100990007408A5002108A506A51FD02CF817D62C91
:1009A000F813D62CF701F801F901FA017A0883123D
:1009B000E9007908E8007808E7007708E600ED0B21
:1009C000532C6908F6006808F5006708F40066080B
:1009D000F3007308B63CF300FA017408FC00F41746
:1009E0000310F40CF50CF60CFA0CF90CF80CF70CDF
:1009F000F30BF02CFC1F072DF709F809F909FA0988
:100A0000F70A0319F80A0319F90A0319FA0A7A0806
:100A1000E9007908E8007808E7007708E600E91FB0
:100A20001E2DEB03EB16E609E709E809E909E60ADA
:100A30000319E70A0319E80A0319E90A3B30F2002F
:100A40009A30F100CA30F000EF010A30ED006A0878
:100A50000319EB0A6908F6006808F5006708F40056
:100A60006608F30072088316A3007108A2007008DC
:100A7000A10083126F088316A000831209240008C6
:100A8000E600840A0008E700840A0008E800840AF7
:100A90000008E900FD308407F708031D622D6A0A8B
:100AA0006D020319622D6B080319642D0F396D0255
:100AB00003195C2D0318942DEB1B942D6B1B642DD7
:100AC0002030902D2030EB05EB1E722DEB126A08C2
:100AD000031DEB037708EB002D30F3007B226B083E
:100AE000F700EB016A086D02031D802D7708EB000B
:100AF0002E30F3007B226B08F7002030EB0500302E
:100B00003030EB1E902DEB126A08031DEB037708C3
:100B1000EB002D30F3007B226B08F700EB01303047
:100B2000F7077708F3007B227208F6007108F500DA
:100B30007008F4006F08F3008316A301A201A1015D
:100B40000A30A000831209247A08F2007908F10023
:100B50007808F0007708EF00ED0B2A2D8A150A12AD
:100B6000F42AEE010408ED006E10831B6E14670E6C
:100B7000F038E900E907E23EEA00323EEC0067089F
:100B80000F39EA07EA07EC07E93EEB00EB07EB0752
:100B9000660E0F39EB07EC07EB0DEC0DEC09EC0DD5
:100BA00066080F39EC07E90D0730E8000A30EC075A
:100BB000EB03031CD72DEB07EA03031CDB2DEA072D
:100BC000E903031CDF2DE907E803031CE32D68306C
:100BD0008400831307306D056D1384076C300402A5
:100BE00003196D170008F700031DFE2D6D1BFE2D68
:100BF0006D1A102EED19FE2D2030012EED156D12FF
:100C00003030F707E7010408E6006710831B67141C
:100C10007708F3007B226608840083136718831724
:100C2000840A6D1FEE2D00340408EB003B30F20007
:100C30009A30F100CA30F000EF010A30ED006A0886
:100C4000031DEB036908F6006808F5006708F40067
:100C50006608F30072088316A3007108A2007008EA
:100C6000A10083126F088316A000831209240008D4
:100C7000E600840A0008E700840A0008E800840A05
:100C80000008E900FD308407F708031D5A2E6A0AA0
:100C90006D0203195A2E6B0803195B2E0F396D0272
:100CA0000319542E03186E2EEB1B6E2E6B1B5B2E3E
:100CB00020306A2EEB016A086D02031D692E770849
:100CC000EB002E30F3007B226B08F7002030EB05A1
:100CD00000303030F7077708F3007B227208F60007
:100CE0007108F5007008F4006F08F3008316A30183
:100CF000A201A1010A30A000831209247A08F2009F
:100D00007908F1007808F0007708EF00ED0B222E4B
:100D10008A150A12BB2B840183131F3083058316A7
:100D20000317871556300313990000309A00A63038
:100D30009800903083129800831603170908C03971
:100D4000890003131F129F120030031788008312BB
:100D50008701880189018316031397010317850111
:100D600083120313A801A901BF01C001FF30DB00FA
:100D7000CF2A5A10831605168312051ED62EDC01C3
:100D80005C089F2100380319C92EDC0AF3007B227E
:100D9000C02E5A106430F4003F22831605168312C9
:100DA000051ED52E8A1500288A11E32E5A18E32E27
:100DB000DC015C08B22100380319E22EDC0AF300E2
:0A0DC0007B22D92E5A14BA2E6300CC
:1010000040083F020319162C8A1157238A157808C5
:10101000CA004A0F152C8A1157238A157808CB006D
:101020008A1157238A157808CC008A1157238A150C
:101030007808CD008A1157238A157808CE004C080D
:1010400003193B28013A0319D728033A0319182931
:10105000013A03195929073A03199A29013A031940
:10106000062B033A0319472B013A0319882B0B3A35
:101070000319CC2B0C2CE60166088A11AC208A15CA
:10108000E60AF700F3008A117B228A150D3066020A
:10109000031D3C284B08E8003730E9008A1168231B
:1010A0008A152930F3008A117B228A150A30F30051
:1010B0008A117B228A154D08E600E8010730E70017
:1010C000E708031981286608F7006708F800031984
:1010D0006D280310F70CF80B692877080139031DF8
:1010E00078284130680784008313303080007E28E0
:1010F000413068078400831331308000E80AE70339
:10110000602866080139031D8C2841306807840077
:1011100083133030800092284130680784008313A5
:101120003130800001306807413E84008313800124
:101130004130F8000030F9007908E5007808E40053
:101140006230F3008A117B228A15640884008313BD
:1011500065188317003000040319C028E70104084C
:10116000E6006710831B67140008F3008A117B22D6
:101170008A1566088400831367188317840AAA28CF
:101180002830F3008A117B228A156830F3008A1117
:101190007B228A154D08E8003730E9008A11682360
:1011A0008A152930F3008A117B228A15152CE60155
:1011B00066088A11C2208A15E60AF700F3008A1130
:1011C0007B228A150B306602031DD8284B08E800E5
:1011D0003730E9008A1168238A152930F3008A1113
:1011E0007B228A150A30F3008A117B228A1500308F
:1011F0004D07DE004E08DF000318DF0A10308400C0
:101200005F08E7005E08E6008A1189238A1503302B
:10121000E60066088A11D6208A15E60AF700F30070
:101220008A117B228A1507306602031D0929152CB5
:10123000E60166088A11E2208A15E60AF700F30043
:101240008A117B228A150B306602031D19294B086F
:10125000E8003730E9008A1168238A152930F30045
:101260008A117B228A150A30F3008A117B228A15A3
:1012700000304D07DE004E08DF000318DF0A103093
:1012800084005F08E7005E08E6008A1189238A155A
:101290000330E60066088A11D6208A15E60AF700B0
:1012A000F3008A117B228A1507306602031D4A2942
:1012B000152CE60166088A11F6208A15E60AF70061
:1012C000F3008A117B228A150B306602031D5A290E
:1012D0004B08E8003730E9008A1168238A15293065
:1012E000F3008A117B228A150A30F3008A117B22CF
:1012F0008A1500304D07DE004E08DF000318DF0AB4
:10130000103084005F08E7005E08E6008A11892338
:101310008A150330E60066088A11D6208A15E60A87
:10132000F700F3008A117B228A1507306602031D3D
:101330008B29152C4E08FA0000304D07F8000318D1
:10134000FA0A7808E6007A08E7008E30F7006708A6
:10135000F8006608F900FA01F808031DB9297908B0
:10136000F800F9010830F702F808031DB929F70160
:10137000C1290310F81BC029F90DF80DF703B9298D
:10138000F8137708E6007808E7007908E8007A089B
:10139000E9006908ED006808EC006708EB006608E2
:1013A000EA00F101F001EF018730EE006A0803194D
:1013B000B82A8316A40083126E080319B82A83166C
:1013C000A402031CEA297F30A407031CE929831225
:1013D000B82AF4298130A4020318F0298312B82A0C
:1013E000031DF4298312B82A2408F700F801F90133
:1013F000FA01A30183126B088316A200A2178312BD
:101400006C088316A10083126D088316A0001930A2
:10141000A4007108A00203181D2A0130A1020318BC
:101420001D2AA20203181D2AA30203181D2AA30ABB
:10143000A20AA10A7108A007532A7008A102031882
:10144000382A0130A2020318382AA3020318382AC6
:10145000A30AA20A7008A1077108A007031C532A57
:10146000A10A031D532AA20A031D532AA30A532AC1
:1014700083126F0880388316A2020318522A0130A3
:10148000A3020318522AA30A83126F088038831616
:10149000A2077008A107031C2C2AA20A031D2C2AEC
:1014A000A30A2C2A7A14A40B562A612A0310A00D31
:1014B000A10DA20DA30D0310FA0DF90DF80DA50D48
:1014C000092A251C692A0310F80CF90CFA0CA50C42
:1014D0006D2AF70B6D2A8312B82AA51B982A0310D0
:1014E000A00DA10DA20DA30D7108A0020318822A60
:1014F0000130A1020318822AA2020318822AA30241
:10150000031CA92A7008A10203188D2A0130A20227
:1015100003188D2AA302031CA92A83126F0880389E
:101520008316A2020318982A0130A302031CA92AD9
:10153000FA0A031DA92AF90A031DA92AF80A031D9C
:10154000A92AF70A031DA62A8312B82AF80CF90C57
:10155000FA0C83126B088316A40083126F0883169B
:10156000A406A41FB52AF817BD2AF813BD2A8312B2
:10157000F701F801F901FA0183167A088312E300F2
:101580007908E2007808E1007708E000E6016608E3
:101590008A110D218A15E60AF700F3008A117B22D1
:1015A0008A150D306602031DC72A4B08E800373044
:1015B000E9008A1168238A152930F3008A117B22F9
:1015C0008A150A30F3008A117B228A15893084003B
:1015D0006308E9006208E8006108E7006008E600C7
:1015E0000330EA008A114D2C8A150530E6006608A2
:1015F0008A1123218A15E60AF700F3008A117B225B
:101600008A1509306602031DF72A152C00304D0794
:10161000DC004E08DD000318DD0AE60166088A11C9
:1016200031218A15E60AF700F3008A117B228A1518
:101630000C306602031D0E2B4B08E8003730E90022
:101640008A1168238A152930F3008A117B228A15B2
:101650000A30F3008A117B228A15103084005D085D
:10166000E7005C08E6008A11B1258A150330E60020
:1016700066088A1146218A15E60AF700F3008A11E6
:101680007B228A1508306602031D382B152C00308A
:101690004D07DC004E08DD000318DD0AE601660890
:1016A0008A1153218A15E60AF700F3008A117B227A
:1016B0008A150C306602031D4F2B4B08E8003730AB
:1016C000E9008A1168238A152930F3008A117B22E8
:1016D0008A150A30F3008A117B228A1510308400A3
:1016E0005D08E7005C08E6008A11B1258A15033021
:1016F000E60066088A1168218A15E60AF700F300F9
:101700008A117B228A1507306602031D792B152C5E
:1017100000304D07DC004E08DD000318DD0AE6014D
:1017200066088A1174218A15E60AF700F3008A1107
:101730007B228A150B306602031D902B4B08E800B4
:101740003730E9008A1168238A152930F3008A119D
:101750007B228A150A30F3008A117B228A154130D8
:101760008400E901E8015D08E7005C08E60001305B
:10177000EA008A11142E8A155B30F3008A117B224D
:101780008A155630F3008A117B228A155D30F300EA
:101790008A117B228A15152C00304D07DC004E087B
:1017A000DD000318DD0AE60166088A1188218A1522
:1017B000E60AF700F3008A117B228A150E306602D2
:1017C000031DD42B4B08E8003730E9008A11682349
:1017D0008A152930F3008A117B228A150A30F3001A
:1017E0008A117B228A15103084005D08E7005C08AE
:1017F000E6008A1189238A155B30F3008A117B2267
:101800008A150130F3008A117B228A155D30F300BE
:101810008A117B228A15152C40083F020319142CCB
:101820008A1157238A150C2C152C00288A110A12AC
:02183000CD2EBB
:04400E00F22CFF3F52
:00000001FF
;PIC16F887
