:0E00020008308A00A22D00000A108A100A1190
:10001000820728340C34013406340A108A100A117D
:1000200082070C345334633461346E3420344334E7
:1000300061347034743465347534723473342034FC
:100040000A3400340A108A100A1182072834433413
:10005000293455344D344F344E34533420342D34F8
:100060002034323430343134313400340A108A10C0
:100070000A1182070C344334613470342E34203436
:1000800041346334633465346C34653472346F34B2
:100090006D342E3420340A3400340A108A100A11C8
:1000A00082070C344334613470342E342034543499
:1000B00065346D347034653472346134743475343D
:1000C000723465340A3400340A108A100A11820727
:1000D000543465346D3470342E343A34203425343D
:1000E00033342E34333466342034433400340A102D
:1000F0008A100A1182070C344334613470342E3470
:1001000020344C3475346D3469346E346F34733448
:1001100069347434653420340A3400340A108A1087
:100120000A1182074C34753478343A3425346C34EF
:10013000643400340A108A100A1182070C344334E4
:100140006134703474342E3420344434693473345C
:10015000743461346E346334653420340A340034CA
:100160000A108A100A1182074434693473347434D3
:100170003A3425346C346434203443346D340034E0
:100180000A108A100A1182070C3443346134703427
:100190002E34203442346F347534733473346F34F6
:1001A0006C3465340A3400340A108A100A1182074C
:1001B0004434653467347234653473343A342534E6
:1001C0006C34643400340A108A100A1182070C342B
:1001D00045346E3474347234653465347334203489
:1001E0004134443443340A3400340A108A100A116A
:1001F000FC3E03188A0A82000C3445346E34743491
:10020000723465346534733420344434693467346B
:100210006934743461346C3420340A3400340A1480
:100220008A100A1182070C3442346C3475346534F8
:1002300074346F346F347434683420344F344E3433
:100240002E3400340A148A100A1182070C34423406
:100250006C347534653474346F346F34743468348A
:1002600020344F34463446342E34003458183A295A
:1002700006123B290616831606128312D818422945
:1002800086124329861683168612831258194A2924
:1002900006134B290617831606138312D819522901
:1002A000861353298617831686130000861183123E
:1002B000861500008316861183128611003483167A
:1002C000061183120611D50803196B29831606112E
:1002D000831206156F2983160611831206118316E1
:1002E000861183128611560ED7000F30D705570896
:1002F000D800362156080F39D700D80036214030B3
:10030000F700F70B812984290034513084008313CE
:100310000008031998290630F800F701F70B8E2919
:10032000F80B8D297B30F700F70B9429800B8B2974
:10033000003401305202FC3E0318AC29043EB929B6
:100340008030D300AC29C030D300AC299430D30026
:10035000AC29D430D300AC2901305102D307530863
:100360008038D400D5015408D6005F218A110A12C2
:10037000EF290A148A100A118207A029A329A629A5
:10038000A92950080C3A0319CF29063A0319D9298B
:10039000023A0319DF29093A0319E429E929D501A9
:1003A0000130D6005F210130A1000230D10085214B
:1003B000EF29A10A0130D1002108D2009929D501E5
:1003C0001030D6005F21EF290130D500D6015F2122
:1003D000EF290130D5005008D6005F21EF29003405
:1003E0003308FC3E03180A2A043E0D2AD5010C30BE
:1003F000D6005F210A2AD5010E30D6005F210A2AD5
:10040000D5010D30D6005F210A2AD5010F30D60064
:100410005F210A2A8A110A125F2A0A108A140A1115
:100420008207F629FB29002A052A831603170908E3
:10043000C039890003131F129F1200300F380317B1
:100440008800831203131F179F1783169F178312A9
:100450001F140130B3003308033C031C382AD501B4
:100460002030D6005F210230D1008521B30A2B2A2B
:10047000B3013308043C031C492A33080520B400A7
:10048000D5013408D6005F210230D1008521B30A9E
:10049000392AB30133080D2000380319532AB30A4F
:1004A000D000C1214A2AB3013308222000380319A1
:1004B0005D2AB30AD000C121542AB301F029C83003
:1004C000B3001430B4002011200883168700831273
:1004D00007110C30970083169B0103108312330C15
:1004E000B50095002030F8000638920033088316D6
:1004F000920083123408B403003A0319832A0A30A5
:10050000D10085217A2A20152008831687008312BE
:10051000970183169B0104308312B300FA30D10097
:100520008521B30B8E2A8A150A12CF2D3608F801C1
:10053000350203189E2A3508F700AA2AF701083069
:10054000B700B50DF70D360877020318F700F80D60
:10055000B70BA12A8A150A12F82D0830F8000430CA
:10056000F700F70BB12A8711A01120088316870026
:100570000330F700F70BBA2A8312C80D0712031CC9
:10058000C72A2016200883168700CB2A8312201240
:1005900020088316870000008312A0152008831608
:1005A00087008312871DD22AF80BAF2A0430F70088
:1005B000F70BD82A8711A0112008831687000000A6
:1005C000831220162008831687000330F700F70BEC
:1005D000E72A0330F700F70BEB2A8312A015200857
:1005E000831687008312871DF32AF8010330F70072
:1005F000F70BF82A071A78148711A0112008831620
:1006000087008312071220122008831687008312A6
:10061000003420162008831687000430F700F70BFB
:100620000F2B8312A0152008831687000330F700D4
:10063000F70B182B8312071220122008831687004D
:100640000430F700F70B222B83128711A01120082A
:100650008316870083124008C800AD224108C800F5
:10066000AD224208C800AD22201220088316870060
:1006700000008312A0152008831687008312871DAF
:100680003F2B0430F700F70B432B462B00002016BE
:100690002008831687000430F700F70B4D2B8312D8
:1006A00000340830C8007708C900201620088316D7
:1006B00087000330F700F70B5B2B8312A01520088F
:1006C000831687008312871D632B071A0314071EE6
:1006D0000310F80D0430F700F70B6C2BA011200865
:1006E0008316870083128711C80B552B201620080C
:1006F000831687000330F700F70B7C2B8312071259
:1007000049080319882B20122008831687008312BA
:100710000000A0152008831687008312871D8E2BEA
:100720000430F700F70B922B8711A01120088316D5
:1007300087000330F700F70B9B2B83120712201260
:1007400020088316870083120034201620088316A1
:1007500087000430F700F70BAB2B8312A01520089D
:10076000831687000330F700F70BB42B83120712B0
:1007700020122008831687000430F700F70BBE2BE9
:1007800083128711A0112008831687008312400866
:10079000C800AD224108C800AD22C2080319D32BFE
:1007A0004208D100852120162008831687000430D6
:1007B000F700F70BD92B8312A015200883168700AA
:1007C0000330F700F70BE22B8312871DE52B07128E
:1007D00020122008831687000430F700F70BEE2B59
:1007E00083128711A0112008831687008312400806
:1007F0000138C700C800AD220130F7005123780846
:10080000C300F70151237808C40020122008831682
:10081000870000008312A01520088316870083122A
:10082000871D102C0430F700F70B142C172C000038
:1008300020162008831687000430F700F70B1E2CC3
:100840008312C70144084707C5004308C6000318C0
:10085000C60A4508F8004608F9000034490803199B
:10086000F32CD5004D080319F32CD502031C3D2CA5
:100870007F30D5070318F32C432C8130D502031C9D
:10088000F32C0319F32C5508F700F801F901FA01CC
:10089000D4014A08D300D3174B08D2004C08D1002A
:1008A0001930D5005008D1020318662C0130D2024D
:1008B0000318662CD3020318662CD4020318662C86
:1008C000D40AD30AD20A5008D107982C4F08D20272
:1008D0000318812C0130D3020318812CD402031891
:1008E000812CD40AD30A4F08D2075008D107031C21
:1008F000982CD20A031D982CD30A031D982CD40AD5
:10090000982C4E088038D3020318972C0130D4025B
:100910000318972CD40A4E088038D3074F08D20703
:10092000031C752CD30A031D752CD40A752C7A145C
:10093000D50B9B2CA62C0310D10DD20DD30DD40DAD
:100940000310FA0DF90DF80DD60D522C561CAE2CD5
:100950000310F80CF90CFA0CD60CB12CF7030319A0
:10096000F32CD61BDA2C0310D10DD20DD30DD40DE0
:100970005008D1020318C62C0130D2020318C62C2D
:10098000D3020318C62CD402031CE92C4F08D20250
:100990000318D12C0130D3020318D12CD402031C2C
:1009A000E92C4E088038D3020318DA2C0130D40227
:1009B000031CE92CFA0A031DE92CF90A031DE92C92
:1009C000F80A031DE92CF70A0319F32CF80CF90CAB
:1009D000FA0C4A08D5004E08D506D51FF12CF81799
:1009E000F72CF813F72CF701F801F901FA0100349C
:1009F0008E30F7004908F7024A08F9004B08F80062
:100A0000F917F70803190F2D0310F908031D0B2D13
:100A1000F80803190F2DF90CF80CF70B042DCA1F59
:100A2000162DF809F909F80A0319F90A00344E08D5
:100A30000319872DD60052080319872DD6070318EE
:100A4000282D7F30D602031C872D0319872D2C2DCE
:100A50008130D6070318872D5608F700F801F901F1
:100A6000FA014F08DA00DA175008D9005108D80007
:100A70001830D600D701581C552D5508FA07031C0D
:100A8000472DF90A031D472DF80A0319D7175408F3
:100A9000F907031C4E2DF80A0319D7175308D00085
:100AA000D0175008F8070318D717D70DF80CF90C12
:100AB000FA0CDA0CD90CD80C0310D60B3A2D0130F5
:100AC000F7070318872DF81B6C2DDA0DFA0DF90DB9
:100AD000F80DF7030319872DDA1F7D2DFA0A031D80
:100AE0007D2DF90A031D7D2DF80A031D7D2DF80CBF
:100AF000F90CFA0CF70A0319872D4F08D700530891
:100B0000D706D71F852DF8178B2DF8138B2DF701DE
:100B1000F801F901FA010034F701F801F901FA01CD
:100B2000D801D901DA01DB015708560455045404F1
:100B30000319CA2D2030DC000310D00DD10DD20DC9
:100B4000D30DD80DD90DDA0DDB0D57085B02031D4F
:100B5000B32D56085A02031DB32D55085902031D23
:100B6000B32D54085802031CC42D5408D80255084C
:100B7000031C550FD9025608031C560FDA025708FA
:100B8000031C570FDB020314F70DF80DF90DFA0DD6
:100B9000DC0B9C2D58308400831300340408C600FD
:100BA0004508C8000319ED2D4408D1004308D000C2
:100BB0004208CF004108CE00D501D4012030D30037
:100BC0008230D20017257A08C4007908C30078085B
:100BD000C2007708C100C80BD42D4408D1004308D7
:100BE000D0004208CF004108CE004E08B63CCE00EF
:100BF000FA014F08D200CF170310CF0CD00CD10C44
:100C0000FA0CF90CF80CF70CCE0BFC2DD21F132E9E
:100C1000F709F809F909FA09F70A0319F80A031993
:100C2000F90A0319FA0A7A08C4007908C300780897
:100C3000C2007708C100C41F2A2EC603C616C10908
:100C4000C209C309C409C10A0319C20A0319C30AA4
:100C50000319C40A3B30CD009A30CC00CA30CB0017
:100C6000CA010A30C80045080319C60A4408D3005F
:100C70004308D2004208D1004108D0004D08D700F7
:100C80004C08D6004B08D5004A08D4008C25000833
:100C9000C100840A0008C200840A0008C300840A54
:100CA0000008C400FD308407F708031D6A2E450ABA
:100CB000480203196A2E460803196C2E0F394802A0
:100CC0000319642E03189C2EC61B9C2E461B6C2EEB
:100CD0002030982E2030C605C61E7A2EC612450832
:100CE000031DC6037708C6002D30D000C121460879
:100CF000F700C60145084802031D882E7708C60084
:100D00002E30D000C1214608F7002030C605003043
:100D10003030C61E982EC6124508031DC60377083C
:100D2000C6002D30D000C1214608F700C601303082
:100D3000F7077708D000C1214D08D3004C08D20036
:100D40004B08D1004A08D000D701D601D5010A309E
:100D5000D4008C257A08CD007908CC007808CB0027
:100D60007708CA00C80B362E8A150A1226298E303B
:100D7000F7004608F8004508F900FA01F808031DD5
:100D8000CB2E7908F800F9010830F702F808031DA6
:100D9000CB2EF701D32E0310F81BD22EF90DF80D30
:100DA000F703CB2EF8130034C5010408C400451026
:100DB000831B4514BE1FE42EC417441EC40ABD097C
:100DC000BE09BD0A0319BE0A3E0EF038C000C007B6
:100DD000E23EC100323EC3003E080F39C107C107E1
:100DE000C307E93EC200C207C2073D0E0F39C20762
:100DF000C307C20DC30DC309C30D3D080F39C30797
:100E0000C00D0730BF000A30C307C203031C042F04
:100E1000C207C103031C082FC107C003031C0C2F0A
:100E2000C007BF03031C102F3F308400831307301B
:100E30004405441384034405031D252F441A840AE2
:100E4000441A252F2030F700422F84074330040234
:100E5000031944170008F700031D362F441B362FD3
:100E6000441A502FC419362F2030412FC41F3E2F53
:100E70002D30F70084034413C413422FC4154412C9
:100E80003030F707BE010408BD003E10831B3E143E
:100E90007708D000C1213D08840083133E188317D2
:100EA000840A441F262F003420162008831687004A
:100EB0000430F700F70B5A2F8312A0152008831671
:100EC00087000330F700F70B632F831207122012FD
:100ED0002008831687000430F700F70B6D2F83126C
:100EE0008711A01120088316870083123D08C800CF
:100EF000AD223E08C800AD22BF080319822F3F086B
:100F0000D100852120162008831687000430F700C1
:100F1000F70B882F8312A015200883168700033053
:100F2000F700F70B912F8312871D942F07122012C1
:100F30002008831687000430F700F70B9D2F8312DB
:100F40008711A01120088316870083123D080138FD
:100F5000C100C800AD22F70151237808C00020125B
:100F600020088316870000008312A015200883162E
:100F700087008312871DBA2F0430F700F70BBE2FAE
:100F8000C12F000020162008831687000430F700C8
:100F9000F70BC82F83124008F80000341030C1004E
:100FA000F701FA01BE0CBD0C031CDC2F3F08F7074C
:100FB0000318FA0A4008FA07FA0CF70CF90CF80CB7
:060FC000C10BD22F00342A
:101000000408C8003B30CF009A30CE00CA30CD0073
:10101000CC010A30CA004708031DC8034608D300A4
:101020004508D2004408D1004308D0004F08D7003B
:101030004E08D6004D08D5004C08D4008A118C25E6
:101040008A150008C300840A0008C400840A000846
:10105000C500840A0008C600FD308407F708031D98
:101060004428470A4A020319442848080319452816
:101070000F394A0203193E2803185C28C81B5C2854
:10108000481B452820305628C80147084A02031D3E
:1010900055287708C8002E30D0008A11C1218A1542
:1010A0004808F7002030C80500303030F7077708CF
:1010B000D0008A11C1218A154F08D3004E08D200F2
:1010C0004D08D1004C08D000D701D601D5010A3017
:1010D000D4008A118C258A157A08CF007908CE00B1
:1010E0007808CD007708CC00CA0B0E2800343308EE
:1010F000003A03198E28013A03194F29033A0319BC
:10110000D029013A0319F72A073A0319762B013A35
:1011100003190B2C033A0319E72C9E2D9030C000C5
:101120000130C1006030C2008A1109238A15903055
:10113000C000C1015E30C2008A11A5238A1579085A
:10114000C1007808C0008E30F7004108F800400860
:10115000F900FA01C11FB128F809F909F90A0319C0
:10116000F80AF808031DBE287908F800F9010830CC
:10117000F702F808031DBE28F701C7280310F81B63
:10118000C528F90DF80DF703BE28C11FF8137A081A
:10119000B7007908B6007808B5007708B4003708BA
:1011A000CC003608CB003508CA003408C900D0018D
:1011B000CF01CE018730CD008A112E248A157A08FE
:1011C000BB007908BA007808B9007708B80037087A
:1011D000CC003608CB003508CA003408C9008A1193
:1011E000F8248A157908BD007808BC003C08BE00C8
:1011F0003D08BF00C00140088A114D208A15C00A71
:10120000F700D0008A11C1218A1512304002031D57
:10121000FB28C00140088A1164208A15C00AF70023
:10122000D0008A11C1218A1507304002031D0A2906
:10123000893084003B08C4003A08C3003908C20062
:101240003808C1000330C5008A11CE2D8A15203020
:10125000D0008A11C1218A154330D0008A11C121E2
:101260008A150630C1002030D0008A11C1218A15AC
:10127000C10B3329FF300C1E3B29990090300C1E06
:101280003F29990004300C1E432999003E080C1E8A
:10129000472999003F080C1E4B2999009F2DB40146
:1012A000B5014630C0002030C1007830C2008A113C
:1012B000A5238A157908B5007808B4003508C6005A
:1012C0003408C5008A11B7268A157A08CC00790837
:1012D000CB007808CA007708C9009A30D00099304E
:1012E000CF001930CE007F30CD008A112E248A1510
:1012F0007A08CC007908CB007808CA007708C900C2
:101300008A11F8248A157908B5007808B4003408E1
:10131000B6003508B700B80138088A1177208A1559
:10132000B80AF700D0008A11C1218A15123038029C
:10133000031D8C29B80138088A118E208A15B80A35
:10134000F700D0008A11C1218A1504303802031D2C
:101350009B29103084003508BE003408BD008A1176
:10136000D4268A150830B9002030D0008A11C12156
:101370008A15B90BB429FF300C1EBC2999004630E0
:101380000C1EC029990005300C1EC429990036088E
:101390000C1EC829990037080C1ECC2999009F2DD6
:1013A000B401BB01BC013A30C0002030C10047305D
:1013B000C2008A1109238A153A30BD002730BE00C9
:1013C000BF018A1154278A157808B40034080C39F3
:1013D0000C3C031DFA293A30BD002D30BE00BF0180
:1013E0008A1154278A15FA017808F81BFA03A60017
:1013F0007A08A70034080A390A3C031D0E2A3A303D
:10140000BD002B30BE00BF018A1154278A15FA0196
:101410007808F81BFA03A4007A08A50034080939F3
:10142000093C031D222A3A30BD002930BE00BF010D
:101430008A1154278A15FA017808F81BFA03A200CA
:101440007A08A3002308BE002208BD00C0011230A4
:10145000BF008A11CE278A157908B8007808B7002E
:101460002508BE002408BD00C0011230BF008A114B
:10147000CE278A157908BA007808B9002708BE0077
:101480002608BD00C0011230BF008A11CE278A1580
:101490007908BC007808BB00BD013D088A113620E0
:1014A0008A15BD0AF700D0008A11C1218A151230B1
:1014B0003D02031D4D2A5830D0008A11C1218A15E2
:1014C000103084003808BE003708BD008A11D426C9
:1014D0008A152030D0008A11C1218A155930D000D8
:1014E0008A11C1218A15103084003A08BE003908DB
:1014F000BD008A11D4268A152030D0008A11C1215E
:101500008A155A30D0008A11C1218A151030840002
:101510003C08BE003B08BD008A11D4268A15203045
:10152000D0008A11C1218A152030D0008A11C12132
:101530008A153708B5003808FA01B600FF300C1ECE
:101540009F2A99003A300C1EA32A990001300C1EE4
:10155000A72A990035080C1EAB2A990036080C1EE4
:10156000AF2A99000430BD00FA30D1008A118521DC
:101570008A15BD0BB42A3908B5003A08FA01B6003D
:10158000FF300C1EC12A99003A300C1EC52A990062
:1015900002300C1EC92A990035080C1ECD2A99006C
:1015A00036080C1ED12A99000430BD00FA30D10053
:1015B0008A1185218A15BD0BD62A3B08B5003C0847
:1015C000FA01B600FF300C1EE32A99003A300C1ED7
:1015D000E72A990003300C1EEB2A990035080C1EEF
:1015E000EF2A990036080C1EF32A99009F2DB501A9
:1015F000B601B701E030C000C1015130C2008A110C
:1016000009238A155030D1008A1185218A15E030CE
:10161000BD000230BE00BF018A1154278A15780828
:10162000B500E030BD000330BE00BF018A11542771
:101630008A157808B40000303407B6003508B700C2
:101640000318B70AB80138088A119A208A15B80A0F
:10165000F700D0008A11C1218A1511303802031D0C
:10166000232BB80138088A11B0208A15B80AF70070
:10167000D0008A11C1218A1505303802031D322B92
:10168000103084003708BE003608BD008A11D42609
:101690008A152030D0008A11C1218A154330D0002C
:1016A0008A11C1218A156D30D0008A11C1218A1595
:1016B0000630B9002030D0008A11C1218A15B90B3B
:1016C0005A2BFF300C1E622B9900E0300C1E662B4B
:1016D000990006300C1E6A2B990034080C1E6E2BE4
:1016E000990035080C1E722B99009F2DB401B5018D
:1016F0004230C0004130C1000A30C2008A11A52327
:101700008A157908B5007808B4003508B90034089E
:10171000B800BB010A30BA00F801F901F701FA017B
:101720003B08031D962B3A080319B02B1030BC0060
:101730000310B80DB90DF70DFA0D3B087A02031D21
:10174000A32B3A087702031CAC2B3A08F702031CC0
:10175000FA033B08FA020314F80DF90DBC0B982BA1
:101760007908B5007808B4003408B6003508B70029
:10177000B80138088A11C0208A15B80AF700D000CD
:101780008A11C1218A150E303802031DB92B03308E
:10179000B9002030D0008A11C1218A15B90BC92B9C
:1017A0000A30D0008A11C1218A15B80138088A117F
:1017B000D4208A15B80AF700D0008A11C1218A15F1
:1017C00007303802031DD62B103084003508BE00C8
:1017D0003408BD008A11D4268A150730B90020309C
:1017E000D0008A11C1218A15B90BEF2BFF300C1ED6
:1017F000F72B990042300C1EFB2B99000C300C1E6D
:10180000FF2B990036080C1E032C990037080C1E7C
:10181000072C99009F2DB4013408033C031C712C44
:10182000340DF700F70DFC30F7051F08C3397704B6
:101830009F001030F700F70B1B2C00009F149F181F
:101840001F2C83161E088312B7001E08B800031051
:10185000340D393E840083133808C6003708C500AC
:101860008A11B7268A157A08D1007908D00078083D
:10187000CF007708CE00F630D5002830D4001C30D9
:10188000D3008130D2008A1117258A157708C50048
:101890007808C6007908C7007A08C800CC00790823
:1018A000CB007808CA007708C900D001CF014830C2
:1018B000CE008530CD008A112E248A157A08CC00FE
:1018C0007908CB007808CA007708C9008A11F82483
:1018D0008A15840A79088000840378088000B40A95
:1018E0000C2C3B08B5003C08B600C30143088A1124
:1018F000E3208A15C30AF700D0008A11C1218A1596
:101900000C304302031D762C0530C4002030D0007B
:101910008A11C1218A15C40B862C0A30D0008A1185
:10192000C1218A1541308400C601C5013A08C400AE
:101930003908C3000130C70000202030D0008A11D0
:10194000C1218A1541308400C601C5013C08C4008C
:101950003B08C3000130C70000202030D0008A11AE
:10196000C1218A1541308400C601C5013E08C4006A
:101970003D08C3000130C70000202030D0008A118C
:10198000C1218A1541308400C601C5014008C40048
:101990003F08C3000130C70000202030D0008A116A
:1019A000C1218A15FF300C1ED32C990000300C1E6B
:1019B000D72C990007300C1EDB2C990035080C1E23
:1019C000DF2C990036080C1EE32C99009F2DFF3068
:1019D0008316880083120808B400B50135088A11FF
:1019E000F5208A15B50AF700D0008A11C1218A15A1
:1019F00012303502031DEE2C3408B500B701073054
:101A0000B600B6080319222D3508F7003608F8008D
:101A100003190E2D0310F70CF80B0A2D7708013966
:101A2000031D192D283037078400831330308000C0
:101A30001F2D283037078400831331308000B70A08
:101A4000B603012D35080139031D2D2D2830370728
:101A50008400831330308000332D28303707840012
:101A600083133130800001303707283E8400831310
:101A70008001283084008313003000040319522DA4
:101A8000B6010408B5003610831B36140008D000D8
:101A90008A11C1218A1535088400831336188317EB
:101AA000840A3C2D6230D0008A11C1218A15203071
:101AB000D0008A11C1218A153408B7003730B80028
:101AC000B81B742D0F30F700370EF7050A30770278
:101AD00003186D2D3030F7076F2D3808F70777089A
:101AE000D0008A11C1218A150F30B7050A3037029C
:101AF00003187C2D30307E2DB8133808B70737080F
:101B0000D0008A11C1218A156830D0008A11C12104
:101B10008A15FF300C1E8A2D990000300C1E8E2D68
:101B2000990000300C1E922D990034080C1E962D41
:101B3000990000300C1E9A2D99009F2D9F2D8A151B
:101B40000A12FE2D840183131F30830583160317A9
:101B5000871556300313990000309A00A63098007C
:101B6000903083129800831603170908C039890042
:101B700003131F129F12003003178800831287017E
:101B80008801890183160313970103178501FF302C
:101B900083120313A000A601A7018A11152A8A1532
:101BA000B1013210831605168312051E092EB301EA
:101BB00033088A110F218A1500380319E52DB30A5D
:101BC000D0008A11C1218A15D82D32106430D1007D
:101BD0008A1185218A15831605168312051E082E83
:101BE00001303107B400B5000730B6008A11962ADB
:101BF0008A157708B1003108B30077280430B300A4
:101C0000FA30D1008A1185218A15B30B002EEB2DF5
:101C10001A2E32181A2EB30133088A1122218A157E
:101C200000380319192EB30AD0008A11C1218A1570
:081C30000C2E3214D22D6300CA
:04400E00F22CFF3F52
:00000001FF
;PIC16F887
