:1000000082EF10F0F76A140FF66E000EF722090067
:10001000F5501200280C0106F76A280FF66E000E44
:10002000F7220900F5501200484F4D452E54585400
:100030000000636D643100000A0D207772697465F9
:1000400020626C6F636B20657272202532580A0D36
:1000500000000A0D20496E7075742053746172742B
:1000600020616464726573733A0020424C4F434BC5
:100070000A0D00000A0D20726561645F424C4F4317
:100080004B206661696C656400000A0D2066696C2E
:100090006520657272205B25735D206E6F7420662B
:1000A0006F756E64200A0D000C4C65637475726583
:1000B0002043617274652053440A00002843295587
:1000C0004D4F4E53202D2032303131000D0A2A2A57
:1000D0002A2A205344202F204D4D4320464154319D
:1000E000362020526561642044656D6F202A2A2ADB
:1000F0002A2000000D4E6F77204F70656E20484F0C
:100100004D452E5458542046696C65206F6E20531F
:10011000442043617264202000000A0D204D4D43AD
:1001200020696E697469616C697A6564200A0D00E2
:100130000A0D20666F70656E206173203020666145
:10014000696C6564206572726F723D25550A0D00F9
:100150000A0D206F70656E65642061732030206623
:10016000696C652025732077697468207265632047
:1001700073697A6520256C75200A0D000A0D2066CA
:10018000726561642030206661696C656420657207
:10019000726F723D25550A0D00000A0D20646F6EC6
:1001A000652077696E6865782061646A3D20256CFA
:1001B00075200A0D000001010FB102D08A9801D00C
:1001C0008A8893980FB302D08A9A01D08A8A939A28
:1001D0000FB502D08A9C01D08A8C939C0FB702D0B5
:1001E0008A9E01D08A8E939E000093968A86000094
:1001F00093968A960001000C96908D9001010C5305
:1002000003E096908D8002D096908D9093968A967A
:100210000D390E6F0F0E0E170EC10FF10001CBDF5F
:1002200001010D510F0B0E6F0F6F0001C4DF400E67
:10023000006E002EFED700D0000C010EEA6E3E0EBE
:10024000E96EEF500DE0060E016E006A002EFED73B
:10025000012EFBD77B0E006E002EFED7EF2EF3D7BC
:10026000000C010E0101056F055103080DE30C6B35
:10027000200E0D6F0001C0DF020E01013E6F000174
:10028000DCDF0101052BF0D7056B0551040812E3F3
:10029000036A05510001B6DE0101066F0C6B0D6F9C
:1002A0000001AADF020E01013E6F0001C6DF01015D
:1002B000052BEBD7000148EF02F0010E0101095DAB
:1002C000FC0F15E2040F000183EF01F0800E010125
:1002D0000A6F0DD0C00E01010A6F09D0940E010102
:1002E0000A6F05D0D40E01010A6F01D00101010E81
:1002F000085D0A270A5180090B6F0C6B0D6F000116
:100300007BDFCDEF01F0E824F76AF736210FF66EB8
:10031000030EF7220A00F550FA6E0800F550F96E48
:10032000CC02D402DC02E402010107510C0A0001F4
:1003300007E0060A13E0020A1AE0090A1FE025D0C6
:1003400001010C6B010E0D6F000156DF010E046EF2
:10035000020E01013E6F000170DF1FD0042A010E62
:100360000101086F04C009F10001A7D716D00101EF
:100370000C6B100E0D6F00013FDF0FD0010E01015D
:100380000C6F0D6B000138DF08D0010E01010C6FFE
:1003900007C10DF1000130DF00D0D9EF01F00900F5
:1003A000F5520CE0F6CF05F1F7CF06F1F5CF07F1E6
:1003B000BBD705C1F6FF06C1F7FFF1D7000C01015D
:1003C0000551FC0F25E2040F00010BEF02F00101C3
:1003D0000C6B0C0E0D6F00010FDF010119D0010134
:1003E0000C6B0E0E0D6F000107DF010111D0010132
:1003F0000C6B0D0E0D6F0001FFDE010109D0010134
:100400000C6B0F0E0D6F0001F7DE010101D0010131
:10041000000156EF02F0E824F76AF736310FF66E66
:10042000040EF7220A00F550FA6E0800F550F96E36
:10043000CE03DE03EE03FE0394948B94969C0C0E85
:10044000BD6EB76AB66AD89001010531BE6E200E46
:100450000609CA6E05C1CBFF06510607000A06E071
:100460000A0E3E6F0001E9DE0101F6D79484BD6AF1
:10047000B76AB66A00015DEF02F0C69A949E938057
:100480009392310EC66E000EC76E95968C86E9D695
:10049000A80EF66E000EF76E82DFBC0EF66E000E32
:1004A000F76E7DDF0101056B000189D7C80E0101E0
:1004B000056F140E066F0001BFD7040E0101056F12
:1004C000FA0E3E6F0001B9DE0101052FF9D70001D8
:1004D000A0EF10F00900F5520DE0F6CF3EF1F7CF96
:1004E0003FF1F5509EA8FED7AD6E3EC1F6FF3FC16D
:1004F000F7FFF0D7000C0101676B67510F0807E3A6
:10050000C950FF0EC96EC730FEE3672BF6D7C9503E
:100510005FC1C9FFC730FEE363C169F1C95063C160
:10052000C9FFC730FEE362C169F1C95062C1C9FFAA
:10053000C730FEE361C169F1C95061C1C9FFC7306D
:10054000FEE360C169F1C95060C1C9FFC730FEE375
:10055000C950950EC96EC730FEE3676B6451675D85
:1005600011E2C950FF0EC96EC730FEE3C9CF68F172
:100570006551685D01E106D06651685D01E102D018
:10058000672BECD768C101F00001000C500E01018F
:100590005F6F55C163F154C162F153C161F152C142
:1005A00060F1100E646F656B400E666F0001A3DF93
:1005B00001C056F10101565301E107D056514008E0
:1005C00001E103D0000E016E0AD055C11EF054C1E6
:1005D0001DF053C11CF052C11BF0010E016E000151
:1005E000000C510E01015F6F57C163F156C162F1FA
:1005F00055C161F154C160F1100E646F656B400E1E
:10060000666F000178DF01C05AF101015A5301E120
:100610000AD05A51400801E103D0000E016E44D0C7
:10062000000E016E41D05E6B5D6B5E5103080FE3FF
:10063000C950FF0EC96EC730FEE3C9CF5AF15A51F7
:10064000FE0801E107D05D2BD8B45E2BEED7000E7B
:10065000016E2AD05C6B5B6B1E5209E11D5207E1F3
:100660005C511C5C15E303E11B505B5D11E25851CA
:100670005B25E96E59515C21EA6EC950FF0EC96EC7
:10068000C730FEE3C9CFEFFF5B2BD8B45C2BE4D7B8
:10069000C950FF0EC96EC730FEE3C950FF0EC96EC8
:1006A000C730FEE3010E016E0001000C0101405154
:1006B0004203F3CF01F0F4CF00F04303F3500026E0
:1006C00041514203F3500020026E0001000C010171
:1006D000626B636B010E646FDA6AD96A676F5A0ED8
:1006E000666F010EEA6E5E0EE96E67C1E2FF66C1DB
:1006F000E1FF64C165F1D890E550EE02F35062234A
:10070000F4506323652FF7D762C1DEFF63C162F146
:10071000636BD8B0632B662BD8B4672B642B645102
:100720000508DFE10001000C016A026A006A036A41
:100730000101415102E1405118E0100E426FD89082
:100740003E373F37003603364151035C02E14051EA
:10075000005C07E34051005ED8A003064151035EF0
:10076000D88001360236422FEAD7000178EF05F033
:1007700001011B6B1A6B1A51010823E31A513D0D3D
:10078000F3503F6B3E6F210E3E25E96E000E3F2178
:10079000EA6EEF6A1A513D0DF3503F6B3E6F3B0E10
:1007A0003E25016E000E3F21036E0150210FE96EC0
:1007B000000E0320EA6EEC6AED52200EEF6E1A2B4B
:1007C000DAD795968C86140E3E6F000136DD010156
:1007D0001A6B1A51130807E3C950FF0EC96EC730D0
:1007E000FEE31A2BF6D795968C96140E3E6F0001F9
:1007F00024DD400E01015F6F636B626B616B606BA8
:10080000800E646F010E656F990E666F000173DED6
:1008100001C01DF101011D2D01D00AD01B511B2B60
:10082000055D03E002E3A6D703D00A0E016E85D171
:100830001B6B410E5F6F636B626B616B606B800E55
:10084000646F656B990E666F000155DE01C01DF186
:1008500001011D5301E111D01B511B2B055D0AE065
:1008600009E3320EF66E000EF76E000133DE010171
:10087000E0D703D00B0E016E60D1556B546B536BF8
:10088000200E526F000182DE015204E10C0E016E57
:10089000010153D10101576B566B556B546B010E1F
:1008A000596F1E0E586F00019CDE015204E1630E69
:1008B000016E010142D101011E51EB0803E01E51FE
:1008C000E90801E137D0576B566B010E556FBE0E2C
:1008D000546F010E596F1E0E586F000182DE0152D7
:1008E00005E10D0E016E010128D1000129C109F1B8
:1008F00028C108F127C107F126C106F1D8900101EE
:100900003E6B06353F6F0735406F0835416F576FB7
:1009100040C156F13FC155F13EC154F1010E596F2E
:100920001E0E586F00015DDE015205E10E0E016ED4
:10093000010103D100012AC10FF129C10EF101010A
:100940000E5303E10F51020803E00F0E016EF5D0C4
:100950002BC11CF13F6B1CC13EF13FC141F11CC1D9
:1009600040F10FC143F10EC142F100019FDE02C010
:1009700006F001C005F02DC10BF12CC10AF130C108
:1009800011F12FC110F132C119F131C118F135C186
:100990000DF134C10CF101010A5106253E6F0B51D6
:1009A00007213F6F000E0821406F000E0921416FA3
:1009B0005D6F40C15CF13FC15BF13EC15AF1616BBB
:1009C000606B0FC15FF10EC15EF1000180DE03C0FC
:1009D0000AF002C009F001C008F000C007F00FC122
:1009E00041F10EC140F10DC143F10CC142F15EDE97
:1009F000015007240B6E025008200C6E000E0920D7
:100A00000D6E000E0A200E6ED89001010C353E6F5F
:100A10000D353F6F06513E2707513F23000E082139
:100A2000406F000E0921416F0A513E270B513F23B1
:100A3000000E4023412341C15DF140C15CF13FC143
:100A40005BF13EC15AF1616B606B0FC15FF10EC18A
:100A50005EF100013CDE03C012F002C011F001C0E3
:100A600010F000C00FF001011035026E1135036E59
:100A700002360336023603360236033602360336B2
:100A8000E00E021602500F24136E03501020146E55
:100A9000000E1120156E000E1220166E1131176F08
:100AA0001031166F173316331733163317331633C7
:100AB0000F0E17170A51185D3E6F0B5119593F6FF2
:100AC000D8900C35026E0D35036E02503E5F035018
:100AD0003F5B16513E5D126F17513F59136F13C1A3
:100AE0003FF112C13EF1416B1CC140F100011CD627
:100AF00002C015F101C014F1010115510F0804E302
:100B00000BE11451F40808E21551FE0808E2FF0A4F
:100B100003E11451F50803E2110E016E0ED00E51DF
:100B2000075C176E0F510858186E000E0958196EA1
:100B3000000E0A581A6E000E016E0001B5EF0FF09C
:100B40000900F6CF47F1F7CF48F1F5509EA8FED740
:100B5000AD6E47C1F6FF48C1F7FF0101462F01D036
:100B600002D00001EDD70001000CEF5210E0EACFF7
:100B700047F1E9CF46F1EF509EA8FED7AD6E47C1D1
:100B8000EAFF46C1E9FFE92AD8B4EA2AEED7000C09
:100B90000101492D0BD148513D0DF350516B506F60
:100BA000290E5025016E000E5121036E0150210FB8
:100BB000E96E000E0320EA6EECCF51F1ED52EFCF5B
:100BC00050F1503D08D0513D06D0FF0E4D6F4C6F97
:100BD0004B6F4A6FEBD0556B546B536B020E526FD9
:100BE0000001D4DC015206E1230E006E016A026AA4
:100BF000036AFCD1010148513D0DF350516B506F18
:100C0000290E5025016E000E5121036E0150210F57
:100C1000E96E000E0320EA6EECCF51F1ED52EFCFFA
:100C200050F1D8905035026E5135036E02500724B2
:100C3000506F03500820516F000E0920526F000EB4
:100C40000A20536F576F52C156F151C155F150C12F
:100C500054F1010E596F4E0E586F0001C2DC015263
:100C600006E1210E006E016A026A036ABFD101012A
:100C700048513D0DF350516B506F270E5025016EBA
:100C8000000E5121036E0150210F016E000E032250
:100C900001C050F103C051F148513D0DF350536B69
:100CA000526F290E5225016E000E5321036E015022
:100CB000210FE96E000E0320EA6EECCF03F0ED5237
:100CC000EFCF52F151C1EAFF50C1E9FF03C0ECFF81
:100CD000ED5252C1EFFF48513D0DF350516B506F33
:100CE000290E5025016E000E5121036E0150210F77
:100CF000E96E000E0320EA6E4FC1ECFFED524EC1CB
:100D0000EFFF48513D0DF350516B506F270E5025AA
:100D1000016E000E5121036E0150210FE96E000E8D
:100D20000320EA6EECCF03F0ED52EFCF50F103C099
:100D300051F1526B536B020E505F000E515B525BD0
:100D4000535B05C000F006C001F0026A036A03C0ED
:100D500057F102C056F106C055F105C054F1EACF73
:100D600059F1E9CF58F153C15DF152C15CF151C164
:100D70005BF150C15AF103C061F102C060F106C0DD
:100D80005FF105C05EF10001A2DC59C1EAFF58C164
:100D9000E9FF1350010100244A6F145001204B6FEA
:100DA000155002204C6F165003204D6F4953D8A4A4
:100DB000EED048513D0DF350516B506F270E50252A
:100DC000016E000E5121036E0150210F016E000EC5
:100DD000032201C050F103C051F148513D0DF350C1
:100DE000536B526F250E5225016E000E5321036E78
:100DF0000150210FE96E000E0320EA6EECCF03F0E4
:100E0000ED52EFCF52F151C1EAFF50C1E9FF03C0EB
:100E1000ECFFED5252C1EFFF556B546B536B020E5A
:100E2000526F0001C6EC02F0015206E1230E006E83
:100E3000016A026A036ADAD0010148513D0DF3509C
:100E4000516B506F270E5025016E000E5121036E1D
:100E50000150210FE96E000E0320EA6EECCF51F134
:100E6000ED52EFCF50F1D8905035026E5135036EF0
:100E700002500724506F03500820516F000E0920C4
:100E8000526F000E0A20536F576F52C156F151C175
:100E900055F150C154F1010E596F4E0E586F0001BB
:100EA000F1EC02F0015206E1210E006E016A026AC5
:100EB000036A9CD0010148513D0DF350516B506FB6
:100EC000290E5025016E000E5121036E0150210F95
:100ED000E96E000E0320EA6E4FC1ECFFED524EC1E9
:100EE000EFFF48513D0DF350516B506F270E5025C9
:100EF000016E000E5121036E0150210FE96E000EAC
:100F00000320EA6EECCF03F0ED52EFCF50F103C0B7
:100F100051F1526B536B020E505F000E515B525BEE
:100F2000535B05C000F006C001F0026A036A03C00B
:100F300057F102C056F106C055F105C054F1EACF91
:100F400059F1E9CF58F153C15DF152C15CF151C182
:100F50005BF150C15AF103C061F102C060F106C0FB
:100F60005FF105C05EF1000167EC03F059C1EAFFD3
:100F700058C1E9FF1350010100244A6F14500120A9
:100F80004B6F155002204C6F165003204D6F485187
:100F90003D0DF350516B506F3B0E5025016E000E0E
:100FA0005121036E0150210FE96E000E0320EA6EFD
:100FB000ECCF51F1ED52EFCF50F1556B546B51C165
:100FC00053F150C152F10001C6EC02F0015206E1AA
:100FD000250E006E016A026A036A08D04AC100F059
:100FE0004BC101F04CC102F04DC103F0000C0101F6
:100FF0004A5341E047C103F046C1E9FF47C1EAFF58
:10100000EFCF4BF149C103F048C1E9FF49C1EAFF05
:10101000EF504B5D17E047C103F046C1E9FF47C100
:10102000EAFFEFCF4BF149C103F048C1E9FF49C1E5
:10103000EAFFEF504B5D02E2FF0E01D0010E016EA0
:101040001CD00BD047C103F046C1E9FF47C1EAFFFE
:10105000EF5203E1000E016E10D047C103F046517C
:10106000462BD8B4472B49C103F04851482BD8B47C
:10107000492B4A07BDD7000E016E0001D5EF09F0DC
:10108000010105513D0DF350476B466F290E462572
:10109000016E000E4721036E0150210FE96E000E14
:1010A0000320EA6EEC6AED52EF6A05513D0DF350F4
:1010B000476B466F270E4625016E000E4721036ED3
:1010C0000150210FE96E000E0320EA6EEC6AED522A
:1010D000EF6A12C00DF111C00CF110C00BF10FC07E
:1010E0000AF1206B456B116B126B0F6B0E6B036A71
:1010F00012510625E96E07510320EA6EEF502F08C2
:1011000026E0036A12510625E96E07510320EA6EB4
:10111000EF505C081CE0036A12510625E96E075186
:101120000320EA6EEF5213E0036A12510625E96EBE
:1011300007510320EA6EEF502E0809E01151125DAD
:10114000070803E2140E016E9FD2122BD0D7125360
:1011500004E1010E126F116FCAD71151125D03E144
:10116000150E016E91D2106B10510A080BE3036A41
:101170001051150FE96E010E0320EA6E200EEF6E7E
:10118000102BF2D7206B106B1251115D20E2036A15
:1011900011510625E96E07510320EA6EEFCF24F1C5
:1011A0002451600806E224517A0803E32451DF0B3E
:1011B00001D02451246F036A1051150FE96E010EFE
:1011C0000320EA6E24C1EFFF112B102BDDD7036A39
:1011D00012510625E96E07510320EA6EEF502E08E2
:1011E0002CE1080E106F036A11510625E96E0751B4
:1011F0000320EA6EEF5221E010510B081EE3112B81
:10120000036A11510625E96E07510320EA6EEFCFFC
:1012100024F1036A1051150FE96E010E0320EA6EE6
:101220002451600806E224517A0803E32451DF0BBD
:1012300001D02451EF6E102BD6D7112B11C112F112
:101240001B50200806E11C5204E11D5202E11E520F
:101250000EE0556B546B536B200E526F0001C6ECC1
:1012600002F0015205E1110E016E01010DD20001E3
:101270000DC157F10CC156F10BC155F10AC154F122
:10128000010E0101596F250E586F0001F1EC02F0BB
:10129000015205E10A0E016E0101F6D100010101C2
:1012A000136B2551E50801E1E3D025531AE18A0EBD
:1012B000F66E000EF76E0D0E466F000141DC010E5A
:1012C000EA6E150EE96E51DC990EF66E000EF76EA1
:1012D0000E0E0101466F000133DC0B0E016E0101A1
:1012E000D3D130510F0853E125513F0B136F1351E8
:1012F000200DF3500E27000E0F2306500F5D2AE33A
:1013000003E10E51055C26E205C148F1010E496F6B
:1013100000013EDC03C00DF102C00CF101C00BF175
:1013200000C00AF101010A3D09D00B3D07D00C3D78
:1013300005D00D5303E1160E016EA6D105500E5FC8
:1013400006500F5B0E510A270F510B23000E0C2382
:101350000D2308D01351200DF3500A27000E0B2344
:101360000C230D230DC157F10CC156F10BC155F1E2
:101370000AC154F1010E596F250E586F0001F1ECAE
:1013800002F0015205E11F0E016E01017DD1000145
:10139000010E0101476F250E466F010E496F150EB4
:1013A000486F0B0E4A6F000122D6015262E130C134
:1013B00021F1010105513D0DF350476B466F250E9C
:1013C0004625016E000E4721036E0150210FE96E84
:1013D000000E0320EA6E40C1ECFFED523FC1EFFF6B
:1013E0002151100B03E0010E226F01D0226B21511D
:1013F000200B02E121533AE1010E236F05513D0D0F
:10140000F350476B466F2F0E4625016E000E4721A5
:10141000036E0150210FE96E000E0320EA6EEE52BA
:10142000EE5244C1ECFFED5243C1EFFFED5242C119
:10143000EFFFED5241C1EFFF05513D0DF350476BFA
:10144000466F210E4625016E000E4721036E0150A6
:10145000210FE96E000E0320EA6E0AC1EFFF0BC1F7
:10146000ECFF0CC1ECFF0DC1ECFF01D0236B58D099
:101470000001200E01010E27000E0F2306500F5D04
:101480002BE303E10E51055C27E205C148F1010E93
:10149000496F0001C8EC05F003C00DF102C00CF16A
:1014A00001C00BF100C00AF101010A3D09D00B3D5A
:1014B00007D00C3D05D00D5303E1170E016EE4D0AB
:1014C00005500E5F06500F5B0E510A270F510B237C
:1014D000000E0C230D2306D0200E0A27000E0B232E
:1014E0000C230D23200E0A27000E0B230C230D23A3
:1014F0000DC157F10CC156F10BC155F10AC154F1A0
:10150000010E596F250E586F0001F1EC02F00152E7
:1015100005E1200E016E0101B7D00001C0D6010126
:10152000222D11D005C148F1496B0001C8EC05F02E
:1015300003C00DF102C00CF101C00BF100C00AF1B3
:101540000101452BD4D5095306E10851010803E3F5
:101550000C0E016E99D005513D0DF350476B466F4F
:101560002B0E4625016E000E4721036E0150210F00
:10157000016E000E032201C046F103C047F105C110
:1015800048F1496B0001C8EC05F047C1EAFF46C1CC
:10159000E9FF00C0EFFF01C0ECFF02C0ECFF03C099
:1015A000ECFF010105513D0DF350476B466F370EBF
:1015B0004625016E000E4721036E0150210FE96E92
:1015C000000E0320EA6EEE52EE52EC6AED52EF6A24
:1015D000ED52EF6AED52EF6A05513D0DF350476B46
:1015E000466F330E4625016E000E4721036E0150F3
:1015F000210FE96E000E0320EA6EEE52EE52EC6A05
:10160000ED52EF6AED52EF6AED52EF6A05513D0D72
:10161000F350476B466F3B0E4625016E000E472187
:10162000036E0150210FE96E000E0320EA6E08C11F
:10163000EFFF09C1ECFF05513D0DF350476B466FBD
:101640003B0E4625016E000E4721036E0150210F0F
:10165000E96E000E0320EA6EECCF47F1ED52EFCFBA
:1016600046F1556B546B47C153F146C152F100012D
:10167000C6EC02F0015205E10D0E016E010104D02D
:101680000001000E016E01010001DEEF0FF001010B
:101690000851016A075D03E207C100F00CD0006A3F
:1016A000080E096F073700360851005CD8B0006E8D
:1016B0000136092FF7D70001000C015005C107F1D1
:1016C000640E0101086F0001E2DF00C005F1015066
:1016D000300E08E1010106A30ED006B70CD006B902
:1016E000200E04D0010106970699068101260150BB
:1016F0009EA8FED7AD6E05C107F10A0E086F000166
:10170000C6DF00C005F10150300E08E1010106B747
:101710000BD006A109D006B9200E00010126015008
:101720009EA8FED7AD6E0101300E052705519EA87B
:10173000FED7AD6E0001000CEACF0DF1E9CF0CF140
:1017400001010639F009086F0827E20F096F320F0F
:101750000B6F06510F0B092709270B27E90F0A6F9B
:101760000A270A2705390F0B0A270B270A370B37D9
:101770000B1F0B3705510F0B0B270837070E076F91
:101780000A0E0A070B27FDE309070A27FDE30807EE
:101790000927FDE307070827FDE3010EEA6E070EA0
:1017A000E96E070E0C150C9DE9260B0EE95CD8B40A
:1017B0000C8DEF50006E08E10CBD06D00CB90CD0BA
:1017C0000CB702D0200E03D00C870C99300E0026E7
:1017D00000509EA8FED7AD6EEE500CADE6D70001CE
:1017E0001FEF10F0010105513D0DF350116B106F0B
:1017F000370E1025016E000E1121036E0150210FCE
:10180000E96E000E0320EA6EEFCF10F1ECCF11F17C
:10181000ECCF12F1ECCF13F105513D0DF350156BE8
:10182000146F2F0E1425016E000E1521036E01504A
:10183000210FE96E000E0320EA6EEFCF00F0ECCF2F
:1018400001F0ECCF02F0ECCF03F00350135D0FE397
:101850000BE10250125D0BE307E10150115D07E35C
:1018600003E10050105D03E30A0E016E9AD20551A8
:101870003D0DF350116B106F370E1025016E000EE9
:101880001121036E0150210FE96E000E0320EA6E54
:10189000EFCF10F1ECCF11F1ECCF12F1ECCF13F14F
:1018A00005513D0DF350156B146F3B0E1425016E61
:1018B000000E1521036E0150210FE96E000E03206A
:1018C000EA6EECCF03F0ED52EFCF00F003C001F071
:1018D000026A036A0050102701501123025012239C
:1018E0000350132305513D0DF350156B146F330E48
:1018F0001425016E000E1521036E0150210FE96EB3
:10190000000E0320EA6EEFCF14F1ECCF15F1ECCF0F
:1019100016F1ECCF17F105C000F006C001F0026A25
:10192000036A145100261551012216510222175143
:1019300003220350135DD8A08CD00EE10250125D3B
:10194000D8A087D009E10150115DD8A082D004E170
:101950001051005CD8B07DD005C148F1010E496F2F
:101960000001C8EC05F003C00FF102C00EF101C088
:101970000DF100C00CF101010C3D07D00D3D05D06B
:101980000E3D03D00F3D01D01AD005513D0DF3504F
:10199000116B106F2B0E1025016E000E1121036EBE
:1019A0000150210FE96E000E0320EA6E0CC1EFFF1B
:1019B0000DC1ECFF0EC1ECFF0FC1ECFF03D00B0E0D
:1019C000016EEFD105513D0DF350116B106F330EC9
:1019D0001025016E000E1121036E0150210F016EC2
:1019E000000E032201C010F103C011F105513D0D9D
:1019F000F350136B126F330E1225016E000E13217C
:101A0000036E0150210FE96E000E0320EA6EEFCF46
:101A100012F1ECCF13F1ECCF14F1ECCF15F105C0BE
:101A200000F006C001F0026A036A12510026135149
:101A30000122145102221551032211C1EAFF10C1E3
:101A4000E9FF00C0EFFF01C0ECFF02C0ECFF03C0E4
:101A5000ECFF05513D0DF350116B106F2B0E10254F
:101A6000016E000E1121036E0150210FE96E000E70
:101A70000320EA6EEFCF10F1ECCF11F1ECCF12F1B1
:101A8000ECCF13F105513D0DF350156B146F370E6C
:101A90001425016E000E1521036E0150210FE96E11
:101AA000000E0320EA6EEFCF00F0ECCF01F0ECCF98
:101AB00002F0ECCF03F00050102701501123025028
:101AC00012230350132305513D0DF350156B146F72
:101AD000330E1425016E000E1521036E0150210FE7
:101AE000E96E000E0320EA6EEFCF00F0ECCF01F0BC
:101AF000ECCF02F0ECCF03F00050105D086F015006
:101B00001159096F025012590A6F035013590B6F84
:101B10000BC157F10AC156F109C155F108C154F181
:101B200007C159F106C158F10001F1EC02F0015270
:101B300004E10C0E016E010134D1010105513D0D8E
:101B4000F350116B106F370E1025016E000E11212E
:101B5000036E0150210FE96E000E0320EA6EEFCFF5
:101B600010F1ECCF11F1ECCF12F1ECCF13F10551E4
:101B70003D0DF350156B146F3B0E1425016E000ED6
:101B80001521036E0150210FE96E000E0320EA6E4D
:101B9000ECCF03F0ED52EF50102703501123000E4D
:101BA0001223132305513D0DF350156B146F2F0EA7
:101BB0001425016E000E1521036E0150210FE96EF0
:101BC000000E0320EA6EEFCF00F0ECCF01F0ECCF77
:101BD00002F0ECCF03F01351035C64E30BE112510C
:101BE000025C60E307E11151015C5CE303E100503A
:101BF000105D58E205513D0DF350116B106F370E1B
:101C00001025016E000E1121036E0150210F016E8F
:101C1000000E032201C010F103C011F105513D0D6A
:101C2000F350136B126F370E1225016E000E132145
:101C3000036E0150210FE96E000E0320EA6EEFCF14
:101C400012F1ECCF13F1ECCF14F1ECCF15F10551FB
:101C50003D0DF350176B166F3B0E1625016E000EEF
:101C60001721036E0150210FE96E000E0320EA6E6A
:101C7000ECCF03F0ED52EF501225006E035013210C
:101C8000016E000E1421026E000E152111C1EAFF33
:101C900010C1E9FF00C0EFFF01C0ECFF02C0ECFF84
:101CA000EC6E7DD005513D0DF350116B106F2F0E72
:101CB0001025016E000E1121036E0150210FE96EF7
:101CC000000E0320EA6EEFCF10F1ECCF11F1ECCF54
:101CD00012F1ECCF13F105513D0DF350156B146F5C
:101CE000370E1425016E000E1521036E0150210FD1
:101CF000E96E000E0320EA6EEFCF00F0ECCF01F0AA
:101D0000ECCF02F0ECCF03F00050105F0150115BFC
:101D10000250125B0350135B06511025E96E075108
:101D20001121EA6EEF6A05513D0DF350116B106FF2
:101D3000370E1025016E000E1121036E0150210F88
:101D4000016E000E032201C010F103C011F1055114
:101D50003D0DF350136B126F2F0E1225016E000E06
:101D60001321036E0150210FE96E000E0320EA6E6D
:101D7000EFCF00F0ECCF01F0ECCF02F0ECCF03F0AE
:101D800011C1EAFF10C1E9FF00C0EFFF01C0ECFF85
:101D900002C0ECFF03C0ECFFFF0E016E02D0000E8C
:101DA000016E000133EF10F0006A016A026A036AF3
:101DB0000101196B1A6B1B6B1C6B18511711161153
:101DC00015112CE0200E1D6FD890113712371337E4
:101DD000143719371A371B371C3718511C5D08E1A7
:101DE00017511B5D05E116511A5D02E11551195D90
:101DF0000FE31551195F1651D8A0163D1A5F175100
:101E0000D8A0173D1B5F1851D8A0183D1C5FD88083
:101E100000360136023603361D2FD6D7010EEA6E84
:101E2000190EE96E0001000CE9500101096F3B0E2B
:101E3000106F9A0E0F6FCA0E0E6F0D6B0A0E0B6F9E
:101E400008C114F107C113F106C112F105C111F166
:101E500010C118F10FC117F10EC116F10DC115F126
:101E60000001A2DF0150EFCF05F1ECCF06F1ECCF7E
:101E700007F1ECCF08F1005213E101010B51010A07
:101E8000D8A402D000010CD009510CE00F0B0B5D5F
:101E900001E00EE209BF0CD009BD04D0200E03D032
:101EA0000101096B300E002600509EA8FED7AD6ED2
:101EB00010C114F10FC113F10EC112F10DC111F1D6
:101EC000186B176B166B0A0E156F00016DDF03C0E0
:101ED00010F102C00FF101C00EF100C00DF10101BF
:101EE0000B2FAED7000174EF10F0CC0EF66E000E83
:101EF000F76E6AEC02F00D0E9EA8FED7AD6E0A0ECC
:101F00009EA8FED7AD6E040E0101056FFA0E3E6F5E
:101F100000011DEC01F00101052FF8D7F40EF66E5B
:101F2000000EF76E00016AEC02F00D0E9EA8FED7BF
:101F3000AD6E0A0E9EA8FED7AD6E0C0E0101056FA8
:101F4000FA0E3E6F00011DEC01F00101052FF8D7DC
:101F50000001E36B0101046B00019E6B9D6B0A0E97
:101F60000101056F0001B8EF03F001C09BF09B5326
:101F700001E0A5D01A0EF66E010EF76E6AEC02F0C3
:101F8000A26B200EA16FEA6AA30EE96E000E0CECA4
:101F900000F00A000900F550EE6E0009FBE1A26BAB
:101FA000200EA16F0101056B076BA30E066FA2C087
:101FB00009F1A1C008F1000140EF08F001C09CF058
:101FC0009C531CE0300EF66E010EF76E1B0E0101E5
:101FD000466F0001A0EC05F09BC005F11B0E01014E
:101FE000066F00015DEC0BF00A0E9EA8FED7AD6EE9
:101FF0000D0E9EA8FED7AD6E62D02DD0500EF66E9F
:10200000010EF76E140E0101466F0001A0EC05F001
:10201000EA6AA30EE96EB5EC05F0660EF66E010EE7
:10202000F76E0F0E0101466F0001A0EC05F0100ED7
:10203000E96EA2C006F1A1C005F19CEF0BF0200EE5
:102040009EA8FED7AD6E0A0E9EA8FED7AD6E0D0EF1
:102050009EA8FED7AD6E0101056B076BC30E066F20
:102060000001F2EF0BF001C09CF09C531EE09C3D80
:1020700001D01BD07C0EF66E010EF76E180E01011A
:10208000466F0001A0EC05F09CC005F11B0E01019C
:10209000066F00015DEC0BF00A0E9EA8FED7AD6E38
:1020A0000D0E9EA8FED7AD6E0AD0EA6AC30EE96E89
:1020B000B5EC05F09D2BD8B49E2B9C53CCE09A0E2A
:1020C000F66E010EF76E140E0101466F0001A0ECD2
:1020D00005F0410EE96E1AC008F119C007F118C0E9
:1020E00006F117C005F1A0D6200E9EA8FED7AD6E52
:1020F0000A0E9EA8FED7AD6E0D0E9EA8FED7AD6E41
:10210000A1EF10F0F86AD09EEA6AE96AB886560E26
:10211000AF6E000EB06EA60EAC6E900EAB6E9584D8
:10212000959295908C9095968C961F6A010E206ED4
:10213000C150C00B0F09C16E070EB46E3DEF02F027
:06214000D4D6FFD7030016
:020000040030CA
:0E0000003FCC3E1E008781000FC00FE00F4076
:00000001FF
;PIC18F4550
;CRC=2753  CREATED="08-mai-12 15:41"
