:1000000054EF33F00D0A2D2D25732D2D00000D0A10
:100010000D0A202020202020202020000D0A0D0A7B
:100020002D2D4641542053746174732D2D0D0A00FB
:1000300046697273742046415420737461727473FC
:100040002061743A203078256C580D0A0000446114
:100050007461205374617274732041743A20307853
:10006000256C580D0A00526F6F74204469726563E5
:10007000746F72792049732041743A203078256C6E
:10008000580D0A0042797465732050657220436CE4
:1000900075737465723A203078256C580D0A00002B
:1000A0000D0A0D0A2D2D000020496E666F2D2D00C2
:1000B0000D0A417474726962757465733A20307800
:1000C000255800000D0A437265617465643A20008A
:1000D0000D0A4D6F6469666965643A2000000D0A77
:1000E0005374617274696E6720636C7573746572A2
:1000F0003A20256C58000D0A5374617274696E675A
:1001000020616464726573733A20256C58000D0A8F
:1001100053697A653A20256C752042797465730DB0
:100120000A000D0A44656C6574696E6720272573A3
:10013000273A20004572726F722064656C6574699D
:100140006E672066696C65000D0A4D616B696E67AC
:100150002066696C6520272573273A2000004572C8
:10016000726F72206372656174696E672066696C74
:1001700065000D0A417070656E64696E6720272501
:10018000732720746F20272573273A2000004572BB
:10019000726F72206F70656E696E672066696C653C
:1001A00000004572726F7220636C6F73696E672016
:1001B00066696C6500000D0A4572726F7220636893
:1001C000616E67696E67206469726563746F7279C6
:1001D00000000D0A4D616B696E672064697265638A
:1001E000746F727920272573273A20004572726F49
:1001F00072206372656174696E67206469726563F9
:10020000746F727900000D0A52656D6F76696E67C2
:10021000206469726563746F727920272573273AA9
:1002200020004572726F722072656D6F76696E671D
:10023000206469726563746F727900000D0A4572FB
:10024000726F72206F70656E696E672066696C658B
:1002500000000D0A466F726D617474696E67206DDF
:1002600065646961202873697A653D254C55293A92
:1002700020004572726F7220666F726D61747469CE
:100280006E67206D6564696100000D0A4641542067
:100290005368656C6C2048656C7000000D0A206422
:1002A000656C2066696C656E616D65202D2D2D2055
:1002B00044656C65746573207468652066696C6557
:1002C00000000D0A206D616B652066696C656E61CA
:1002D0006D65202D2D2D204372656174657320613D
:1002E0006E20656D7074792066696C6500000D0A7A
:1002F00020617070656E642066696C656E616D6505
:1003000020737472696E67202D2D2D2041707065E9
:100310006E647320737472696E6720746F207468E2
:100320006520656E64206F66207468652066696C60
:1003300065000D0A20636420646972202D2D2D2034
:100340004368616E67652074686520776F726B69BA
:100350006E67206469726563746F727900000D0ABC
:1003600020646972202D2D2D2053686F77732074BF
:10037000686520636F6E74656E7473206F66207499
:100380006865206469726563746F727900000D0A94
:10039000206361742066696C656E616D65202D2D2A
:1003A0002D20446973706C61797320636F6E74657E
:1003B0006E74206F662066696C6500000D0A2074FB
:1003C00061696C2066696C656E616D65202D2D2DEF
:1003D00020446973706C61797320746865206C6166
:1003E000737420383020636861726163746572735E
:1003F000206F662066696C6500000D0A206D6B64D5
:10040000697220646972202D2D2D204372656174FC
:10041000652061206469726563746F7279000D0AEA
:1004200020726D64697220646972202D2D2D204424
:10043000656C6574657320746865206469726563B2
:10044000746F727900000D0A20666F726D617420FE
:1004500073697A65202D2D2D20466F726D61742091
:10046000636172642E2020284578616D706C653A56
:100470002027666F726D617420353532343238381A
:100480002720666F726D6174732061203531324DA3
:1004900042206361726429000D0A2068656C70094E
:1004A000596F7520617265206865726500000D0ADC
:1004B0000A20507574206120706172616D657465E9
:1004C0007220696E2071756F74657320696620698A
:1004D00074206861732073706163657300000D0A96
:1004E0000A4552524F5220494E495449414C495AAB
:1004F000494E47204641540D0A0A00000D0A556E28
:100500006B6F776E20436F6D6D616E64202725736E
:1005100027000601FF51080808E00701006F0601E7
:10052000FE370701002FFBD706018C90FFC600F7AE
:10053000FEAF8C92FEBF8C82FE378C80013683A486
:10054000019083B401808C900701002F01D002D06C
:100550000601EED70001000CFF0E0601FE6F080E2B
:10056000FF6F0001D6DF8C86000C060EEA6E070EC8
:10057000E96EEF500DE0060E016E006A002EFED708
:10058000012EFBD77B0E006E002EFED7EF2EF3D789
:10059000000C8C96000C0701046B016B0051015D8F
:1005A00020E2FEC6E9FFFFC6EAFFEFCF03F707012F
:1005B000026B025107080CE3D89004370351041969
:1005C000800B02E0090E041BD8900337022BF1D7F1
:1005D000049F0151012B0601FE2BD8B4FF2B07010C
:1005E000DDD7D880043704C701F0000111EF03F014
:1005F0000601F3514009F86FF7C6F9F6F6C6FAF6A8
:10060000F5C6FBF6F4C6FCF602010BA10DD0060EF2
:100610000601FF6FF80EFE6F050E0701006F000167
:10062000BAD701C0FDF603D0FF0E0601FD6FF8C674
:10063000FEF6080E0601FF6F00016BDFF9C6FEF63D
:10064000080E0601FF6F000164DFFAC6FEF6080E11
:100650000601FF6F00015DDFFBC6FEF6080E060116
:10066000FF6F000156DFFCC6FEF6080E0601FF6FA5
:1006700000014FDFFDC6FEF6080E0601FF6F000108
:1006800048DF000E016E000C0601F36BFF0EF46FE5
:10069000F45312E0FF0EFE6F080EFF6F000139DF0A
:1006A000015001C0F3F60601F33D01D003D0F3C6BB
:1006B00001F004D0F407ECD7800E016E0001000CAD
:1006C0000601F36BF76BF66BF56BF46B000190DFD3
:1006D000DBDF015038EF05F0010E0601F36FF76B19
:1006E000F66BF56BF46B000183DFCEDF01504EEF4C
:1006F00005F0370E0601F36FF76BF66BF56BF46BD5
:10070000000176DFC1DF015060EF05F0290E060120
:10071000F36FF76BF66BF56BF46B000169DFB4DF19
:10072000015063EF05F0100E0601F36F0AC6F7F6ED
:1007300009C6F6F608C6F5F607C6F4F6000158DF56
:10074000A3DF015079EF05F03B0E0601F36FF76B65
:10075000F66BF56B07C6F4F600014ADF02010B9158
:10076000060107A103D002010B81060100018CDF05
:1007700001508BEF05F0110E0601F36FF2C6F7F68C
:10078000F1C6F6F6F0C6F5F6EFC6F4F6000130DF76
:100790007BDF01501EEF04F077DF01C0F0F60601A9
:1007A000EF51F05D03E1000E016E02D0F0C601F0E2
:1007B00000012DEF04F00601FA6BF96BF66BF551B1
:1007C000F65D29E2F3C6E9FFF4C6EAFFEFCFF8F6DB
:1007D000F76BF751070818E3D890F937FA37F85153
:1007E000F919FB6FFA51FC6F000B006EFC51800B86
:1007F000036E0050031004E0210EF91B100EFA1BCB
:10080000D890F837F72BE5D7FA9FF651F62BF32B54
:10081000D8B4F42BD4D7D880F937FA37F9C601F019
:10082000FAC602F00001000CB4DEE7C6F2F6E6C636
:10083000F1F6E5C6F0F6E4C6EFF69DD701C0ECF69A
:100840000601EC5306E0000187DE0601ECC601F06C
:1008500073D0FE0EEF6F00019FD701C0ECF60601CA
:10086000EC5306E0000178DE0601ECC601F064D02E
:10087000EE6BED6BEE51E95D19E303E1E851ED5DDF
:1008800015E2EA51ED25E96EEB51EE21EA6EFF0E1D
:10089000FE6F080EFF6F00013CDE015001C0EFFF4C
:1008A000010E0601ED27000EEE23E4D702010BA195
:1008B00030D0FF0E0601FE6F080EFF6F000129DE2B
:1008C000015001C0EFF6FF0E0601FE6F080EFF6F2C
:1008D00000011FDE015001C0F0F6EFC6F2F601C0C4
:1008E000F1F60601F46B0B0EF36FF56B000163DF9D
:1008F00002C003F001500601F15D03E10350F25D17
:1009000006E0000129DE080E016E060115D00FD0A9
:100910000201FF0E0601FE6F080EFF6F0001F9DDF8
:10092000FF0E0601FE6F080EFF6F0001F2DD0001F1
:1009300013DE000E016E06010001B2EF04F00201A9
:100940000B930FC2E7F60EC2E6F60DC2E5F60CC237
:10095000E4F6020E0601E96FE86BEB6B0B0EEA6F33
:10096000000162D70150000C0B0E06010725E96E4D
:10097000000E0821EA6EEF5080085FE1040E0725A3
:100980000A6F000E08210B6F0B0E0A25E96E000E90
:100990000B21EA6EEFCF09F60951040806E0095170
:1009A000060803E009510B0848E10B0E07250A6F02
:1009B000000E08210B6F0B0E0A25E96E000E0B21AD
:1009C000EA6EEFCF0AF60A0E07250B6F000E08211C
:1009D0000C6F0B0E0B25E96E000E0C21EA6EEFCFAB
:1009E0000BF6090E07250C6F000E08210D6F0B0E7C
:1009F0000C25E96E000E0D21EA6EEFCF0CF6080E05
:100A000007250D6F000E08210E6F0B0E0D25E96EE8
:100A1000000E0E21EA6EEFCF0DF6D8900201106B9A
:100A200006010D350201116F06010C350201126F2E
:100A300006010B350201136F06010001000C0201D3
:100A40000B810F6B0E6B0D6B0C6B959095929596C1
:100A50009584000181DD0F0E0601076F000185DD21
:100A60000601056B010E076F00017FDD92DD28D6C0
:100A700001C006F671DD0601052B053D06D000011B
:100A80006BDD060106C601F07AD006A1EBD7056B37
:100A9000010E076F000169DD7CDD1ED601C006F680
:100AA0005BDD0601052B053D06D0000155DD060185
:100AB00006C601F064D006B1EBD700016ADD19D695
:100AC00001C006F623D601C006F646DD0601065132
:100AD000040803E102010B8502D002010B9500011D
:100AE00058DD06010A6B096B020E086F076B0001E7
:100AF0001AD601C006F60601065306E000012CDDF9
:100B0000060106C601F03BD0000126DD42DD0601EC
:100B1000076B000119D601C006F60601065306E070
:100B200000011ADD060106C601F029D0000114DD1E
:100B300006DF01C006F60201136B126B116B106B1E
:100B4000010E0601086FEE0E076F00010DDF010EAA
:100B50000601086FDE0E076F000106DF010E0601B9
:100B6000086FCE0E076F0001FFDE010E0601086F51
:100B7000BE0E076F0001F8DE060106C601F0000197
:100B8000B6EF07F0180E0601F36FF2C6F7F6F1C6DE
:100B9000F6F6F0C6F5F6EFC6F4F6000129DD74DDD1
:100BA0000150DDEF05F0F5DCE7C6F2F6E6C6F1F63A
:100BB000E5C6F0F6E4C6EFF6E5D701C0ECF60601AF
:100BC000EC5306E00001C8DC0601ECC601F066D07B
:100BD000FE0EFE6F080EFF6F00019BDC0601EE6B40
:100BE000ED6BEE51E95D18E303E1E851ED5D14E2D0
:100BF000EA51ED25E96EEB51EE21EA6EEFCFEFF60B
:100C0000EFC6FEF6080EFF6F000183DC010E060141
:100C1000ED27000EEE23E5D702010BA115D0EBC6A0
:100C2000F4F6EAC6F3F6E8C6F5F60001C4DD02C044
:100C3000F0F601C0EFF601C0FEF6080E0601FF6FE8
:100C4000000167DC0FD00201FF0E0601FE6F080EE7
:100C5000FF6F00015EDCFF0E0601FE6F080EFF6FE6
:100C6000000157DC11DD01C0ECF60601EC510A0B66
:100C700006E0000171DC0601ECC601F00FD0FF0EAA
:100C8000FE6F080EFF6F000144DC0150D8A402D0B3
:100C90000601F5D761DC000E016E0601000166EF6A
:100CA00006F002010BA315D00B930FC2E7F60EC29C
:100CB000E6F60DC2E5F60CC2E4F6020E0601E96F97
:100CC000E86BEB6B0B0EEA6F00016DD7015003D0A0
:100CD0000201000E016E0001000C0601DF6BDC5109
:100CE000010B016E026A036ADB51DB5DE06F0150AC
:100CF000DC59E16F0250DD59E26F0350DE59E36FBA
:100D0000020110510601E027020111510601E12301
:100D1000020112510601E223020113510601E323ED
:100D2000E05102010C5D0FE10601E15102010D5D90
:100D30000AE10601E25102010E5D05E10601E351FF
:100D400002010F5D1AE00BA30CD00001AADF01C065
:100D5000DFF60601DF5303E0DFC601F011D0020128
:100D60000B93E3C60FF2E2C60EF2E1C60DF2E0C647
:100D70000CF20001E4DD01C0DFF60601DFC601F080
:100D80000001000CBEC6DEF6BDC6DDF6BCC6DCF654
:100D9000BBC6DBF6A2DF01C0C1F60601C15303E00A
:100DA000C1C601F015D0BC51010BC56FC66BC76B36
:100DB0000B0EBB25E96E000EC521EA6EEFCFC4F61F
:100DC000C0C6EAFFBFC6E9FFC4C6EFFF000E016E52
:100DD000000123EF07F00601B46BB36BB451AF5DB4
:100DE0003EE303E1AE51B35D3AE2ADC603F0ACC6FB
:100DF00002F0ABC601F0AAC600F0010EAA27D8B0D7
:100E0000AB2BD8B4AC2BD8B4AD2B03C0B8F602C012
:100E1000B7F601C0B6F600C0B5F6B1C603F0B051E2
:100E2000B02BD8B4B12BB96F03C0BAF6B8C6BEF6B2
:100E300002C0BDF601C0BCF600C0BBF603C0C0F6E0
:100E4000BF6F00019FD701C0B2F60601B25303E0A5
:100E5000B2C601F006D0B32BD8B4B42BBFD7000E66
:100E6000016E0001000C060105510703F3CF01F0EC
:100E7000F4CF00F00803F350002606510703F350A7
:100E80000020026E0001000C0601D16BD26B010E36
:100E9000D36FDA6AD96A060ED66FC90ED56F060E01
:100EA000EA6ECD0EE96ED6C6E2FFD5C6E1FFD3C627
:100EB000D4F6D890E550EE02F350D123F450D2236B
:100EC000D42FF7D7D1C6DEFFD2C6D1F6D26BD8B0B9
:100ED000D22BD52BD8B4D62BD32BD3510508DFE199
:100EE0000001000C006A016A026A036A0601AA6B2B
:100EF000AB6BAC6BAD6BA951A811A711A6112CE07F
:100F0000200EAE6FD890A237A337A437A537AA37E3
:100F1000AB37AC37AD37A951AD5D08E1A851AC5D39
:100F200005E1A751AB5D02E1A651AA5D0FE3A65111
:100F3000AA5FA751D8A0A73DAB5FA851D8A0A83DF4
:100F4000AC5FA951D8A0A93DAD5FD880003601366D
:100F500002360336AE2FD6D7060EEA6EAA0EE96E1B
:100F60000001000C0501F06B000169D5015005017D
:100F7000F0270601AD6BAC6BAB6B0B0EAA6FAF6BC2
:100F8000020EAE6F050EB16FF30EB06F000123DFDE
:100F900001500501F0270601AD6BAC6BAB6B0D0E7C
:100FA000AA6FAF6B010EAE6F050EB16FF20EB06F90
:100FB000000111DF01500501F0270601AD6BAC6B9C
:100FC000AB6B0E0EAA6FAF6B020EAE6F050EB16F5C
:100FD000F50EB06F0001FFDE01500501F02706019C
:100FE000AD6BAC6BAB6B100EAA6FAF6B010EAE6F3F
:100FF000050EB16FF10EB06F0001EDDE015005017D
:10100000F0270601AD6BAC6BAB6B110EAA6FAF6B2B
:10101000020EAE6F060EB16F010EB06F0001DBDE87
:1010200001500501F0270601AD6BAC6BAB6B130EE5
:10103000AA6FAF6B020EAE6F050EB16FF70EB06FF9
:101040000001C9DE01500501F0270601AD6BAC6B54
:10105000AB6B160EAA6FAF6B020EAE6F060EB16FC2
:10106000030EB06F0001B7DE01500501F027060145
:10107000AD6BAC6BAB6B1C0EAA6FAF6B040EAE6F9F
:10108000050EB16FF90EB06F0001A5DE015005012C
:10109000F0270601AD6BAC6BAB6B200EAA6FAF6B8C
:1010A000040EAE6F050EB16FFD0EB06F000193DE42
:1010B00001500501F0270201236B226B216B020E08
:1010C000206F0501F05303E0FF0E016ED0D0060142
:1010D000066BF2C505F6F4C508F6F3C507F6000180
:1010E000C2DE02C015F201C014F2F3C500F0F4C56F
:1010F00001F0026A036A03C008F602C007F6F4C5ED
:1011000006F6F3C505F60601CC6BCB6B04C6CAF632
:1011100003C6C9F603C0D0F602C0CFF6F4C5CEF6BA
:10112000F3C5CDF60001B0DE03C01FF202C01EF20F
:1011300001C01DF200C01CF2F6C506F6F5C505F6A5
:10114000F4C508F6F3C507F68EDE02C017F201C03B
:1011500016F20601CC6BCB6BCA6BF1C5C9F61FC288
:10116000D0F61EC2CFF61DC2CEF61CC2CDF60001CF
:101170008BDE005002011625246F01501721256FC8
:10118000000E0220266F000E0320276F0601013596
:10119000056F0235066F0537063705370637053701
:1011A000063705370637E00E0517010E0501F35D1A
:1011B000006E000EF459036E005006010525020171
:1011C000186F0350060106210201196F1A6B1B6B81
:1011D0001BC2A5F61AC2A4F619C2A3F618C2A2F63B
:1011E0000601A96BA86BF4C5A7F6F3C5A6F6000126
:1011F00079DE03C01BF202C01AF201C019F200C06E
:1012000018F20601066BF1C505F604C608F603C61A
:1012100007F6000128DE02C003F001500501F525A4
:10122000016EF651032201500201182703501923C1
:10123000000E1A231B231BC2CCF61AC2CBF619C20E
:10124000CAF618C2C9F60601D06BCF6BF4C5CEF64C
:10125000F3C5CDF6000118DE03C01BF202C01AF27E
:1012600001C019F200C018F2000E016E0501000164
:10127000000C0900F5520DE0F6CFA6F5F7CFA7F563
:10128000F5509EA8FED7AD6EA6C5F6FFA7C5F7FF21
:10129000F0D7000CEF5210E0EACFC6F5E9CFC5F564
:1012A000EF509EA8FED7AD6EC6C5EAFFC5C5E9FFE3
:1012B000E92AD8B4EA2AEED7000C0D0E9EA8FED774
:1012C000AD6E0A0E9EA8FED7AD6E0A0E9EA8FED782
:1012D000AD6E020EEA6E2A0EE96EDCDF3E0E9EA8AF
:1012E000FED7AD6E200E9EA8FED7AD6E18EF34F07F
:1012F0009EAAFED7ABCF04F0AECF01F004A202D07D
:10130000AB98AB8827EF34F09EA8FED7AD6E000CEB
:101310007AC57EF579C57DF57EC503F005017DC5ED
:10132000E9FF7EC5EAFFEF5230E07CC580F57BC562
:101330007FF580C503F07FC5E9FF80C5EAFFEF5266
:101340000AE179517D5D006E7A517E59036E00C0CD
:1013500001F023D010D07DC5E9FF7EC5EAFFEFCFB5
:1013600081F580C503F07FC5E9FF80C5EAFFEF5036
:10137000815D01E104D07F2BD8B4802BDAD77D2B9F
:10138000D8B47E2B0001C8D7050179517D5D006E70
:101390007A517E59036E00C001F0000125EF0AF07A
:1013A0007AC57EF579C57DF57EC503F005017DC55D
:1013B000E9FF7EC5EAFFEF522AE07CC580F57BC5D8
:1013C0007FF580C503F07FC5E9FF80C5EAFFEF52D6
:1013D00018E07DC5E9FF7EC5EAFFEFCF81F580C546
:1013E00003F07FC5E9FF80C5EAFFEF50815D05E1AD
:1013F0007DC501F07EC502F00DD07F2BD8B4802BC7
:10140000E0D77D2BD8B47E2B0001CED70501000E8E
:10141000016E026E000146EF0AF005017151721172
:1014200004E072C503F0715103D006C003F005500B
:10143000756F03C076F576C57AF575C579F574C50F
:101440007CF573C57BF5000163D701500501752755
:10145000000E762376C503F075C5E9FF76C5EAFF71
:10146000EF520AE105C0E9FF06C0EAFF200EEF6E69
:10147000000E016E026E27D076C57AF575C579F536
:1014800074C57CF573C57BF500018AD702C078F579
:1014900001C077F578C503F0050177C5E9FF78C588
:1014A000EAFFEF5208E077C5E9FF78C5EAFFEF6A87
:1014B000772BD8B4782B78C506F077C505F075C5BD
:1014C00001F076C502F00001000C200E0501676FE7
:1014D0000D0E686F0A0E696F6A6B66C572F565C599
:1014E00071F5050E746F670E736F000196DF025081
:1014F00072EF34F05EC660F65DC65FF660C603F05C
:1015000006015FC6E9FF60C6EAFFEF5206E05F2B07
:10151000D8B4602B0001F2D706015D515F5D006E0B
:101520005E516059036E00C001F00001000C200EF6
:101530000501696F0D0E6A6F0A0E6B6F6C6B220EE0
:101540006D6F0D0E6E6F0A0E6F6F706B68C503F0D6
:1015500067C5E9FF68C5EAFFEF50200804E1672B83
:10156000D8B4682BF3D768C503F067C5E9FF68C531
:10157000EAFFEF5022080EE168C572F567C571F504
:10158000050E746F6D0E736F000147DF02500ED0B1
:101590000DD0050168C572F567C571F5050E746F4C
:1015A000690E736F000139DF025000D0000CA8C52E
:1015B000ACF5A7C5ABF5ACC503F00501ABC5E9FFBC
:1015C000ACC5EAFFEF5206E0AB2BD8B4AC2B000160
:1015D000F2D70501AAC503F0A9C5E9FFAAC5EAFF2C
:1015E000EF5213E0A9C5E9FFAAC5EAFFEFCFAFF5B7
:1015F000ACC5EAFFABC5E9FFAFC5EFFFAB2BD8B475
:10160000AC2BA92BD8B4AA2BE5D7ABC5E9FFACC549
:10161000EAFFEF6AA7C501F0A8C502F00001000CBF
:10162000050172C5E9FF73C5EAFFEFCF76F575C511
:1016300003F074C5E9FF75C5EAFFEF50765D48E039
:1016400073C503F072C5E9FF73C5EAFFEFCF76F506
:101650007651400803E276515A0806E27651600856
:101660004CE276517A0849E375C503F074C5E9FF89
:1016700075C5EAFFEFCF76F57651400803E2765163
:101680005A0806E27651600838E276517A0835E366
:1016900072C5E9FF73C5EAFFEFCF76F575C503F0B4
:1016A00074C5E9FF75C5EAFF200EEF24765D10E0F2
:1016B00074C5E9FF75C5EAFFEFCF76F573C503F092
:1016C00072C5E9FF73C5EAFF200EEF24765D15E1D0
:1016D00073C503F072C5E9FF73C5EAFFEF5203E17A
:1016E000000E016E1FD073C503F07251722BD8B477
:1016F000732B742BD8B4752B94D773C503F072C5B4
:10170000E9FF73C5EAFFEFCF76F575C503F074C541
:10171000E9FF75C5EAFFEF50765D02E2FF0E01D0EA
:10172000010E016E0001B9EF0BF00501716B7151F3
:101730000A0829E371510A0DF350736B726FF20EB0
:101740007227020E7323050EEA6E670EE96E73C5EB
:10175000E2FF72C5E1FFE752E6CFEEFFFCE1050EC6
:10176000736F670E726F66C575F565C574F5000118
:1017700057D7015205E1050171C501F006D00001FE
:101780000501712BD4D7FF0E016E0001ECEF34F090
:101790000900F6CFC6F5F7CFC7F5F5509EA8FED7DE
:1017A000AD6EC6C5F6FFC7C5F7FF0501C52F01D051
:1017B00002D00001EDD70001000C0601946B936B81
:1017C00093510A084BE393518B25956F000E8C21A2
:1017D000966F000E8D21976F000E8E21986FAD6F62
:1017E00097C6ACF696C6ABF695C6AAF6AF6B010ED9
:1017F000AE6F060EB16F920EB06F0001EBEC06F00B
:10180000015203E0FF0E016E3FD006019251200805
:1018100023E0935108080DE1915110080AE094511A
:10182000942B036A8F25E96E90510320EA6E2E0EE9
:10183000EF6E9451942B036A8F25E96E905103202B
:10184000EA6E9251400806E292515A0803E392511F
:10185000200901D09251EF6E932BB2D7010E945D07
:10186000036A8F25E96E90510320EA6EEF502E082F
:10187000D8B49407036A94518F25E96E90510320E0
:10188000EA6EEF6A000E016E000165EF0EF00601D0
:101890009D5102011B5D19E314E106019C510201F7
:1018A0001A5D13E30EE106019B510201195D0DE380
:1018B00008E1185106019A5DD8A002D0020105D0B6
:1018C0000201000E016E026E3DD0185106019A5DB4
:1018D0009E6F0201195106019B599F6F02011A5117
:1018E00006019C59A06F02011B5106019D59A16F71
:1018F000A56FA0C6A4F69FC6A3F69EC6A2F6A96BC6
:10190000A86B15C2A7F614C2A6F6000172EC07F088
:1019100003C0A1F602C0A0F601C09FF600C09EF66B
:10192000020E06010024006E000E0120016E000E62
:101930000220026E000E0320036E01C002F000C000
:1019400001F002010001000C06019C6B010E9B6F6F
:101950009E6B9D6B99C6E9FF9AC6EAFFECCF03F038
:10196000ED52EF509D5D03E103509E5D28E0010EB6
:101970009B27000E9C23D8909B35A06F9C35A16FB0
:10198000020116510601A027020117510601A123E9
:10199000AD6BAC6BA1C6ABF6A0C6AAF6AF6B020EE0
:1019A000AE6F060EB16F9D0EB06F0001EBEC06F04E
:1019B000015203E0FF0E016E0DD00601CBD799C690
:1019C000E9FF9AC6EAFF9CC6ECFFED529BC6EFFF0B
:1019D000000E016E0001B4EF0DF00601C25308E1E4
:1019E000C151010805E3006A016A026A036A29D04D
:1019F000C66BC56B15C2C4F614C2C3F6020EC15D38
:101A0000006E000EC259036E00C0C7F6C86FC6C68E
:101A1000CCF6C5C6CBF615C2CAF614C2C9F6D06B51
:101A2000CF6BCE6F00C0CDF6000144EC07F0020191
:101A300018510026195101221A5102221B5103226A
:101A400006010001000C060191C6E9FF92C6EAFFFB
:101A5000EFCF00F0ECCF01F0ECCF02F0ECCF03F0D1
:101A600003C096F602C095F601C094F600C093F646
:101A700096510201275D15E311E10601955102011E
:101A8000265D0FE30BE1060194510201255D09E398
:101A900005E1060193510201245D03E3000E016E8E
:101AA00099D01B510601965DD8A07BD013E10201AD
:101AB0001A510601955DD8A074D00CE102011951AC
:101AC0000601945DD8A06DD005E102011851060110
:101AD000935D67E3020118510601935D996F02015E
:101AE0001951060194599A6F02011A51060195592C
:101AF0009B6F02011B51060196599C6FA56F9BC6F7
:101B0000A4F69AC6A3F699C6A2F6A96BA86B15C24D
:101B1000A7F614C2A6F6000172EC07F0EFCF99F613
:101B2000ECCF9AF6ECCF9BF6ECCF9CF606019953DE
:101B300038E19A5336E19B5334E19C5332E196C627
:101B40009DF695C69CF694C69BF693C69AF6000140
:101B50009EDE02C098F601C097F6060E06019A6F47
:101B6000970E996F0001F0D60150FF0805E1FF0EB6
:101B7000016E02012FD0000198C6C2F697C6C1F6C9
:101B80002CDF0201145106010024936F020115514C
:101B900006010120946F000E0220956F000E0320B5
:101BA000966F91C6E9FF92C6EAFF010E935D006E43
:101BB000000E9459016E000E9559026E000E965952
:101BC00000C0EFFF01C0ECFF02C0ECFFEC6E000EA6
:101BD000016E020100010EEF0EF006018BC6E9FF57
:101BE0008CC6EAFFEFCF00F0ECCF01F0ECCF02F0B3
:101BF000ECCF03F003C090F602C08FF601C08EF662
:101C000000C08DF61F0E8D5F000E8E5B8F5B905BAC
:101C1000060E926F8D0E916F000115D70150FF08CF
:101C200003E1FF0E016E0FD006018BC6E9FF8CC6E3
:101C3000EAFF8DC6EFFF8EC6ECFF8FC6ECFF90C6A5
:101C4000ECFF000E016E0001000C0601846B80C6E3
:101C50008AF67FC689F67EC688F67DC687F6150E9B
:101C6000875D8B6F000E88598C6F000E89598D6FC0
:101C7000000E8A598E6FAD6F8DC6ACF68CC6ABF672
:101C80008BC6AAF6AF6B010EAE6F060EB16F860E55
:101C9000B06F0001EBEC06F0015203E0FF0E016EA5
:101CA0008FD0060186510F081AE08AC68EF689C6C3
:101CB0008DF688C68CF687C68BF682C690F681C6EE
:101CC0008FF686C691F6000178D50150FF0803E132
:101CD000FF0E016E75D0000E016E72D00601060E69
:101CE0008C6F870E8B6F000178DF0150FF0803E1D6
:101CF000FF0E016E65D0010E0601836F83511F0830
:101D00003BE383510B0803E10E0E836F05D0835133
:101D10001A0802E11C0E836F835187258B6F000E1A
:101D200088218C6F000E89218D6F000E8A218E6FA5
:101D3000036A845181258F6F82510320906F8EC674
:101D4000ADF68DC6ACF68CC6ABF68BC6AAF6AF6BFD
:101D5000010EAE6F90C6B1F68FC6B0F60001EBEC87
:101D600006F0015203E0FF0E016E2AD0020E0601BA
:101D70008327010E8427C2D78AC6ADF689C6ACF682
:101D800088C6ABF687C6AAF6AF6B010EAE6F060E1D
:101D9000B16F850EB06F0001EBEC06F0015203E06D
:101DA000FF0E016E0DD0060185AD99D7036A8451EF
:101DB0008125E96E82510320EA6EEF6A000E016E02
:101DC0000001000C06017DC6E9FF7EC6EAFFEFCFE9
:101DD00081F680C603F07FC6E9FF80C6EAFFEF50B8
:101DE000815D15E17EC603F07DC6E9FF03C0EAFF11
:101DF000EF5203E1000E016E1FD07EC603F07D514D
:101E00007D2BD8B47E2B7F2BD8B4802BDCD77EC61D
:101E100003F07DC6E9FF7EC6EAFFEFCF81F680C6FC
:101E200003F07FC6E9FF80C6EAFFEF50815D02E262
:101E3000FF0E01D0010E016E0001000C97C603F0E9
:101E4000060196C6E9FF97C6EAFFECCF99F6ED5278
:101E5000EFCF98F6D89098379937020116510601BE
:101E600098270201175106019923AD6BAC6B99C6F7
:101E7000ABF698C6AAF6AF6B020EAE6F97C6B1F678
:101E800096C6B0F60001EBEC06F0015203E0FF0E3F
:101E9000016E02D0000E016E000CD8C6DEF6D7C669
:101EA000DDF6D6C6DCF6D5C6DBF66DEC06F001C075
:101EB000DAF60601DA5303E0DAC601F012D0D651A1
:101EC000010BDC6FDD6BDE6B0B0ED525E96E000EB2
:101ED000DC21EA6ED9C6EFFF02010B83000E016E12
:101EE00006010001ADEF0FF00601CF6BCE6BCF51B5
:101EF000CA5D3FE303E1C951CE5D3BE2C8C603F0D2
:101F0000C7C602F0C6C601F0C5C600F0010EC5275F
:101F1000D8B0C62BD8B4C72BD8B4C82B03C0D3F6BF
:101F200002C0D2F601C0D1F600C0D0F6CCC603F094
:101F3000CB51CB2BD8B4CC2BE96E03C0EAFFEFCF4B
:101F4000D4F6D3C6D8F602C0D7F601C0D6F600C084
:101F5000D5F6D4C6D9F60001A0D701C0CDF606014A
:101F6000CD5303E0CDC601F006D0CE2BD8B4CF2B95
:101F7000BED7000E016E0001000CD8900601983506
:101F80009D6F99359E6F0201165106019D27020132
:101F9000175106019E23C86BC76B9EC6C6F69DC629
:101FA000C5F6CA6B020EC96F060ECC6F9A0ECB6FC8
:101FB00000019ADF015203E0FF0E016E02D0000E15
:101FC000016E000C80C682F67FC681F682C684F65A
:101FD00081C683F6060E0601976F830E966F000189
:101FE0002DDF0150FF0803E1FF0E016E20D082C6F5
:101FF00099F681C698F606019B6B9A6B0001BDDFCE
:102000000150FF0803E1FF0E016E11D084C682F675
:1020100083C681F60601813D01D002D00001DAD7E6
:10202000823D01D002D00001D5D7000E016E000123
:10203000000C040E06018925016E000E8A21036E34
:1020400001C08BF68C6F140E8925E96E000E8A2173
:10205000EA6EEFCF00F0ECCF01F0ECCF02F0ECCF66
:1020600003F08CC6EAFF8BC6E9FF00C0EFFF01C09A
:10207000ECFF02C0ECFF03C0ECFF100E8925E96EF7
:10208000000E8A21EA6EEFCF00F0ECCF01F0ECCF2A
:1020900002F0ECCF03F08AC6EAFF89C6E9FF00C070
:1020A000EFFF01C0ECFF02C0ECFF03C0ECFF00013A
:1020B0009CEF14F0060198C6E9FF99C6EAFFECCF41
:1020C000A7F6ED52EFCFA6F6D890A637A7370201B4
:1020D00016510601A6259E6F020117510601A72180
:1020E0009F6FA06BA16BA56BA46BA36BA26BA5519B
:1020F00002011F5DD8A073D014E10601A4510201B2
:102100001E5D6DE30EE10601A35102011D5D67E353
:1021100008E11C510601A25DD8A002D002015FD0E7
:1021200002010601A2519E25A66FA3519F21A76F10
:10213000A451A021A86FA551A121A96FAD6FA8C678
:10214000ACF6A7C6ABF6A6C6AAF6AF6B020EAE6F8C
:10215000060EB16F9A0EB06F0001EBEC06F0015263
:1021600003E0FF0E016E3DD09BC69DF69AC69CF61D
:1021700006019C532CE19D532AE1A2519E27A351B5
:102180009F23A451A023A551A12398C6E9FF99C676
:10219000EAFF0201165106019E5DA86F0201175168
:1021A00006019F59A96F000EA059AA6F000EA159F0
:1021B000AB6FD890AB31AA31A931016EA831EF6E67
:1021C00001C0ECFF000E016E00010BD00601020EF3
:1021D000A227000EA323A423A52389D70201FF0E63
:1021E000016E0001000C99C6C2F698C6C1F6EDEC6E
:1021F0000CF003C0C0F602C0BFF601C0BEF600C0BE
:10220000BDF60601BA6BBA511F080BE3036ABA5157
:102210009A0FE96E060E0320EA6EEF6A010EBA27E6
:10222000F2D7BC6BBB6BBC510201155D32E308E118
:1022300014510601BB5DD8A002D002012AD00201D0
:102240000601BB51BD25C16FBC51BE21C26F000E3E
:10225000BF21C36F000EC021C46FC86FC3C6C7F6CD
:10226000C2C6C6F6C1C6C5F6CA6B200EC96F060E39
:10227000CC6F9A0ECB6F000137DE015203E0FF0EE8
:10228000016E09D0200E0601BB27000EBC23CBD760
:102290000201000E016E0001000C040E06018C25E7
:1022A000E96E000E8D21EA6EEFCF8FF6ECCF90F63F
:1022B000ECCF91F6ECCF92F61F0E8F17906B916BCF
:1022C000926B8F536BE1905369E1915367E19253A5
:1022D00065E1040E8C25E96E000E8D21EA6EEFCFCC
:1022E0008FF6ECCF90F6ECCF91F6ECCF92F6140E81
:1022F0008C25E96E000E8D21EA6EEFCF00F0ECCF59
:1023000001F0ECCF02F0ECCF03F000508F5D09E15B
:102310000150905D06E10250915D03E10350925D32
:102320003DE0040E8C25E96E000E8D21EA6EEFCFA4
:102330008FF6ECCF90F6ECCF91F6ECCF92F6200E24
:102340008F5F000E905B915B925B1A0E8C25016E85
:10235000000E8D21036E01C093F6946F92C6C8F6ED
:1023600091C6C7F690C6C6F68FC6C5F6CA6B200ED4
:10237000C96F03C0CCF601C0CBF60001B5DD015238
:102380000EE0190E06018C25E96E000E8D21EA6E15
:10239000EF504009EF6EFF0E016E25D00001040ED4
:1023A00006018C25E96E000E8D21EA6EEFCF8FF6C7
:1023B000ECCF90F6ECCF91F6ECCF92F61F0E8F1784
:1023C000906B916B926B1A0E8F25016E000E90210F
:1023D000036E01508C25E96E8D510320EA6E8EC686
:1023E000EFFF000E016E0001C1EF13F006018EC673
:1023F000E9FF8FC6EAFFEFCF96F6ECCF97F6ECCF6A
:1024000098F6ECCF99F6010E9625906F000E972165
:10241000916F000E9821926F000E9921936F020127
:102420001B510601935DD8A08FD015E102011A510E
:102430000601925DD8A088D00EE102011951060173
:10244000915DD8A081D007E190510201185DD8A01C
:1024500002D0060179D0020118510601905D966FF5
:102460000201195106019159976F02011A51060193
:102470009259986F02011B5106019359996FA56FEC
:1024800098C6A4F697C6A3F696C6A2F6A96BA86B43
:1024900015C2A7F614C2A6F6000172EC07F0EFCF42
:1024A00096F6ECCF97F6ECCF98F6ECCF99F60601BE
:1024B00096534AE1975348E1985346E1995344E1D2
:1024C000010E905D966F000E9159976F000E925914
:1024D000986F000E9359996F9D6F98C69CF697C69A
:1024E0009BF696C69AF6000147EC0CF002C095F6F2
:1024F00001C094F6060E0601976F940E966F0001C8
:102500009DDC0150FF0803E1FF0E016E2BD0060198
:102510009551FE0809E2FF0A03E19451F70804E22D
:10252000FF0E016E00011ED095C6C2F694C6C1F61C
:102530000001EDEC0CF003C093F602C092F601C06E
:1025400091F600C090F606018EC6E9FF8FC6EAFF3D
:1025500090C6EFFF91C6ECFF92C6ECFF93C6ECFF6E
:10256000000E016E0001000C91C695F690C694F61F
:1025700095C697F694C696F6060E0601996F960EC6
:10258000986F000197DD0150FF0803E1FF0E016E17
:1025900045D095C699F694C698F697C69BF696C60A
:1025A0009AF6EBDC0150FF0803E1FF0E016E36D016
:1025B00097C699F696C698F6FF0E06019B6F9A6F1E
:1025C0000001DBDC0150FF0803E1FF0E016E26D0A5
:1025D00097C699F696C698F606DE0150FF0803E105
:1025E000FF0E016E1BD093C603F092C698F693C6F9
:1025F00099F697C6C2F696C6C1F60001EDEC0CF04E
:1026000099C6EAFF98C6E9FF00C0EFFF01C0ECFFE2
:1026100002C0ECFF03C0ECFF000E016E000C190EAF
:1026200006018A25E96E000E8B21EA6EEFB208D012
:10263000190E8A25E96E000E8B21EA6EEFA459D19E
:10264000180E8A25E96E000E8B21EA6EEF52D8A48F
:1026500050D1040E8A25E96E000E8B21EA6EEFCF71
:102660008CF6ECCF8DF6ECCF8EF6ECCF8FF68F514B
:1026700002011B5DD8A07DD016E106018E5102013A
:102680001A5DD8A076D00FE106018D510201195DC7
:10269000D8A06FD008E1185106018C5DD8A002D0F7
:1026A000020167D00201020E0601996F200E986F99
:1026B000000100DD0150FF0803E1FF0E016E1DD196
:1026C00021C28DF620C28CF621C299F620C298F65E
:1026D000FF0E06019B6F9A6F00014FDC0150FF084F
:1026E00003E1FF0E016E09D121C28DF620C28CF6E6
:1026F00021C299F620C298F676DD0150FF0803E169
:10270000FF0E016EFAD0040E06018A25016E000E3E
:102710008B21036E01C08CF68D6F140E8A25016E1D
:10272000000E8B21036E01C08EF68F6F21C291F6D1
:1027300020C290F621C2C2F620C2C1F60001EDEC23
:102740000CF08FC6EAFF8EC6E9FF00C0EFFF01C0A4
:10275000ECFF02C0ECFF03C0ECFF8DC6EAFF8CC6A5
:10276000E9FF00C0EFFF01C0ECFF02C0ECFF03C0B7
:10277000ECFF8BC68DF68AC68CF689C68EF60001F4
:102780008CD50150FF0803E1FF0E016EB6D0040E98
:1027900006018A25016E000E8B21036E01C08CF6A6
:1027A0008D6F8F6F01C08EF6000120DE0150FF0893
:1027B000D8A47DD0040E06018A25E96E000E8B2177
:1027C000EA6EEFCF8CF6ECCF8DF6ECCF8EF6ECCF39
:1027D0008FF6200E8C5F000E8D5B8E5B8F5B010E83
:1027E0008C27000E8D238E238F231A0E8A25016ECF
:1027F000000E8B21036E01C090F6916F8FC6C8F654
:102800008EC6C7F68DC6C6F68CC6C5F6CA6B200E38
:10281000C96F03C0CCF601C0CBF6000174EC0FF019
:1028200001520EE0190E06018A25E96E000E8B2179
:10283000EA6EEF504009EF6EFF0E016E00015DD0B1
:10284000040E06018A25E96E000E8B21EA6EEFCF99
:102850008CF6ECCF8DF6ECCF8EF6ECCF8FF68FC6E4
:102860009DF68EC69CF68DC69BF68CC69AF6000128
:1028700047EC0CF002C08DF601C08CF6040E060188
:102880008A25016E000E8B21036E01C08EF68F6FBC
:1028900002C091F68CC690F6936F01C092F60001CB
:1028A00063DE0150FF0803E1FF0E016E26D0100E1B
:1028B00006018A25E96E000E8B21EA6E010EEF24D7
:1028C000006E000EEC20016E000EEC20026E000E79
:1028D000EC20ED52ED52ED5200C0EFFF01C0ECFFD5
:1028E00002C0ECFFEC6E89C601F0000106D005D0F5
:1028F0000601FF0E016E000100D0000C82C603F03D
:10290000060181C6E9FF82C6EAFFEFCF89F6ECCF68
:102910008AF6ECCF8BF6ECCF8CF6895311E18A5313
:102920000FE18B530DE18C530BE180C68AF67FC615
:1029300089F6000119EF10F0000E016EECD10601CE
:10294000190E7F25E96E000E8021EA6EEFB208D0E5
:10295000190E7F25E96E000E8021EA6EEFA466D085
:10296000100E7F25E96E000E8021EA6EEFCF89F60A
:10297000ECCF8AF6ECCF8BF6ECCF8CF681C6E9FF74
:1029800082C6EAFFEFCF00F0ECCF01F0ECCF02F00F
:10299000ECCF03F08C51035C49E30BE18B51025CFB
:1029A00045E307E18A51015C41E303E10050895DA1
:1029B0003DE2100E7F25E96E000E8021EA6EEFCF1A
:1029C00089F6ECCF8AF6ECCF8BF6ECCF8CF681C68D
:1029D000E9FF82C6EAFFEFCF00F0ECCF01F0ECCFC9
:1029E00002F0ECCF03F08C51035C1BE30BE18B5145
:1029F000025C17E307E18A51015C13E303E1005035
:102A0000895D0FE2896B80C68BF67FC68AF600016E
:102A100006DE0150FF0803E1FF0E016E7CD10601C6
:102A2000C8D7000E016E000176D1060182C603F000
:102A300081C6E9FF82C6EAFFEFCF89F6ECCF8AF6BE
:102A4000ECCF8BF6ECCF8CF6EACF8EF6E9CF8DF695
:102A50008CC6A5F68BC6A4F68AC6A3F689C6A2F6CE
:102A6000A96BA86B15C2A7F614C2A6F6000172ECFA
:102A700007F08EC6EAFF8DC6E9FF03C088F602C0E4
:102A800087F601C086F600C085F6140E06017F2584
:102A9000E96E000E8021EA6EEFCF89F6ECCF8AF660
:102AA000ECCF8BF6ECCF8CF68CC69DF68BC69CF6E5
:102AB0008AC69BF689C69AF6000147EC0CF002C064
:102AC00084F601C083F60601855306E1865304E1CE
:102AD000875302E1885314E0060E976F830E966FBA
:102AE00000011EEC0FF0015203E0FF0E016E13D146
:102AF000010E0601855F000E865B875B885BE4D76D
:102B0000040E7F25016E000E8021036E01C089F640
:102B10008A6F84C6C2F683C6C1F60001EDEC0CF0E4
:102B20008AC6EAFF89C6E9FF00C0EFFF01C0ECFFDB
:102B300002C0ECFF03C0ECFF040E06017F25016E0E
:102B4000000E802101C089F68A6FEA6E01C0E9FF9C
:102B5000EFCF8BF6ECCF8CF6ECCF8DF6ECCF8EF67C
:102B600082C603F081C6E9FF82C6EAFFEFCF8FF687
:102B7000ECCF90F6ECCF91F6ECCF92F6ED52ED5211
:102B8000ED52EACF94F6E9CF93F692C6A5F691C638
:102B9000A4F690C6A3F68FC6A2F6A96BA86B15C2C1
:102BA000A7F614C2A6F6000172EC07F0EFCF00F012
:102BB000ECCF01F0ECCF02F0ECCF03F094C6EAFFCB
:102BC00093C6E9FF06018B5100268C5101228D51DD
:102BD00002228E5103228AC6EAFF89C6E9FF00C09D
:102BE000EFFF01C0ECFF02C0ECFF03C0ECFF190EC9
:102BF0007F25E96E000E8021EA6EEFA06BD0100EEB
:102C00007F25E96E000E8021EA6EEFCF8BF6ECCFC8
:102C10008CF6ECCF8DF6ECCF8EF681C6E9FF82C63E
:102C2000EAFFEFCF00F0ECCF01F0ECCF02F0ECCFF9
:102C300003F000508B5D006E01508C59016E025004
:102C40008D59026E03508E5980C6EAFF7FC6E9FF98
:102C500000C0EFFF01C0ECFF02C0ECFFEC6E040E01
:102C60007F25E96E000E8021EA6EEFCF89F6ECCF6A
:102C70008AF6ECCF8BF6ECCF8CF61A0E7F25016E20
:102C8000000E8021036E01C08DF68E6F8CC6ADF6EE
:102C90008BC6ACF68AC6ABF689C6AAF6AF6B200E19
:102CA000AE6F03C0B1F601C0B0F60001EBEC06F068
:102CB00001520EE0190E06017F25E96E000E8021FB
:102CC000EA6EEF502009EF6EFF0E016E000123D077
:102CD00020D00601100E7F25016E000E802101C05C
:102CE00089F681C6E9FF82C6EAFFEFCF00F0ECCF9C
:102CF00001F0ECCF02F0ECCF03F0EA6E89C6E9FFF9
:102D000000C0EFFF01C0ECFF02C0ECFF03C0ECFF0E
:102D10000001000E016E000C06017DC6E9FF7EC6B3
:102D2000EAFFEFCF00F0ECCF01F0ECCF02F0ECCFF8
:102D300003F003C082F602C081F601C080F600C035
:102D40007FF61F0E7F27000E802381238223060E2D
:102D50008F6F7F0E8E6F0001F6EC11F00150FF08AF
:102D600003E1FF0E016E0FD006017DC6E9FF7EC6AE
:102D7000EAFF7FC6EFFF80C6ECFF81C6ECFF82C68C
:102D8000ECFF000E016E0001000C0601586B140EE2
:102D90005425E96E000E5521EA6EEFCF00F0ECCF1E
:102DA00001F0ECCF02F0ECCF03F003C05CF602C000
:102DB0005BF601C05AF600C059F65CC6ADF65BC6BC
:102DC000ACF65AC6ABF659C6AAF6AF6B010EAE6F9B
:102DD000060EB16F570EB06F0001EBEC06F001501C
:102DE000060158270B0E59257D6F000E5A217E6F64
:102DF000000E5B217F6F000E5C21806FAD6F7FC680
:102E0000ACF67EC6ABF67DC6AAF6AF6B010EAE6F12
:102E1000060EB16F560EB06F0001EBEC06F00150DC
:102E20000601582758530CE0190E5425E96E000E80
:102E30005521EA6EEF502009EF6EFF0E016E18D398
:102E40005751E508D8B4F6D25351565DD8A4F2D202
:102E50005CC680F65BC67FF65AC67EF659C67DF61E
:102E6000060E826F5D0E816F000125EC0EF00150A1
:102E7000FF0804E1FF0E016E0601FAD252C67EF68B
:102E800051C67DF6060E0601806F5D0E7F6F000154
:102E9000E2EC0EF00152D8A4CED20C0E060154255D
:102EA000016E000E5521036E01C07DF67E6F140E7B
:102EB0005425E96E000E5521EA6EEFCF00F0ECCFFD
:102EC00001F0ECCF02F0ECCF03F07EC6EAFF7DC646
:102ED000E9FF00C0EFFF01C0ECFF02C0ECFF03C040
:102EE000ECFF1C0E59257D6F000E5A217E6F000EDF
:102EF0005B217F6F000E5C21806F100E5425016EE8
:102F0000000E5521036E01C081F6826F80C6ADF6BA
:102F10007FC6ACF67EC6ABF67DC6AAF6AF6B040ED6
:102F2000AE6F03C0B1F601C0B0F60001EBEC06F0E5
:102F3000015006015827140E59257D6F000E5A21A5
:102F40007E6F000E5B217F6F000E5C21806F140E80
:102F50005425016E000E5521036E01C081F6826F6B
:102F6000020E8127000E822380C6ADF67FC6ACF626
:102F70007EC6ABF67DC6AAF6AF6B020EAE6F82C6FA
:102F8000B1F681C6B0F60001EBEC06F00150060187
:102F900058271A0E59257D6F000E5A217E6F000E9C
:102FA0005B217F6F000E5C21806F140E5425016E33
:102FB000000E5521036E01C081F6826F80C6ADF60A
:102FC0007FC6ACF67EC6ABF67DC6AAF6AF6B020E28
:102FD000AE6F03C0B1F601C0B0F60001EBEC06F035
:102FE00001500601582758530CE0190E5425E96E7C
:102FF000000E5521EA6EEF502009EF6EFF0E016EB4
:1030000037D2140E5425016E000E5521036E01C0F7
:103010007DF67E6F140E5425E96E000E5521EA6E82
:10302000EFCF7FF6ECCF80F680C6C2F67FC6C1F642
:103030000001EDEC0CF07EC6EAFF7DC6E9FF00C0A2
:10304000EFFF01C0ECFF02C0ECFF03C0ECFF080E75
:1030500006015425E96E000E5521EA6E59C6EFFFB0
:103060005AC6ECFF5BC6ECFF5CC6ECFF100E5425A5
:10307000E96E000E5521EA6EEFCF00F0ECCF01F0C3
:10308000ECCF02F0ECCF03F055C6EAFF54C6E9FFDF
:1030900000C0EFFF01C0ECFF02C0ECFF03C0ECFF7B
:1030A00053512008D8A4BBD1180E5425E96E000E48
:1030B0005521EA6EEF6A190E5425E96E000E55216E
:1030C000EA6EEFA27BD0100E5425E96E000E55215A
:1030D000EA6EEE52EE52EC6AED52EF6AED52EF6A92
:1030E000ED52EF6A000E55C6EAFF54C6E9FF00C074
:1030F000EFFF54C6ECFF02C0ECFF55C6ECFF140E08
:103100005425E96E000E5521EA6EEFCF7DF6ECCF27
:103110007EF6ECCF7FF6ECCF80F602011B51060164
:10312000805D3CE311E102011A5106017F5D36E347
:103130000BE10201195106017E5D30E305E1020158
:10314000185106017D5D2AE3140E5425E96E000E28
:103150005521EA6EEFCF7DF6ECCF7EF6ECCF7FF611
:10316000ECCF80F680C69DF67FC69CF67EC69BF6A9
:103170007DC69AF6000147EC0CF002C07EF601C055
:103180007DF602C080F601C07FF6E2EC0FF0015040
:10319000FF0804E1FF0E016E06016AD1040E06016C
:1031A0005425E96E000E5521EA6EEE52EE52EC6A9D
:1031B000ED52EF6AED52EF6AED52EF6A190E5425A7
:1031C000E96E000E5521EA6EEFA4C3D0100E54250F
:1031D000E96E000E5521EA6EEFCF7DF6ECCF7EF65C
:1031E000ECCF7FF6ECCF80F67D5307E17E5305E10F
:1031F0007F5303E18053D8B4ACD0100E5425016E38
:10320000000E5521036E01C07DF67E6F55C680F617
:1032100054C67FF6826F01C081F600017EEC14F087
:1032200001C058F6040E06015425E96E000E552122
:10323000EA6EEFCF7DF6ECCF7EF6ECCF7FF6ECCFEB
:1032400080F61F0E7D177E6B7F6B806B7D5339E19F
:103250007E5337E17F5335E1805333E1040E54252B
:10326000E96E000E5521EA6EEFCF7DF6ECCF7EF6CB
:10327000ECCF7FF6ECCF80F6200E7D5F000E7E5BFC
:103280007F5B805B1A0E5425016E000E5521036E84
:1032900001C081F6826F80C6ADF67FC6ACF67EC6F1
:1032A000ABF67DC6AAF6AF6B200EAE6F03C0B1F6CB
:1032B00001C0B0F60001EBEC06F001500601582702
:1032C00048D0040E5425E96E000E5521EA6EEFCF6A
:1032D0007DF6ECCF7EF6ECCF7FF6ECCF80F6040ED9
:1032E0005425E96E000E5521EA6EEFCF81F6ECCF42
:1032F00082F6ECCF83F6ECCF84F681511F0B006E83
:10330000016A026A036A00507D5F01507E5B0250D1
:103310007F5B0350805B1A0E5425016E000E552111
:10332000036E01C081F6826F80C6ADF67FC6ACF633
:103330007EC6ABF67DC6AAF6AF6B200EAE6F03C09D
:10334000B1F601C0B0F60001EBEC06F00150060149
:103350005827190E5425E96E000E5521EA6EEFA08C
:103360004FD0040E5425016E000E5521036E01C08E
:103370007DF67E6F140E5425E96E000E5521EA6E1F
:10338000EFCF00F0ECCF01F0ECCF02F0ECCF03F088
:103390007EC6EAFF7DC6E9FF00C0EFFF01C0ECFF7B
:1033A00002C0ECFF03C0ECFF040E5425E96E000ED2
:1033B0005521EA6EEFCF7DF6ECCF7EF6ECCF7FF6AF
:1033C000ECCF80F61A0E5425016E000E5521036EC7
:1033D00001C081F6826F80C6ADF67FC6ACF67EC6B0
:1033E000ABF67DC6AAF6AF6B200EAE6F03C0B1F68A
:1033F00001C0B0F60001EBEC06F001C058F6060182
:1034000058530CE0190E5425E96E000E5521EA6E52
:10341000EF502009EF6EFF0E016E2AD008D0180E73
:103420005425E96E000E5521EA6E010EEF6E000E76
:10343000016E1ED00001060E06017E6F590E7D6FD3
:1034400000016ADC0150FF0804E1FF0E016E060175
:103450000FD006015753D8A4B0D4190E5425E96EE5
:10346000000E5521EA6EEF508009EF6EFF0E016EDF
:103470000001000C010E0501F46F06014F6B050100
:10348000F051E96EF151EA6EEF50720A000105E069
:10349000050A07E0160A09E00DD0010E06012E6F9D
:1034A0000CD0020E06012E6F08D0040E06012E6FFE
:1034B00004D00001FF0E016E38D1010E0501F02588
:1034C000E96E000EF121EA6EEF50620803E1060199
:1034D0002E87050127C224F626C223F625C222F62E
:1034E00024C221F624C62CF623C62BF622C62AF6C1
:1034F00021C629F6036AF451EE25E96EEF51032047
:10350000EA6EEF5210E0036AF451EE25E96EEF51D6
:103510000320EA6EEF502F0803E106014F2B05014F
:10352000010EF427E7D7010EF46F06014F5370E048
:10353000506B036A0501F451EE25E96EEF5103204B
:10354000EA6EEF502F082FE0036AF451EE25E96E82
:10355000EF510320EA6EEF5205E1FF0E016E00010C
:10356000E4D00501036A06015051F50F016E050E06
:10357000032203C052F6036A0501F451EE25E96EF9
:10358000EF510320EA6EEFCF53F6060152C6EAFF71
:1035900001C0E9FF53C6EFFF010E0501F427060144
:1035A0005027C7D70501010EF427036A06015051C1
:1035B000F50FE96E050E0320EA6EEF6A050E526FF5
:1035C000F50E516F100E536F060E556F150E546F9A
:1035D0000001C5EC16F0015217E006012E8FF3C56D
:1035E00003F00501F2C5E9FFF3C5EAFF060EE26E3E
:1035F000150EE16E3A0E016EE6CFEEFF012EFCD7FE
:10360000FF0E016E000191D0010E06014F5F8ED7B3
:10361000036A0501F451EE25E96EEF510320EA6ECD
:10362000EF5214E1F3C503F0F2C5E9FFF3C5EAFF79
:10363000060EE26E150EE16E3A0E016EE6CFEEFF5B
:10364000012EFCD7000E016E00016FD00601506BF9
:10365000036A0501F451EE25E96EEF510320EA6E8D
:10366000EF5221E0036A06015051F50F016E050E7D
:10367000032203C052F6036A0501F451EE25E96EF8
:10368000EF510320EA6EEFCF53F6060152C6EAFF70
:1036900001C0E9FF53C6EFFF010E0501F427060143
:1036A0005027D6D70501036A06015051F50FE96E80
:1036B000050E0320EA6EEF6A050E526FF50E516F8C
:1036C000200E536F060E556F150E546F0001C5EC9A
:1036D00016F0015217E006012E8FF3C503F0050125
:1036E000F2C5E9FFF3C5EAFF060EE26E150EE16EC4
:1036F0003A0E016EE6CFEEFF012EFCD7FF0E016EF3
:10370000000113D0F3C503F00501F2C5E9FFF3C5CD
:10371000EAFF060EE26E150EE16E3A0E016EE6CF7E
:10372000EEFF012EFCD7000E016E0001000C190EF9
:103730000501F225E96E000EF321EA6EEFB208D022
:10374000190EF225E96E000EF321EA6EEFA4B8D04F
:10375000040EF225E96E000EF321EA6EEFCFF4F5C8
:10376000ECCFF5F5ECCFF6F5ECCFF7F51F0EF4172F
:10377000F56BF66BF76BF45348E1F55346E1F653FE
:1037800044E1F75342E1040EF225E96E000EF32105
:10379000EA6EEFCFF4F5ECCFF5F5ECCFF6F5ECCF24
:1037A000F7F5200EF45F000EF55BF65BF75B1A0E83
:1037B000F225016E000EF321036E01C0F8F5F96FDA
:1037C000F7C5C8F6F6C5C7F6F5C5C6F6F4C5C5F61D
:1037D0000601CA6B200EC96F03C0CCF601C0CBF640
:1037E000000174EC0FF001520EE0190E0501F225F4
:1037F000E96E000EF321EA6EEF504009EF6EFF0E06
:10380000016E60D0000157D00501040EF225E96E6B
:10381000000EF321EA6EEFCFF4F5ECCFF5F5ECCF27
:10382000F6F5ECCFF7F5040EF225E96E000EF32164
:10383000EA6EEFCFF8F5ECCFF9F5ECCFFAF5ECCF77
:10384000FBF5F8511F0B006E016A026A036A005013
:10385000F45F0150F55B0250F65B0350F75B1A0E04
:10386000F225016E000EF321036E01C0F8F5F96F29
:10387000F7C5C8F6F6C5C7F6F5C5C6F6F4C5C5F66C
:103880000601CA6B200EC96F03C0CCF601C0CBF68F
:10389000000174EC0FF001520EE0190E0501F22543
:1038A000E96E000EF321EA6EEF504009EF6EFF0E55
:1038B000016E08D0000151EC06F00150050102D064
:1038C000000E016E0001ADEF1DF00501ED6B190E4C
:1038D000EB25E96E000EEC21EA6EEFB208D0190E6E
:1038E000EB25E96E000EEC21EA6EEFA43DD1080E47
:1038F000EB25E96E000EEC21EA6EEFCFF2F5ECCF8E
:10390000F3F5ECCFF4F5ECCFF5F51C0EF227000E35
:10391000F323F423F523100EEB25016E000EEC21AA
:10392000036E01C0F6F5F76FF5C5C8F6F4C5C7F626
:10393000F3C5C6F6F2C5C5F60601CA6B040EC96F1B
:1039400003C0CCF601C0CBF6000174EC0FF00152BD
:103950000DE0190E0501EB25E96E000EEC21EA6E73
:10396000EF504009EF6EFF0E016E45D1080E0501C4
:10397000EB25E96E000EEC21EA6EEFCFF2F5ECCF0D
:10398000F3F5ECCFF4F5ECCFF5F5140EF227000EBD
:10399000F323F423F523F5C5ADF6F4C5ACF6F3C572
:1039A000ABF6F2C5AAF60601AF6B020EAE6F050EBE
:1039B000B16FF00EB06F0001EBEC06F001500501A5
:1039C000ED27080EEB25E96E000EEC21EA6EEFCF35
:1039D000F2F5ECCFF3F5ECCFF4F5ECCFF5F51A0EEC
:1039E000F227000EF323F423F523F5C5ADF6F4C555
:1039F000ACF6F3C5ABF6F2C5AAF60601AF6B020E44
:103A0000AE6F050EB16FEE0EB06F0001EBEC06F07D
:103A100001500501ED27ED530CE0190EEB25E96E81
:103A2000000EEC21EA6EEF502009EF6EFF0E016EE2
:103A3000E2D0EE53D8A48BD0EF53D8A488D0F05363
:103A4000D8A485D0F153D8A482D0140EEB25E96E0A
:103A5000000EEC21EA6EEFCFF2F5ECCFF3F5ECCFF0
:103A6000F4F5ECCFF5F5F5C59DF6F4C59CF6F3C578
:103A70009BF6F2C59AF6000147EC0CF00501F16BDC
:103A8000F06B02C0EFF501C0EEF5080EEB25E96E14
:103A9000000EEC21EA6EEFCFF2F5ECCFF3F5ECCFB0
:103AA000F4F5ECCFF5F5140EF227000EF323F42312
:103AB000F523F5C5C8F6F4C5C7F6F3C5C6F6F2C5D5
:103AC000C5F60601CA6B020EC96F050ECC6FF00E6B
:103AD000CB6F000174EC0FF001500501ED27080ECB
:103AE000EB25E96E000EEC21EA6EEFCFF2F5ECCF9C
:103AF000F3F5ECCFF4F5ECCFF5F51A0EF227000E46
:103B0000F323F423F523F5C5C8F6F4C5C7F6F3C5CA
:103B1000C6F6F2C5C5F60601CA6B020EC96F050EE0
:103B2000CC6FEE0ECB6F000174EC0FF0015005016D
:103B3000ED27ED530CE0190EEB25E96E000EEC219C
:103B4000EA6EEF504009EF6EFF0E016E54D0ECC5E7
:103B5000F3F5EBC5F2F50001EAD50150FF0805E1E8
:103B6000FF0E016E050147D00001040E0501EB2593
:103B7000E96E000EEC21EA6EEE52EE52EC6AED5266
:103B8000EF6AED52EF6AED52EF6A080EEB25E96E2F
:103B9000000EEC21EA6EEE52EE52EC6AED52EF6A44
:103BA000ED52EF6AED52EF6A100EEB25E96E000E52
:103BB000EC21EA6EEE52EE52EC6AED52EF6AED52F3
:103BC000EF6AED52EF6A140EEB25E96E000EEC2160
:103BD000EA6EEE52EE52EC6AED52EF6AED52EF6A87
:103BE000ED52EF6A190EEB25E96E000EEC21EA6E3C
:103BF000EF6A000E016E0001000CE50E0501AA6FD0
:103C0000720EAF6FB06BA8C5EFF5A7C5EEF5050E48
:103C1000F16FAF0EF06F050EF36FB10EF26F000192
:103C200029DC0150FF0803E1FF0E016EE6D002011E
:103C300027510501C85D31E314E102012651050158
:103C4000C75D2BE30EE1020125510501C65D25E3A9
:103C500008E1C5510201245DD8A002D005011DD0A4
:103C60000501C8C59DF6C7C59CF6C6C59BF6C5C56A
:103C70009AF6000147EC0CF002C0ECF501C0EBF540
:103C800002C080F601C07FF6E2EC0FF00150FF08A1
:103C900003E1FF0E016EB1D00501BCC5AEF5BBC599
:103CA000ADF5BAC5ACF5B9C5ABF5AEC5C8F6ADC591
:103CB000C7F6ACC5C6F6ABC5C5F60601CA6B010EA4
:103CC000C96F050ECC6FAA0ECB6F000174EC0FF01C
:103CD0000150FF0803E1FF0E016E8FD0050E0601B3
:103CE0008C6FAB0E8B6F0001EDEC0DF00B0E050130
:103CF000AB25EB6F000EAC21EC6F000EAD21ED6F2C
:103D0000000EAE21EE6FE8CFADF6EDC5ACF6ECC51A
:103D1000ABF6EBC5AAF60601AF6B010EAE6F050E52
:103D2000B16FA90EB06F0001EBEC06F00150FF0877
:103D300003E1FF0E016E61D00501A9510F084FE1AB
:103D4000AEC5C8F6ADC5C7F6ACC5C6F6ABC5C5F6BB
:103D50000601CA6B010EC96F050ECC6FAA0ECB6FA0
:103D6000000174EC0FF00150FF0803E1FF0E016E3B
:103D700044D0050E06018C6FAB0E8B6F0001EDEC8D
:103D80000DF00150FF0803E1FF0E016E36D00B0E5F
:103D90000501AB25EB6F000EAC21EC6F000EAD21E1
:103DA000ED6F000EAE21EE6FE8CFADF6EDC5ACF6CF
:103DB000ECC5ABF6EBC5AAF60601AF6B010EAE6F14
:103DC000050EB16FA90EB06F0001EBEC06F00150CB
:103DD000FF0803E1FF0E016E10D0AED70501050EFE
:103DE000EC6FB10EEB6F000170DD0150FF0803E1D5
:103DF000FF0E016E02D0000E016E000C220EF66E58
:103E0000010EF76E0C0E0501C56F0001C8EC0BF03A
:103E100066C5EAFF65C5E9FF4AEC09F0270E9EA8D2
:103E2000FED7AD6E3A0E9EA8FED7AD6E200E9EA8B0
:103E3000FED7AD6E66C5A8F565C5A7F5DEDE0152F5
:103E400007E0340EF66E010EF76E39EC09F008D07B
:103E50004F0E9EA8FED7AD6E4B0E9EA8FED7AD6E40
:103E600078EF35F00501F26BF16BEFC503F0EEC5AD
:103E7000E9FFEFC5EAFFF051EF5C04E1EFC5F2F5B1
:103E8000EEC5F1F5EFC503F0EEC5E9FFEFC5EAFFBA
:103E9000EF5205E1F1C501F0F2C502F004D0EE2BBE
:103EA000D8B4EF2BE2D70001000C06012C6B036A9B
:103EB0002C512A25E96E2B510320EA6EEF522DE09A
:103EC0002C511F082AE3036A2C512A25E96E2B5135
:103ED0000320EA6EEFCF2DF62D51220818E02D5168
:103EE0002A0815E02D512F0812E02D513A080FE055
:103EF0002D513C080CE02D513D0803E22D513F08A7
:103F000006E22D515C0803E02D517C0803E1FF0E11
:103F1000016E05D0010E2C27CAD7000E016E0001DC
:103F200079EF23F05EC603F006015DC6E9FF5EC6C9
:103F3000EAFF5F51EF5C12E05EC603F05DC6E9FF89
:103F40005EC6EAFFEF5204E1000E016E026E0AD077
:103F50005D2BD8B45E2B0001E5D706015DC601F0EC
:103F60005EC602F00001000C06016051016A5F5D4F
:103F700003E25FC600F00CD0006A080E616F5F3785
:103F800000366051005CD8B0006E0136612FF7D763
:103F90000001000C29C2EAFF28C2E9FF06015FC642
:103FA000EFFFE92AD8B4EA2AEF6A0201282BD8B435
:103FB000292B0001000C01505DC65FF6640E06015E
:103FC000606F0001D1DF00C05DF60150300E08E1E6
:103FD00006015EA30FD05EB70DD05EB9200E04D0EF
:103FE00006015E975E995E81012601C05FF60001C1
:103FF000D1DF06015DC65FF60A0E606F0001B4DF17
:1040000000C05DF60150300E08E106015EB70AD02F
:104010005EA108D05EB9200E0001012601C05FF646
:10402000B9DF0601300E5D275DC65FF60001B2DF25
:1040300062EF21F0200E0601326F336F346F356F5F
:10404000366F376F386F396F3A6F3B6F3C6F3D6B30
:104050003E6F3F6F406F416F426F436F446F456FDC
:10406000466F476F486F496B4A6F4B6F4C6F4D6F90
:104070004E6F4F6F506B536B546B586B576B566B47
:10408000556B2FC65EF62EC65DF62E0E5F6F0001D5
:1040900049DF01C052F6060152534AE15451070864
:1040A00046E3036A53512E25E96E2F510320EA6E31
:1040B000EF523DE0036A5451320F016E060E0322A7
:1040C00001C05DF603C05EF6036A53512E25E96E0A
:1040D0002F510320EA6EEFCF5FF65F51600806E2D2
:1040E0005F517A0803E35F51DF0B01D05F515EC679
:1040F000EAFF5DC6E9FFEF6E010E54275327036AFE
:1041000053512E25E96E2F510320EA6EEF502E08F1
:104110000AE0036A53512E25E96E2F510320EA6EFF
:10412000EF50200803E1010E5327E9D7B7D75BD042
:10413000010E2E5D006E000E2F590050525F54513B
:104140000A0851E3036A53512E25E96E2F510320CB
:10415000EA6EEF5248E0036A5451320F016E060EC8
:10416000032201C05DF603C05EF6036A53512E259B
:10417000E96E2F510320EA6EEFCF5FF65F516008C2
:1041800006E25F517A0803E35F51DF0B01D05F5114
:104190005EC6EAFF5DC6E9FFEF6E010E54275327A6
:1041A000036A53512E25E96E2F510320EA6EEF501A
:1041B0002E080AE0036A53512E25E96E2F51032081
:1041C000EA6EEF50200803E1010E5327E9D7525160
:1041D000535D03E1080E546F05D05451080802E105
:1041E00052C653F6ACD72DC65CF62CC65BF62BC672
:1041F0005AF62AC659F60B0E59255D6F000E5A2144
:104200005E6F000E5B215F6F000E5C21606FAD6F13
:104210005FC6ACF65EC6ABF65DC6AAF6AF6B010E26
:10422000AE6F060EB16F510EB06F0001EBEC06F0F1
:10423000015203E0FF0E016E27D106015153D8B49D
:10424000F9D05151200804E051511008D8A4A1D050
:104250005CC6ADF65BC6ACF65AC6ABF659C6AAF656
:10426000AF6B0B0EAE6F060EB16F3E0EB06F00015E
:10427000EBEC06F0015203E0FF0E016E05D10601E2
:10428000496B060E7E6F3E0E7D6F060E806F320EFE
:104290007F6F0001E2EC0EF00152D8A47BD0010E3A
:1042A00006015527000E562357235823060E0201F8
:1042B000296F4A0E286F55C65DF61B0E06015E6F0C
:1042C000000179D60601536B060E5E6F320E5D6FEC
:1042D000200E5F6F000126DE01C054F60601545324
:1042E0000DE1060E5E6F4A0E5D6F00017AEC0AF07A
:1042F000070ED88001540601546F02D0340E545F6B
:104300000A0E516F585307E1575305E1565303E125
:104310005151555D07E3010E545F51510A0DF3CF22
:1043200051F6F0D7036A5451320FE96E060E03209E
:10433000EA6E7E0EEF6E010E5427036A53514A0F48
:10434000E96E060E0320EA6EEF521BE0036A545139
:10435000320F016E060E032203C05EF6036A53514C
:104360004A0FE96E060E0320EA6EEFCF5FF65EC6D7
:10437000EAFF01C0E9FF5FC6EFFF010E5427532794
:10438000DCD72DC65CF62CC65BF62BC65AF62AC6C1
:1043900059F60001060E06017E6F590E7D6F000171
:1043A0008CEC16F00150FF0820E15CC69DF65BC660
:1043B0009CF65AC69BF659C69AF647EC0CF002C01A
:1043C0005EF601C05DF602C091F601C090F6060EE1
:1043D0000601936F590E926F0001B4EC12F0015078
:1043E000FF0803E1FF0E016E4FD00B0E06015925A9
:1043F0005D6F000E5A215E6F000E5B215F6F000E35
:104400005C21606FAD6F5FC6ACF65EC6ABF65DC695
:10441000AAF6AF6B010EAE6F060EB16F510EB06F04
:104420000001EBEC06F0015203E0FF0E016E2CD010
:1044300004D706015C6B5B6B5A6B596B5C5322E1D2
:104440005B5320E15A531EE159510B081BE33051D5
:104450005925016E31515A21036E320E5925E96EEC
:10446000060E5A21EA6EEFCF5FF603C0EAFF01C0E5
:10447000E9FF5FC6EFFF010E5927000E5A235B23A9
:104480005C23DCD7000E016E000192EF23F00601E1
:104490002D6B0B0E2C6F2C5318E02DA102D0800E2B
:1044A00001D0000E2E6FD8902D312E272BC603F091
:1044B0002A512A2BD8B42B2BE96E03C0EAFFEF5008
:1044C0002E252D6F010E2C5FE6D72DC601F00001C1
:1044D0009FEF23F006012AC6E9FF2BC6EAFFEFCFC4
:1044E00000F0ECCF01F0ECCF02F0ECCF03F003C012
:1044F00030F602C02FF601C02EF600C02DF630C6F1
:10450000ADF62FC6ACF62EC6ABF62DC6AAF6AF6B2F
:10451000010EAE6F060EB16F2C0EB06F0001EBEC0A
:1045200006F0015203E0FF0E016E5BD006012C5332
:104530004AE01F0E2D27000E2E232F233023060EB8
:104540008F6F2D0E8E6F0001F6EC11F00150FF08F9
:1045500020E130C69DF62FC69CF62EC69BF62DC6D2
:104560009AF647EC0CF002C032F601C031F602C0F8
:1045700091F601C090F6060E0601936F2D0E926F14
:104580000001B4EC12F00150FF0803E1FF0E016ED0
:1045900028D030C6ADF62FC6ACF62EC6ABF62DC66B
:1045A000AAF60601AF6B010EAE6F060EB16F2C0EB0
:1045B000B06F0001EBEC06F0015203E0FF0E016E5C
:1045C00010D0B4D706012AC6E9FF2BC6EAFF2DC6D4
:1045D000EFFF2EC6ECFF2FC6ECFF30C6ECFF000E3F
:1045E000016E0001000C06012A512B19800B2D6F62
:1045F0002AAF02D02A1F2A2B2BAF02D02B1F2B2B26
:104600002B51016A2A5D03E22AC600F00CD0006A31
:10461000080E2C6F2A3700362B51005CD8B0006E84
:1046200001362C2FF7D72DAF02D0011E012A000131
:10463000000C2DC62EF606012E510C084DE32E510E
:10464000040817E3D8902E35010F036A2A25E96E76
:104650002B510320EA6E2CC6EFFFD8902E35020FA7
:10466000036A2A25E96E2B510320EA6E2CC6EFFF60
:1046700030D02E510A0817E3D8902E35040F036A64
:104680002A25E96E2B510320EA6E2CC6EFFFD89045
:104690002E35050F036A2A25E96E2B510320EA6E99
:1046A0002CC6EFFF16D0D8902E35060F036A2A25A8
:1046B000E96E2B510320EA6E2CC6EFFFD8902E3501
:1046C000070F036A2A25E96E2B510320EA6E2CC6D8
:1046D000EFFF010E2E27B0D70001000C0601026B80
:1046E000010E256FF5C52BF6F4C52AF6000155EF2E
:1046F0001FF00150FF0803E1FF0E016E5DD1F1C50F
:104700002DF6F0C52CF6EFC52BF6EEC52AF6F5C54D
:104710002FF6F4C52EF6050E0601316FF60E306F3A
:10472000000188D40150FF0803E1FF0E016E44D15F
:10473000050E06012B6FF60E2A6F0001A8D601C0E8
:1047400003F60601246B24511F080BE3036A24516E
:10475000040FE96E060E0320EA6EEF6A010E2427AD
:10476000F2D7F1C529F6F0C528F6EFC527F6EEC554
:1047700026F6060E2B6F260E2A6F0001ABDE0150C7
:10478000FF0803E1FF0E016E17D10F0E06010F6F38
:10479000F5C55EF6F4C55DF600017AEC0AF001C0DD
:1047A00002F602C62AF60D0E06012B6F00011BDF72
:1047B00000C002F6060102530CE0010E0227060EAD
:1047C0002B6F040E2A6FFF0E2C6F02C62DF6000110
:1047D00030DFF5C55EF6F4C55DF600017AEC0AF04F
:1047E00001C002F602C62AF60D0E06012B6F00016B
:1047F000FADE010E01240601256F02C62AF60D0E0F
:104800002B6F0001F0DE005203E1010E0601255F6F
:104810000601258D02BFAAD002C62AF60D0E2B6F07
:104820000001E1DE00C024F60601245104081CE367
:10483000D8902435010F036A040F016E060E03227F
:1048400003C02BF6036A02510501F425E96EF55108
:104850000320EA6EEFCF2CF606012BC6EAFF01C05B
:10486000E9FF2CC6EFFF3AD024510A081CE3D89088
:104870002435040F036A040F016E060E032203C0E1
:104880002BF6036A02510501F425E96EF551032068
:10489000EA6EEFCF2CF606012BC6EAFF01C0E9FF56
:1048A0002CC6EFFF1BD0D8902435060F036A040FE7
:1048B000016E060E032203C02BF6036A02510501A6
:1048C000F425E96EF5510320EA6EEFCF2CF60601D0
:1048D0002BC6EAFF01C0E9FF2CC6EFFF245343E1DA
:1048E000F5C55EF6F4C55DF600017AEC0AF00150FC
:1048F0000601025D38E025C604F6025302E03F0ED1
:104900002517010E255F03C611F629C6C8F628C66D
:10491000C7F627C6C6F626C6C5F6CA6B200EC96FEF
:10492000060ECC6F040ECB6F000174EC0FF0015239
:1049300003E0FF0E016E40D0060E06012B6F260E1F
:104940002A6F0001C7DD0150FF0803E1FF0E016E71
:1049500033D0060E06012B6F040E2A6F2C6B2D6BC5
:10496000000167DE0601010E025F54D729C6C8F6B2
:1049700028C6C7F627C6C6F626C6C5F6CA6B0B0EEE
:10498000C96F050ECC6FF60ECB6F000174EC0FF003
:10499000015203E0FF0E016E0FD00501F2C5E9FFE1
:1049A000F3C5EAFF26C6EFFF27C6ECFF28C6ECFFDB
:1049B00029C6ECFF000E016E0001000C720E05010D
:1049C000896F8A6BAC6B68C5EFF567C5EEF5050EB0
:1049D000F16F890EF06F050EF36FB20EF26F0001EA
:1049E0003AEC1AF0015203E1FF0E016EA8D0050166
:1049F000CBBF05D0FF0E016E0001A1D0050168C537
:104A0000EFF567C5EEF52F0EF06F000132EC1FF0E9
:104A100002C0EDF501C0ECF505016751EC5F68518E
:104A2000ED5B010EEC25AD6F036AAD516725E96EB4
:104A300068510320EA6EEF521EE0AC511F081BE3E1
:104A4000036AAC51690F016E050E032203C0EDF538
:104A5000036AAD516725E96E68510320EA6EEFCF16
:104A6000EEF5EDC5EAFF01C0E9FFEEC5EFFF010E6F
:104A7000AD27AC27D9D7036AAC51690FE96E050E93
:104A80000320EA6EEF6AC9C5F1F5C8C5F0F5C7C5E0
:104A9000EFF5C6C5EEF5050EF36FAE0EF26F050E1F
:104AA000F56F690EF46F000119DE0150FF0803E194
:104AB000FF0E016E44D005018B6B8B511F080BE379
:104AC000036A8B518C0FE96E050E0320EA6EEF6AC4
:104AD000010E8B27F2D7200E976FB1C5ADF6B0C58A
:104AE000ACF6AFC5ABF6AEC5AAF60601AF6B0B0EC2
:104AF000AE6F050EB16F8C0EB06F0001EBEC06F0DF
:104B0000015203E0FF0E016E1AD0B1C5C8F6B0C560
:104B1000C7F6AFC5C6F6AEC5C5F60601CA6B200E10
:104B2000C96F050ECC6F8C0ECB6F000174EC0FF0CB
:104B3000015203E0FF0E016E02D0000E016EC2EFC3
:104B400025F0480EF66E010EF76E0F0E0501C56FCB
:104B50000001C8EC0BF066C5EAFF65C5E9FF4AEC49
:104B600009F0270E9EA8FED7AD6E3A0E9EA8FED77E
:104B7000AD6E200E9EA8FED7AD6E66C568F565C504
:104B800067F51CD7015207E05E0EF66E010EF76E58
:104B900039EC09F008D04F0E9EA8FED7AD6E4B0E33
:104BA0009EA8FED7AD6E78EF35F00501AC6B036AB9
:104BB000AC51A825E96EA9510320EA6EEF521CE022
:104BC000036AAC51A825E96EA9510320EA6EEFCF24
:104BD000ADF5ADC589F6ABC58BF6AAC58AF6000161
:104BE0000FEC13F00150FF0803E1FF0E016E06D039
:104BF000010E0501AC27DBD7000E016E0001000C91
:104C0000720EF66E010EF76E0D0E0501C56F0001F6
:104C1000C8EC0BF068C5EAFF67C5E9FF4AEC09F08C
:104C2000810EF66E010EF76E060E0501C56F0001CE
:104C3000C8EC0BF066C5EAFF65C5E9FF4AEC09F070
:104C4000270E9EA8FED7AD6E3A0E9EA8FED7AD6E7B
:104C5000200E9EA8FED7AD6E610E0501A36FA46B5A
:104C600066C5EFF565C5EEF5050EF16FA30EF06FA5
:104C7000050EF36F690EF26F00013AEC1AF0015263
:104C800007E08E0EF66E010EF76E39EC09F034D0A7
:104C900068C5A9F567C5A8F5050E0501AB6F690ED6
:104CA000AA6F000182DF0D0E0501A36F0A0EA46F2B
:104CB000A56B050EA96FA30EA86F050EAB6F690E4D
:104CC000AA6F000172DF050E0501EC6F690EEB6F34
:104CD000000165EC1CF0015207E0A20EF66E010E19
:104CE000F76E39EC09F008D04F0E9EA8FED7AD6ED6
:104CF0004B0E9EA8FED7AD6E78EF35F0A8C503F039
:104D00000501A7C5E9FFA8C5EAFFEF5239E0A8C52C
:104D1000ACF5A7C5ABF5AAC5AEF5A9C5ADF5AEC551
:104D200003F0ADC5E9FFAEC5EAFFEF5216E0ABC533
:104D3000E9FFACC5EAFFEFCFAFF5AEC503F0ADC5F7
:104D4000E9FFAEC5EAFFEF50AF5D07E1AB2BD8B48A
:104D5000AC2BAD2BD8B4AE2BE2D7AEC503F0ADC5AE
:104D6000E9FFAEC5EAFFEF5205E1A7C501F0A8C50E
:104D700002F009D0A72BD8B4A82B0001BFD705019A
:104D8000000E016E026E0001F7EF26F066C55EF6BA
:104D900065C55DF67AEC0AF0010E015C036A050157
:104DA0006525E96E66510320EA6EEF502F080FE08B
:104DB0002F0EA16FA26B66C5A8F565C5A7F5050EF8
:104DC000AA6FA10EA96F0001D7EC0AF005012E0E03
:104DD000A16FA26F2F0EA36FA46B66C5A8F565C562
:104DE000A7F5050EAA6FA10EA96F000187D702C013
:104DF000A8F501C0A7F50501A75302E1A85344E0B7
:104E00002F0EA16FA26B020E06017E6F2A0E7D6F20
:104E1000050E806FA10E7F6F0001E2EC0EF00152D3
:104E2000D8A402D0050130D0020E06015E6F2A0E12
:104E30005D6F00017AEC0AF0010E015C036A2A0F33
:104E4000E96E020E0320EA6EEF6A020E0501EF6FB3
:104E50002A0EEE6F2F0EF06F000132EC1FF002C031
:104E6000A6F501C0A5F52A0E0501A55F020EA65BF9
:104E7000010EA527000EA6232A0EA525E96E020E17
:104E8000A621EA6EEF6A28D0720EA16FA26B66C5EA
:104E9000EFF565C5EEF5050EF16FA10EF06F050E8D
:104EA000F36F670EF26F00013AEC1AF0015207E05F
:104EB000B60EF66E010EF76E39EC09F00CD0020E4C
:104EC000EA6E2A0EE96E66C5E2FF65C5E1FFE752AC
:104ED000E6CFEEFFFCE10501000178EF35F0080EAA
:104EE0000501C525E96E000EC621EA6EEFCF00F080
:104EF000ECCF01F0ECCF02F0ECCF03F003C0CEF525
:104F000002C0CDF501C0CCF500C0CBF5050E060101
:104F10007E6FCB0E7D6F00018CEC16F00150FF0808
:104F20000CE1180E0501C525E96E000EC621EA6EDA
:104F3000020EEF6EFF0E016E1ED1CEC5ADF6CDC5D1
:104F4000ACF6CCC5ABF6CBC5AAF60601AF6B010E2D
:104F5000AE6F050EB16FD30EB06F0001EBEC06F033
:104F60000B0E0501CB25D56F000ECC21D66F000EA0
:104F7000CD21D76F000ECE21D86FE8CFADF6D7C5C3
:104F8000ACF6D6C5ABF6D5C5AAF60601AF6B010ED9
:104F9000AE6F050EB16FD40EB06F0001EBEC06F0F2
:104FA0000501D3530BE1180EC525E96E000EC6218D
:104FB000EA6E020EEF6EFF0E016EDDD0D351E508F2
:104FC000A5E0D4510F08A2E0D451100809E1180E51
:104FD000C525E96E000EC621EA6E010EEF6E07D000
:104FE000180EC525E96E000EC621EA6EEF6A080E9E
:104FF000C525E96E000EC621EA6ECBC5EFFFCCC514
:10500000ECFFCDC5ECFFCEC5ECFF1A0ECB25D56F5E
:10501000000ECC21D66F000ECD21D76F000ECE2111
:10502000D86FE8CFADF6D7C5ACF6D6C5ABF6D5C5CB
:10503000AAF60601AF6B020EAE6F050EB16FC70E7A
:10504000B06F0001EBEC06F0140E0501CB25D56F17
:10505000000ECC21D66F000ECD21D76F000ECE21D1
:10506000D86FE8CFADF6D7C5ACF6D6C5ABF6D5C58B
:10507000AAF60601AF6B020EAE6F050EB16FC90E38
:10508000B06F0001EBEC06F0140E0501C525016EB2
:10509000000EC621036E01C0D5F5D66F040EC525DE
:1050A000016E000EC621036E01C0D7F5D86FC8C5CA
:1050B000DAF5C7C5D9F5C8C5C2F6C7C5C1F600013E
:1050C000EDEC0CF0D8C5EAFFD7C5E9FF00C0EFFF53
:1050D00001C0ECFF02C0ECFF03C0ECFFD6C5EAFF45
:1050E000D5C5E9FF00C0EFFF01C0ECFF02C0ECFF37
:1050F00003C0ECFF1C0E0501CB25D56F000ECC21A3
:10510000D66F000ECD21D76F000ECE21D86FE8CF1D
:10511000ADF6D7C5ACF6D6C5ABF6D5C5AAF6060131
:10512000AF6B040EAE6F050EB16FCF0EB06F000106
:10513000EBEC06F0100E0501C525016E000EC62130
:1051400001C0D5F5C5C5E9FFC6C5EAFFCFC5EFFF6C
:10515000D0C5ECFFD1C5ECFFD2C5ECFFEA6ED5C5DA
:10516000E9FFCFC5EFFFD0C5ECFFD1C5ECFFD2C53D
:10517000ECFF000E016E0001000C720E0501C36F02
:10518000C46B68C5EFF567C5EEF5050EF16FC30E8C
:10519000F06F050EF36F890EF26F00013AEC1AF012
:1051A000015203E0FF0E016E60D0040EF66E000E99
:1051B000F76E040E0501C56F0001C8EC0BF068C561
:1051C000EAFF67C5E9FF4AEC09F02D0E9EA8FED75D
:1051D000AD6E2D0E9EA8FED7AD6EA0C594F59FC5F1
:1051E00093F59EC592F59DC591F5050E0501C66F17
:1051F000890EC56F000173DE0150FF082CE094C5D5
:1052000080F693C57FF692C57EF691C57DF6050EB4
:105210000601826F690E816F000125EC0EF00152CC
:1052200003E0FF0E016E21D00D0E9EA8FED7AD6EDD
:105230000A0E9EA8FED7AD6E050EEA6E690EE96EE7
:105240004AEC09F00501A12D04D02F0E000184ECD9
:1052500009F00001CAD7050E0501EC6F890EEB6F4E
:10526000000165EC1CF0000E016E3CEF29F066C5F4
:1052700068F565C567F581D778EF35F00501AA5166
:10528000000A000105E0010A30E0030A5BE074D087
:10529000040E0501A425E96E000EA521EA6EEFCFEC
:1052A000AFF5ECCFB0F5ECCFB1F5ECCFB2F5A65140
:1052B000AF25AB6FA751B021AC6FA851B121AD6F35
:1052C000A951B221AE6FA5C580F6A4C57FF6050E23
:1052D0000601826FAB0E816F00017EEC14F001526B
:1052E00003E0FF0E016E57D04AD0100E0501A42531
:1052F000E96E000EA521EA6EEFCFAFF5ECCFB0F569
:10530000ECCFB1F5ECCFB2F5A651AF5DAB6FA751C5
:10531000B059AC6FA851B159AD6FA951B259AE6F28
:10532000A5C580F6A4C57FF6050E0601826FAB0EFB
:10533000816F00017EEC14F0015203E0FF0E016E5C
:105340002AD01DD0A9C5AEF5A8C5ADF5A7C5ACF549
:10535000A6C5ABF5A5C580F6A4C57FF6050E06016A
:10536000826FAB0E816F00017EEC14F0015203E0FE
:10537000FF0E016E10D003D0FF0E016E0CD0190E7F
:105380000501A425E96E000EA521EA6EEF50EF0B92
:10539000EF6E000E016E00012EEF2BF0040E0501E2
:1053A000AA25E96E000EAB21EA6EEFCFAFF5ECCF88
:1053B000B0F5ECCFB1F5ECCFB2F51F0EAF17B06B77
:1053C000B16BB26BAF533FE1B0533DE1B1533BE141
:1053D000B25339E1040EAA25E96E000EAB21EA6E44
:1053E000EFCFAFF5ECCFB0F5ECCFB1F5ECCFB2F538
:1053F0001A0EAA25016E000EAB21036E01C0B3F593
:10540000B46FB2C5ADF6B1C5ACF6B0C5ABF6AFC5BD
:10541000AAF60601AF6B200EAE6F03C0B1F601C055
:10542000B0F60001EBEC06F001520EE0190E05019A
:10543000AA25E96E000EAB21EA6EEF502009EF6E4F
:10544000FF0E016E32D0000105011A0EAA25E96E89
:10545000000EAB21EA6EEFCFB1F5ADC5EAFFACC5EA
:10546000E9FFB1C5EFFFAE6BAE5107081CE31A0EA2
:10547000AA25016E000EAB21036E01C0AFF5B06F1F
:10548000200E006E03C0EAFF01C0E9FFEFCF03F07A
:105490001F0EE926000EEA220330ED32002EFDD762
:1054A000010EAE27E1D7000E016E00018BEF2AF04E
:1054B000190E0501A725E96E000EA821EA6EEFA0DE
:1054C0007CD0A7C5E9FFA8C5EAFFEFCFAAF5ECCFCE
:1054D000ABF5ECCFACF5ECCFADF5AA5312E1AB5385
:1054E00010E1AC530EE1AD530CE1190EA725E96EA6
:1054F000000EA821EA6EEF501009EF6EFF0E016E4C
:105500005FD0A8C5ABF5A7C5AAF5050EAD6FA90E6E
:10551000AC6F000143D70150FF0804E1FF0E016E9C
:1055200005014ED00501A95314E1190EA725E96E16
:10553000000EA821EA6EEFB60CD0190EA725E96E71
:10554000000EA821EA6EEF501009EF6EFF0E016EFB
:1055500037D0040EA725016E000EA821036E01C0EE
:10556000AAF5AB6FE8CF8FF601C08EF60001F6EC1E
:1055700011F0015204E0FF0E016E050121D005017A
:10558000A7C5E9FFA8C5EAFF010EEF5C006E000E9B
:10559000EC58016E000EEC58026E000EEC58ED5205
:1055A000ED52ED5200C0EFFF01C0ECFF02C0ECFF76
:1055B000EC6EA9C501F004D003D0FF0E016E00D03F
:1055C0000001E8EF2AF0A5C5A8F5A4C5A7F570D796
:1055D00001C0A6F50501A6519EA8FED7AD6EA65145
:1055E000FF08D8B402D00001EED7A6C501F0000133
:1055F00035EF2BF0720E0501A26FA36B66C5EFF5B8
:1056000065C5EEF5050EF16FA20EF06F050EF36F96
:10561000680EF26F00013AEC1AF0015207E03C0EFE
:10562000F66E020EF76E39EC09F027D00D0E9EA82B
:10563000FED7AD6E0A0E9EA8FED7AD6E050167536C
:105640000EE0050EA56F680EA46FA96BA86BA76B83
:10565000500EA66F010EAA6F000110D60501050EAF
:10566000A56F680EA46F0001AED7050E0501EC6FA3
:10567000680EEB6F000165EC1CF0000C720E05016A
:10568000AB6FAC6BAD6B6AC5EFF569C5EEF5050E9A
:10569000F16FAB0EF06F050EF36FB40EF26F0001F9
:1056A0003AEC1AF0015203E1FF0E016EEAD1050156
:1056B000CDBF05D0FF0E016E0001E3D105016AC523
:1056C000EFF569C5EEF52F0EF06F000132EC1FF01B
:1056D00005016951015CAE6F036AAE516925E96E3F
:1056E0006A510320EA6EEF6A6AC5EFF569C5EEF507
:1056F0002F0EF06F000132EC1FF002C0EFF501C079
:10570000EEF505016951EE5F6A51EF5B010EEE2582
:10571000AE6F036AAE516925E96E6A510320EA6EE5
:10572000EF521EE0AD511F081BE3036AAD516B0F32
:10573000016E050E032203C0EFF5036AAE51692521
:10574000E96E6A510320EA6EEFCFF0F5EFC5EAFF8C
:1057500001C0E9FFF0C5EFFF010EAE27AD27D9D795
:10576000036AAD516B0FE96E050E0320EA6EEF6A16
:10577000036AAE516925E96E6A510320EA6E2F0E65
:10578000EF6ECBC5F1F5CAC5F0F5C9C5EFF5C8C5D3
:10579000EEF5050EF36FB00EF26F050EF56F6B0EA2
:1057A000F46F00016EEC23F00150FF0803E1FF0EDF
:1057B000016E67D1020E0601996F200E986F0001ED
:1057C0005AEC10F00150FF0803E1FF0E016E59D1B1
:1057D00021C2EFF520C2EEF521C299F620C298F65B
:1057E000F3EC10F00150FF0803E1FF0E016E49D108
:1057F00021C2EFF520C2EEF521C299F620C298F63B
:10580000FF0E06019B6F9A6F0001BDEC0FF0015077
:10581000FF0803E1FF0E016E34D10501AF6BAF51FC
:105820001F080BE3036AAF518B0FE96E050E0320CF
:10583000EA6EEF6A010EAF27F2D7100E966F20C204
:10584000A5F5050121C2A6F50501B3C5ADF6B2C5A2
:10585000ACF6B1C5ABF6B0C5AAF60601AF6B0B0E40
:10586000AE6F050EB16F8B0EB06F0001EBEC06F062
:10587000015203E0FF0E016E04D1B3C5C8F6B2C5F4
:10588000C7F6B1C5C6F6B0C5C5F60601CA6B200E8F
:10589000C96F050ECC6F8B0ECB6F000174EC0FF04F
:1058A000015203E0FF0E016EECD021C2EFF520C2E1
:1058B000EEF521C2C2F620C2C1F6EDEC0CF003C039
:1058C000B3F502C0B2F501C0B1F500C0B0F50501F5
:1058D000AF6BAF511F0831E3AF530AE1036AAF5119
:1058E0008B0FE96E050E0320EA6E2E0EEF6E22D0AE
:1058F000AF510A080AE3036AAF518B0FE96E050E38
:105900000320EA6E200EEF6E15D0AF510B080AE1AE
:10591000036AAF518B0FE96E050E0320EA6E100E7D
:10592000EF6E08D0036AAF518B0FE96E050E0320AE
:10593000EA6EEF6A010EAF27CCD720C2A5F50501AC
:1059400021C2A6F50501B3C5C8F6B2C5C7F6B1C5F3
:10595000C6F6B0C5C5F60601CA6B200EC96F050EA6
:10596000CC6F8B0ECB6F000174EC0FF0015203E093
:10597000FF0E016E86D00501AF6BAF510B0826E319
:10598000AF5101080AE3036AAF518B0FE96E050EB0
:105990000320EA6E2E0EEF6E16D0AF510A080AE30E
:1059A000036AAF518B0FE96E050E0320EA6E200EDD
:1059B000EF6E09D0036AAF518B0FE96E050E03201D
:1059C000EA6E100EEF6E010EAF27D7D702012451F9
:1059D0000501C05D14E1020125510501C15D0FE122
:1059E000020126510501C25D0AE1020127510501AC
:1059F000C35D05E19F6BA06BA56BA66B1CD0C3C5F7
:105A00009DF6C2C59CF6C1C59BF6C0C59AF60001BD
:105A100047EC0CF0050101C0A5F5C3C59DF6C2C554
:105A20009CF6C1C59BF6C0C59AF6000147EC0CF088
:105A3000050102C0A6F5200EB025EE6F000EB121C3
:105A4000EF6F000EB221F06F000EB321F16FE8CFBF
:105A5000C8F6F0C5C7F6EFC5C6F6EEC5C5F6060131
:105A6000CA6B200EC96F050ECC6F8B0ECB6F000179
:105A700074EC0FF0015203E0FF0E016E02D0000E35
:105A8000016E84EF2DF066C55EF665C55DF67AECB5
:105A90000AF0010E015C036A05016525E96E665195
:105AA0000320EA6EEF502F080FE02F0E676F686B30
:105AB00066C5A8F565C5A7F5050EAA6F670EA96F9F
:105AC0000001D7EC0AF00501D20EF66E010EF76E5A
:105AD000140EC56F0001C8EC0BF066C5EAFF65C582
